:020000040800F2
:100000006043002045010008F95000088D490008B0
:10001000F5500008B91D0008E95C00080000000068
:1000200000000000000000000000000095530008E0
:100030008D210008000000006553000825570008C6
:100040005F0100085F0100085F0100085F01000810
:100050005F0100085F0100085F0100085F01000800
:100060005F0100085F0100085F01000841210008EE
:100070005F0100085F0100084D2100085F010008D2
:100080005F0100085F0100085F0100085F010008D0
:100090005F0100085F0100085F0100085F010008C0
:1000A0005F0100085F0100085F0100085F010008B0
:1000B0005F0100085F010008915700085F01000818
:1000C0005F0100085F0100085F0100085F01000890
:1000D0005F010008DD5C00085F0100085F010008A7
:1000E0005F0100085F0100085F0100085F01000870
:1000F0005F0100085F0100085F0100085F01000860
:100100005F0100085F0100085F0100085F0100084F
:100110005F0100085F0100085F0100085F0100083F
:100120005F0100085F010008592100085F01000815
:10013000DFF80CD001F020FD004800479D5F00086B
:10014000604300200648804706480047FEE7FEE778
:10015000FEE7FEE7FEE7FEE7FEE7FEE7FEE7FEE777
:100160008D570008310100082DE9F04F4FF0000CC9
:100170004FF0000301EB9C5EBEF90250BEF9004057
:100180000EF5806EBEF90290BEF900800EF5806E0D
:10019000BEF90270BEF900600EF5806EBEF902B0C5
:1001A000BEF900A00EF5806ED044D944A8EB4A0AEF
:1001B000A9EB4B0B4FEAA4044FEAA50504EBA604F8
:1001C00005EBA705A4EB6606A5EB670704EBA804FF
:1001D00005EBA905A4EB6808A5EB690906EBAB06DE
:1001E000A7EBAA07A6EB6B0B07EB6A0A458020F882
:1001F000044B478020F8046BA0F8029020F8048B91
:10020000A0F802A020F804BB03F1010393FAA3FCB9
:10021000B3F5807FAED1A0EB82014FF0100312093D
:100220000FF2341000F1000006B403EB430C6144FC
:10023000A2F5803202EB8332B1F90250B1F90040ED
:10024000A1EB0301B0F902B0B0F900A000F1040085
:10025000A5EB040E0EFB0BFC0AEB4B0E05FB0ACBC9
:1002600004FB0ECAB1F90250B1F90040A1EB030141
:10027000B0F90290B0F9008000F10400A5EB040E83
:100280000EFB09FC08EB490E05FB08C904FB0EC870
:10029000B1F90250B1F90040A1EB0301B0F90270CD
:1002A000B0F9006000F10400A5EB040E0EFB07FCA2
:1002B00006EB470E05FB06C704FB0EC6B1F902505C
:1002C000B1F9004001F10001D044D944A8EB4A0A39
:1002D000A9EB4B0B4FEAA4044FEAA50504EB264417
:1002E00005EB2745A4EBE636A5EBE73704EB2844FE
:1002F00005EB2945A4EBE838A5EBE93906EB2B46DD
:10030000A7EB2A47A6EBEB3B07EBEA3A4D800C80C4
:1003100019444F800E801944A1F80290A1F8008082
:100320001944A1F802A021F804BBB2F5803283DAA7
:1003300003EB430C6144A2F101025FEA024E18BFD5
:10034000A0EB0C007FF476AF06BC4FEA8303920863
:100350007FF46AAFBDE8F08F00400000004000006D
:10036000004000005DDD213BA3227E180000412DEE
:100370007EA5412D0000412D00C000405DDD82E7DB
:100380005DDD213B7EA5412D0040000000400000C6
:1003900000400000AA2A94126B39460649327C0CB0
:1003A000A8118E2349327C0CA3227E1821F77931C3
:1003B000AA2A9412A8118E235DDD213BA3227E1868
:1003C0000000412D95C6B13F461A2B1E58EE373519
:1003D000BEB4C53EA8118E235DDD213B63A97138F3
:1003E000DF089A28B7CDC53E7EA5412D0000412DDE
:1003F00000C0004063A92B1E21F77931BEB4C53E71
:10040000BEB47C0C58EE373561AC213B95C6BAF9C9
:10041000BAE571383BA737355DDD82E75DDD213B0D
:100420007EA5412D21F766D756D53F3D3BA78E23AC
:10043000A811C9CAB7CDC53E61AC7E18AA2AC1C2EF
:1004400095C6B13FBEB47C0C0040000000400000E7
:10045000004000001E3BB504693E9201C83C2403E5
:10046000EB356409C83C24036B3946066C30060E34
:100470001E3BB504EB356409AA2A94126B39460673
:1004800049327C0CAE240917AF37D607882E8D0F62
:100490007E1E5D1BEB356409AA2A941224188C1F5A
:1004A0001E34F10AB3269015A8118E2349327C0C14
:1004B000A3227E18140B60276C30060E7E1E5D1B77
:1004C0007104FB2A882E8D0F461A2B1EC7FD5A2E4B
:1004D0009D2C1211FE15E72021F77931AA2A9412DA
:1004E000A8118E2387F05334B2281314480D202608
:1004F00002EAE536B3269015DF089A289CE32B39EB
:10050000AE2409177104FB2A5DDD213BA3227E186E
:100510000000412D4ED7C53C9320EF198FFB6C2F67
:1005200078D1153E7E1E5D1B21F77931E2CB0F3F5E
:10053000641CC61CB8F2683395C6B13F461A2B1E20
:1005400058EE373597C1FB3F24188C1F02EAE53679
:10055000F0BCEC3FFE15E720BAE57138A6B8853F40
:10056000D5133D2282E1DB39BEB4C53EA8118E23EE
:100570005DDD213B40B1AF3D790FDA244DD9423CDE
:100580002EAE423C480D202656D53F3D8EAB823ADA
:10059000140B602778D1153E63A97138DF089A28BB
:1005A000B7CDC53EB1A71236A906CE2915CA4F3F11
:1005B00078A668337104FB2A95C6B13FBCA5763096
:1005C0003902212C38C3EC3F7EA5412D0000412D7E
:1005D00000C00040BCA5CE29C7FD5A2EF0BCEC3FA0
:1005E00078A620268FFB6C2F09BAB13FB1A73D2218
:1005F00057F976304DB74F3F63A92B1E21F779315C
:10060000BEB4C53E8EABEF19ECF474325EB2153E4B
:100610002EAE9015B8F268332DB03F3D40B11211A7
:1006200087F053342EAE423CBEB47C0C58EE3735C6
:1006300061AC213BA6B8D6072BEC1236C8AADB3931
:10064000F0BC240302EAE53663A9713897C16EFE57
:10065000DCE7B03734A8E53695C6BAF9BAE57138A3
:100660003BA73735E2CB0FF59CE32B3978A66833EF
:1006700078D173F082E1DB39EDA579314ED7EDEB1E
:100680006DDF823A99A56C2F5DDD82E75DDD213B50
:100690007EA5412D9CE33AE352DBB63B99A5FB2AAC
:1006A00002EA19DF4DD9423CEDA59A2887F026DBF6
:1006B0004ED7C53C78A6202621F766D756D53F3DB4
:1006C0003BA78E23C7FDDFD363D3AF3D34A8E7201C
:1006D000710494D078D1153E63A92B1E140B8CCDD8
:1006E00094CF723EC8AA5D1BA811C9CAB7CDC53E3A
:1006F00061AC7E18241850C8E2CB0F3F2EAE901587
:100700007E1E25C615CA4F3F2DB09412AE244AC492
:1007100051C8853F5EB28D0FAA2AC1C295C6B13FAE
:10072000BEB47C0C6C308EC1E2C4D43F4DB76409BA
:10073000EB35B1C038C3EC3F09BA46061E3B2CC0AE
:1007400097C1FB3FF0BC24030040000000400000C4
:1007500000400000D03E2E019B3F6500363FC9009F
:100760009A3D5B02363FC900693E92015F3C8803B7
:10077000D03E2E019A3D5B021E3BB504693E9201BC
:10078000C83C2403D939E205023EF701F43BED03EE
:100790008E380E079A3D5B021E3BB5043F37390881
:1007A000313DC002463A7E05EB356409C83C24035E
:1007B0006B39460692348E0A5F3C88038E380E07EA
:1007C0003433B70BF43BED03AF37D607D231DF0C30
:1007D0008A3B5104CE369D086C30060E1E3BB50494
:1007E000EB356409022F2B0FB23A1A0505352B0A97
:1007F000932D5010463A7E051E34F10A212C7311B8
:10080000D939E2053433B70BAA2A94126B3946065C
:1008100049327C0C3129B413FD38AA065B31410DF5
:10082000B327D2148E380E076C30060E3226EE1522
:100830001F3872077B2FCA0EAE240917AF37D607B1
:10084000882E8D0F262321183F373908932D5010FD
:100850009C213719CE369D089D2C12110E204B1A63
:100860005D360109A42BD3117E1E5D1BEB35640997
:10087000AA2A9412EB1C6C1C7835C709AF295413B3
:10088000561B791D05352B0AB2281314BE19841E78
:1008900092348E0AB327D21424188C1F1E34F10A06
:1008A000B326901588169120A933540BB1254C1608
:1008B000EA1493213433B70BAE2409174A1392225A
:1008C000BF321A0CA923C417A8118E2349327C0CFD
:1008D000A3227E1805108824D231DF0C9C21371901
:1008E000610E7E255B31410D9320EF19BB0C712603
:1008F000E430A40D891FA71A140B60276C30060E74
:100900007E1E5D1B6D094C28F42F680E721D121C93
:10091000C40735297B2FCA0E641CC61C1B061A2A65
:10092000022F2B0F561B791D7104FB2A882E8D0F69
:10093000461A2B1EC702D82B0E2EEE0F3519DC1EC1
:100940001C01B22C932D501024188C1F72FF882D7F
:10095000182DB11011173A20C7FD5A2E9D2C1211D7
:10096000FE15E7201DFC282F212C7311EA1493217A
:1009700073FAF22FA42BD311D5133D22CAF8B83045
:10098000282B3412BF12E72221F77931AA2A9412B8
:10099000A8118E2379F536322D2AF41291103524C0
:1009A000D2F3EF32AF295413790FDA242CF2A333A8
:1009B0003129B413610E7E2587F05334B228131405
:1009C000480D2026E3EEFF34332873142E0CC12685
:1009D00041EDA535B327D214140B6027A1EB48369F
:1009E00033273115FA09FE2702EAE536B3269015BA
:1009F000DF089A2865E87E373226EE15C4073529C8
:100A0000CBE61238B1254C16A906CE2932E5A1381D
:100A10002F25AB168D05652A9CE32B39AE240917CB
:100A20007104FB2A08E2B0392B24661755038F2B7B
:100A300077E0303AA923C4173902212CE9DEAB3A1A
:100A4000262321181C01B22C5DDD213BA3227E1838
:100A50000000412DD5DB923B1F22DB18E4FECF2D99
:100A60004FDAFD3B9C213719C7FD5A2ECDD8643C87
:100A700017219319ABFCE42E4ED7C53C9320EF19F8
:100A80008FFB6C2FD3D5213D0E204B1A73FAF22F1A
:100A90005CD4783D891FA71A57F97630E8D2C93D52
:100AA000041F021B3CF8F93078D1153E7E1E5D1BF9
:100AB00021F779310CD05C3EF81DB81B06F6F831F1
:100AC000A5CE9D3E721D121CECF4743241CDD83E71
:100AD000EB1C6C1CD2F3EF32E2CB0F3F641CC61C44
:100AE000B8F2683388CA403FDD1B201D9FF1DF3319
:100AF00032C96B3F561B791D87F05334E1C7913FD4
:100B0000CE1AD31D6FEFC63495C6B13F461A2B1EC1
:100B100058EE37354EC5CC3FBE19841E41EDA53584
:100B20000CC4E13F3519DC1E2BEC1236CFC2F13F6D
:100B3000AD18341F16EB7D3697C1FB3F24188C1F70
:100B400002EAE53665C000409B17E31FEFE84B372C
:100B500038BFFF3F11173A20DCE7B03711BEF83F2E
:100B600088169120CBE61238F0BCEC3FFE15E7204A
:100B7000BAE57138D4BBDB3F74153D21AAE4CF3808
:100B8000BFBAC43FEA1493219CE32B39AFB9A73F06
:100B90005F14E8218EE28439A6B8853FD5133D2243
:100BA00082E1DB39A2B75D3F4A13922277E0303A07
:100BB000A5B6303FBF12E7226DDF823AAFB5FD3EEA
:100BC00034123B2364DED33ABEB4C53EA8118E2353
:100BD0005DDD213BD5B3883E1D11E22357DC6D3B23
:100BE000F2B2453E9110352452DBB63B15B2FC3DC6
:100BF000051088244FDAFD3B40B1AF3D790FDA2470
:100C00004DD9423C71B05B3DED0E2C254DD8853C55
:100C1000A9AF033D610E7E254ED7C53CE8AEA53C8D
:100C2000D40DCF2551D6033D2EAE423C480D202693
:100C300056D53F3D7BADDA3BBB0C71265CD4783D8D
:100C4000D0AC6D3B2E0CC12663D3AF3D2BACFA3A32
:100C5000A10B11276DD2E33D8EAB823A140B6027B6
:100C600078D1153EF8AA063A870AAF2785D0453EC7
:100C70006AAA8439FA09FE2794CF723EE3A9FD38A7
:100C80006D094C28A5CE9D3E63A97138DF089A28CE
:100C9000B7CDC53EEBA8E1375208E728CCCCEB3EF8
:100CA0007BA84B37C4073529E2CB0F3F12A8B136DA
:100CB00036078129FBCA303FB1A71236A906CE29D3
:100CC00015CA4F3F57A76E351B061A2A32C96B3F0C
:100CD00005A7C6348D05652A51C8853FBBA61934C2
:100CE000FF04B02A72C79C3F78A668337104FB2AC0
:100CF00095C6B13F3EA6B232E303452BBAC5C43F09
:100D00000BA6F83155038F2BE2C4D43FE0A539314F
:100D1000C702D82B0CC4E13FBCA576303902212C88
:100D200038C3EC3FA1A5AF2FAA016A2C66C2F53FDC
:100D30008DA5E42E1C01B22C97C1FB3F81A5152E79
:100D40008E00FA2CCAC0FF3F7EA5412D0000412D28
:100D500000C0004081A56A2C72FF882D38BFFF3F7C
:100D60008DA58F2BE4FECF2D73BEFB3FA1A5B02A2E
:100D700056FE152EB0BDF53FBCA5CE29C7FD5A2E97
:100D8000F0BCEC3FE0A5E72839FD9F2E32BCE13FE7
:100D90000BA6FE27ABFCE42E77BBD43F3EA6112763
:100DA0001DFC282FBFBAC43F78A620268FFB6C2FCE
:100DB00009BAB13FBBA62C2501FBAF2F56B99C3F0A
:100DC00005A7352473FAF22FA6B8853F57A73B2312
:100DD000E5F93430F8B76B3FB1A73D2257F97630CB
:100DE0004DB74F3F12A83D21CAF8B830A5B6303FE5
:100DF0007BA83A203CF8F93000B60F3FEBA8341F2F
:100E0000AEF739315EB5EB3E63A92B1E21F7793180
:100E1000BEB4C53EE3A9201D93F6B93122B49D3E70
:100E20006AAA121C06F6F83188B3723EF8AA021BB1
:100E300079F53632F2B2453E8EABEF19ECF47432EE
:100E40005EB2153E2BACDB185FF4B232CDB1E33DA0
:100E5000D0ACC417D2F3EF3240B1AF3D7BADAB168F
:100E600045F32C33B5B0783D2EAE9015B8F268330B
:100E70002DB03F3DE8AE73142CF2A333A9AF033D70
:100E8000A9AF54139FF1DF3328AFC53C71B03412C2
:100E900013F11934A9AE853C40B1121187F05334D7
:100EA0002EAE423C15B2EE0FFBEF8D34B6ADFD3BDE
:100EB000F2B2CA0E6FEFC63441ADB63BD5B3A40D46
:100EC000E3EEFF34D0AC6D3BBEB47C0C58EE37354E
:100ED00061AC213BAFB5540BCCED6E35F6ABD33ADC
:100EE000A5B62B0A41EDA5358EAB823AA2B7010912
:100EF000B6ECDC3529AB303AA6B8D6072BEC123667
:100F0000C8AADB39AFB9AA06A1EB48366AAA843968
:100F1000BFBA7E0516EB7D360FAA2B39D4BB510420
:100F20008CEAB136B7A9CF38F0BC240302EAE53623
:100F300063A9713811BEF70178E9183712A9123880
:100F400038BFC900EFE84B37C5A8B03765C09BFF75
:100F500065E87E377BA84B3797C16EFEDCE7B0377C
:100F600034A8E536CFC240FD53E7E137F1A77D361F
:100F70000CC413FCCBE61238B1A712364EC5E6FA04
:100F800042E6423874A7A53595C6BAF9BAE5713874
:100F90003BA73735E1C78EF832E5A13805A7C6343F
:100FA00032C963F7AAE4CF38D3A6533488CA39F6D6
:100FB00023E4FD38A4A6DF33E2CB0FF59CE32B3905
:100FC00078A6683341CDE6F315E3583950A6EF32E1
:100FD000A5CEBFF28EE284392CA674320CD098F1E3
:100FE00008E2B0390BA6F83178D173F082E1DB3931
:100FF000EDA57931E8D24FEFFCE0063AD3A5F93000
:101000005CD42DEE77E0303ABCA57630D3D50CED2C
:10101000F2DF593AA9A5F22F4ED7EDEB6DDF823AF8
:1010200099A56C2FCDD8CFEAE9DEAB3A8DA5E42E99
:101030004FDAB4E964DED33A85A55A2ED5DB9AE8B7
:10104000E1DDFA3A7FA5CF2D5DDD82E75DDD213B55
:101050007EA5412DE9DE6DE6DADC473B7FA5B22CAB
:1010600077E059E557DC6D3B85A5212C08E248E483
:10107000D5DB923B8DA58F2B9CE33AE352DBB63B4D
:1010800099A5FB2A32E52DE2D1DADA3BA9A5652A3A
:10109000CBE624E14FDAFD3BBCA5CE2965E81DE097
:1010A000CED9203CD3A5352902EA19DF4DD9423CDF
:1010B000EDA59A28A1EB18DECDD8643C0BA6FE273F
:1010C00041ED19DD4DD8853C2CA66027E3EE1EDCF2
:1010D000CDD7A53C50A6C12687F026DB4ED7C53C10
:1010E00078A620262CF231DACFD6E43CA4A67E25C1
:1010F000D2F33FD951D6033DD3A6DA2479F551D89E
:10110000D3D5213D05A7352421F766D756D53F3DD8
:101110003BA78E23CAF87FD6D8D45B3D74A7E722BD
:1011200073FA9BD55CD4783DB1A73D221DFCBBD49E
:10113000DFD3933DF1A79321C7FDDFD363D3AF3D49
:1011400034A8E72072FF06D3E8D2C93D7BA83A2035
:101150001C0131D26DD2E33DC5A88C1FC70261D1FD
:10116000F2D1FC3D12A9DC1E710494D078D1153E59
:1011700063A92B1E1B06CCCFFED02D3EB7A9791D2F
:10118000C40707CF85D0453E0FAAC61C6D0947CEC0
:101190000CD05C3E6AAA121C140B8CCD94CF723E0C
:1011A000C8AA5D1BBB0CD4CC1CCF883E29ABA71AA8
:1011B000610E21CCA5CE9D3E8EABEF19051073CBF1
:1011C0002ECEB13EF6AB3719A811C9CAB7CDC53E70
:1011D00061AC7E184A1324CA41CDD83ED0ACC417A6
:1011E000EA1483C9CCCCEB3E41AD09178816E8C898
:1011F00057CCFD3EB6AD4C16241850C8E2CB0F3F7D
:101200002EAE9015BE19BEC76ECB203FA9AED2142C
:10121000561B31C7FBCA303F28AF1314EB1CA8C6BE
:1012200088CA403FA9AF54137E1E25C615CA4F3F3A
:101230002DB094120E20A7C5A3C95D3FB5B0D31140
:101240009C212DC532C96B3F40B112112623B9C470
:10125000C1C8783FCDB15010AE244AC451C8853FB3
:101260005EB28D0F3226E0C3E1C7913FF2B2CA0EE3
:10127000B3277BC372C79C3F88B3060E31291CC3BA
:1012800003C7A73F22B4410DAA2AC1C295C6B13FE8
:10129000BEB47C0C212C6DC227C6BB3F5EB5B70B1C
:1012A000932D1DC2BAC5C43F00B6F10A022FD3C1A7
:1012B0004EC5CC3FA5B62B0A6C308EC1E2C4D43FDC
:1012C0004DB76409D2314FC176C4DB3FF8B79D08F2
:1012D000343315C10CC4E13FA6B8D6079234E0C040
:1012E000A1C3E73F56B90E07EB35B1C038C3EC3F99
:1012F00009BA46063F3788C0CFC2F13FBFBA7E0564
:101300008E3864C066C2F53F77BBB504D93945C095
:10131000FEC1F83F32BCED031E3B2CC097C1FB3F22
:10132000F0BC24035F3C19C030C1FD3FB0BD5B027F
:101330009A3D0BC0CAC0FF3F73BE9201D03E03C0AE
:1013400065C0004038BFC900D2B201E000F8012BEF
:10135000491EFBD270470022F6E710B513460A4635
:1013600004461946FFF7F0FF204610BD421C10F856
:10137000011B0029FBD1801A704710B5002200E044
:10138000521C835C8C5CA34201D1002BF8D1D8B2F3
:10139000E1B2401A10BD034611F8012B00F8012BF1
:1013A000002AF9D118467047F0B480EA0102D40F40
:1013B0004200B2EB410F02D20246084611464A00F3
:1013C00042D0C30DDDB2C1F3C752AD1A202D35DABC
:1013D000C1F3160141F4000204B15242C5F12006E6
:1013E00002FA06F12A411044B3EBD05F23D0C4B116
:1013F000012DA0EBC35009DCF0BC4FF0004202EA23
:10140000C352DBB200F5000000F003BA400000F167
:10141000807000EBC350A0F1807040EAD1704900A9
:1014200009E0490841EAC071A0EBC35000F5000093
:10143000400800EBC350F0BC00F0E2B96142012269
:1014400002EB4101001BF6E7F0BC704781F0004160
:10145000AAE780F00040A7E780EA010210B502F099
:101460000043400022D04A001FD0010E01EB126160
:10147000C0F35600C2F3560240F4000042F40002EA
:10148000A0FB022000047F39140400D0401C50EA65
:10149000124001D44000491EC2B20C0604EBD01029
:1014A000401C4008802A02D003E0002010BD20F03C
:1014B0000100002900DA0020184310BD2DE9FE4F7D
:1014C00081EA030404F0004421F0004100944FF04D
:1014D000000B23F0004350EA01045ED052EA0304FB
:1014E0005BD0C3F30A54C1F30A552C44A4F2F3347D
:1014F0000194A0FB0254C1F3130141F48011C3F322
:10150000130343F4801301FB024400FB034E840ADF
:10151000970A44EA815447EA8357A4FB0768029577
:101520008D0A05FB07854FEA932C04FB0C54270515
:10153000029D4FEA065847EA1637B5EB08056EEBF1
:10154000070C870E920E47EA811742EA8312A7FB27
:101550000201B6EB0B0164EB00042B0D43EA0C33E4
:101560005E1844EB1C50DA465146E7FB0201C5F316
:1015700013044FEA0B3343EA14534FEA0432019C3D
:1015800043EA0603A4F10C040294009CCDE900B4E4
:1015900000F07CF903B0BDE8F08F00200146F9E7C8
:1015A0002DE9F04D81EA030404F0004B21F00045E1
:1015B00014464FF0000A23F0004150EA050220D003
:1015C00054EA01021DD0C5F30A570246C5F31303BE
:1015D000C1F31300C1F30A5640F4801543F480139D
:1015E000A7EB0608101BD64608F2FD3873EB050082
:1015F00002D308F1010801E092185B41B8F1000F35
:1016000003DA00200146BDE8F08D00204FF4801180
:10161000064684460EE0171B73EB050705D3121B25
:1016200063EB050306434CEA010C49084FEA30001E
:1016300092185B4150EA0107EDD152EA030012D043
:1016400082EA040083EA0501084305D0101BAB4180
:1016500006D20122002306E000224FF0004302E000
:101660006FF0010253101AEB06004CEB085110EB1F
:101670000A0041EB0B01BDE8F04D00F0F8B800287E
:1016800001DBC0F10040002901DBC1F100418142D2
:1016900001D20120704700207047002801DBC0F113
:1016A0000040002901DBC1F10041814201D9012044
:1016B000704700207047C10F80EAE0700844CA07F5
:1016C0009623002100F0A5B896230022114600F0D1
:1016D000A0B80EB540F2334102910021CDE90011CE
:1016E0000A460B4600F0D2F803B000BD20F00040DF
:1016F000C10DC0F3160040F400007F2901DA00207C
:101700007047962903DCC1F19601C84070479639AD
:101710008840704700F0004230F000400AD0C10D10
:1017200001F56071C0F3160042EA0151C20840079A
:101730001143704700200146704701F0004330B468
:1017400021F0004150EA010206D00A0DA2F56072B4
:10175000C1F31301002A02DC30BC00207047440FA3
:1017600044EAC104C100E01830BC00EBC25000F0F4
:1017700047B830B50B46014600202022012409E07D
:1017800021FA02F59D4205D303FA02F5491B04FA3A
:1017900002F52844151EA2F10102F1DC30BD2DE94D
:1017A000F05F0546002092469B46884606468146E5
:1017B00040241BE0284641464746224600F0FDF9FA
:1017C00053465A46C01A914110D311461846224634
:1017D00000F0E4F92D1A67EB01084F46224601207C
:1017E000002100F0DBF917EB00094E41201EA4F1A7
:1017F0000104DFDC484631462A464346BDE8F09FF7
:101800000029A8BF7047401C490008BF20F0010014
:10181000704710B4B0FA80FC00FA0CF050EA0104F2
:1018200004BF10BC704749B1CCF1200421FA04F484
:1018300011FA0CF118BF012121430843A3EB0C015D
:10184000CB1D4FEA00614FEA102042BF002010BCC0
:10185000704700EBC35010440029A4BF10BC704770
:10186000401C490008BF20F0010010BC704710B5B3
:10187000141E73F1000408DA401C41F100019218B3
:101880005B411A4301D120F0010010BD2DE9F04D5C
:1018900092469B4611B1B1FA81F202E0B0FA80F2B1
:1018A0002032904600F07AF904460F4640EA0A00DA
:1018B00041EA0B0153465A46084313D0114653EAF6
:1018C000010019D0C8F14002504600F076F90546F3
:1018D0000E4650465946424600F060F9084305D08E
:1018E000012004E020463946BDE8F08D0020054384
:1018F00046EAE0762C4337430A986305E40AA0EBF6
:1019000008000022FD0A44EA47540A3002D50020AC
:101910000146E9E7010510196941DDE908450019AB
:101920006941BDE8F04DA2E72DE9FE4F804681EA0E
:101930000300C00F0C46009021F0004123F0004549
:10194000B8EB0200A94105D24046214690461C460C
:101950000B46024623F00040104347D0270DC7F343
:101960000A00C3F30A510290401A019040286BDA32
:10197000C3F3130040F4801B0098924620B100236B
:10198000D2EB030A63EB0B0B01985946C0F14002FE
:10199000504600F003F906460D4650465946019A56
:1019A00000F01BF910EB08006141002487EA115296
:1019B00084EAE7731A4340D0009A62B3019A012A7D
:1019C0004FEA075215DC001B61EB02014FF00042A9
:1019D00002EA0752CDE90042001C41F5801132466F
:1019E0002B46FFF753FF03B0BDE8F08F404621467A
:1019F000F9E7001B61EB0201001C41F580130018A0
:101A00005B412018A2F5001747EB030140EAD570AF
:101A1000B6196D4111E06D084FEA360645EAC0750A
:101A20004FEA0752001B61EB0201001C41F58011D7
:101A300049084FEA30000019514132462B4603B0A5
:101A4000BDE8F04FFFF713BF0098012240000023CC
:101A5000D0EB020263EBE073009821464FEAE0749A
:101A6000B8EB000061EB0401E9E783F000435BE7BA
:101A700081F0004158E72DE9F04D00231A461B1A6A
:101A80008A4103DB00200146BDE8F08DC1F30A5214
:101A9000C1F3130141F480154FF0000BD10702D1BF
:101AA00000186D41521E0027044640F2FF113846CF
:101AB00001EB620A3E468046024600204FF4801148
:101AC00000F07BF8C2197141BB1846EB0100B4EB82
:101AD000030C75EB000C04D3E41A65EB0005174604
:101AE0000E46241908F101006D4180463428E3DDDB
:101AF000F91946EB0600091BA84103D24FF0FF324B
:101B0000134601E0002213461BEB070046EB0A5187
:101B1000BDE8F04DFFF7ABBEC1F30A52C1F31301AC
:101B200040F2FF3341F480119A4202DA002001466C
:101B3000704740F233439A42A2F2334202DC5242EF
:101B400000F03BB800F02AB830B5041E71F1000473
:101B500004DB4FF00044404264EB0101141E73F1BA
:101B6000000405DB1C464FF00043524263EB0403C4
:101B7000994208BF904230BD064C074D06E0E06830
:101B800040F0010394E8070098471034AC42F6D3C4
:101B9000FEF7D2FA7870000898700008202A04DB5B
:101BA000203A00FA02F1002070479140C2F1200370
:101BB00020FA03F3194390407047202A04DB203AAF
:101BC00021FA02F00021704721FA02F3D040C2F15D
:101BD00020029140084319467047202A06DBCB17A4
:101BE000203A41FA02F043EAE07306E041FA02F3D8
:101BF000D040C2F12002914008431946704770B5A9
:101C00008C1810F8015B15F0070301D110F8013BA7
:101C10002A1106D110F8012B03E010F8016B01F82E
:101C2000016B5B1EF9D12B0705D40023521E0DD486
:101C300001F8013BFAE710F8013BCB1A921C03E0D4
:101C400013F8015B01F8015B521EF9D5A142D8D30C
:101C5000002070BDB0B504460068816811F0010F26
:101C60001FD0816821F00101816001F04DFA054625
:101C70002068806810F0010F13D001F045FA401B76
:101C80000328F5D32068806810F0010FF0D0A06A17
:101C900040F01000A062E06A40F00100E062012024
:101CA000B0BD0020B0BD00000146406A826A12F05B
:101CB000500F03D0006A026B084610470168826A21
:101CC00042F400728262896801F46021B1F5602FEC
:101CD00018BF00F009BB017B09B100F005BB816AA8
:101CE00021F480718162816A11F4805F02BF816A90
:101CF00041F00101816200F0F7BA0000406A816A98
:101D000041F040018162C16A41F00401C16200F00A
:101D10009BBB0000406A00F095BB0000B0B582B0EC
:101D200004460020019021688A6812F0010F33D127
:101D3000886840F00100886040F2D000C2F20000E4
:101D400000684DF68361C4F21B31A0FB0101880CD1
:101D500002E000BF01980138019001980028F9D1F4
:101D600001F0D2F905462068806810F0010F1EBF0F
:101D7000002002B0B0BD00BF01F0C6F9401B03282F
:101D800004D32068806810F0010F07D020688068B5
:101D900010F0010FF0D0002002B0B0BDA06A40F0FA
:101DA0001000A062002084F82400E06A40F00100E6
:101DB000E062012002B0B0BDFEE700002DE9F04F67
:101DC00083B08B460446002008600192106040F208
:101DD0009826C2F2000641F29821C2F2000100BF2B
:101DE00056F82020120441F820200130B0F5806F11
:101DF000F6D142F29827C2F2000741F29821C2F2CE
:101E0000000138464FF48062FEF7AEF9384603F021
:101E1000D3FF002042F69821C2F2000143F2D457CA
:101E2000C2F2000743F2D055C2F2000530B151F8BA
:101E300020203B6893423CBF28603A600130B0F5F7
:101E4000007FF3D1029443F2D854C2F20004384622
:101E5000214604F017F8D4F80080D7F800A0AAEBC8
:101E60000800FFF736FC46F26663C4F20A034FF03F
:101E70006632FFF723FB4FF000090023C3F63073EF
:101E80000022FFF71BFB04460F460023C3F6E07356
:101E90000022FFF713FB43F64872C2F20002527AA7
:101EA000012A1CBF20463946FFF747FCCBF800004B
:101EB00008EB0A004108002056F829208A4288BF12
:101EC000013009F10109B9F5806FF5D1FFF701FC87
:101ED0000023C3F650730022FFF7F0FA0023C4F288
:101EE00059030022FFF7EAFAFFF727FC019908607F
:101EF00040F2D406C2F2000630780028029C23D0BB
:101F0000012813D0022843F64877C2F2000737D1E0
:101F10002868FFF7D9FB44F20001C4F21C61FFF707
:101F20009BFA4FF06A51FFF797FA28E02868FFF70D
:101F3000CBFB44F20001C4F21C61FFF78DFA4FF0B5
:101F40006C51FFF789FA16E02868FFF7BDFB44F2F1
:101F50000001C4F21C61FFF77FFAFFF7DBFB49F6D3
:101F60009A12C9F6991249F69913C4F25903FFF768
:101F700017FBFFF7E2FB43F64877C2F20007206049
:101F8000387804282CD124680021C4F22F4120463F
:101F9000FFF783FB05460021C4F248312046FFF7D6
:101FA0007CFB002818BF0120002D18BF02203070D4
:101FB00043F2AE60C2F20000017809291BD808295B
:101FC0000CD143F2FC42C2F2000212686323D362D6
:101FD00043F2AC62C2F2000200231370013113E03D
:101FE0000138307003F0D8F943F2AE60C2F200005D
:101FF0000521017003E00021017003F0CDF943F2E7
:10200000AC60C2F200000121017003B0BDE8F08FA6
:1020100010B543F2E454C2F2000443F2B061C2F2DC
:1020200000012046FFF7A9F9002808BF10BD21785C
:102030006278E07843F2EA23C2F2000319705A7022
:1020400043F2EF22C2F200021070433915293AD848
:10205000DFE801F00B113917391D393939342339CB
:102060003939393929393939392F43F64871C2F2AA
:102070000001487227E043F64871C2F2000108707F
:1020800021E043F64871C2F2000188701BE043F67C
:102090004871C2F20001087315E043F64871C2F2BC
:1020A000000148600FE043F64871C2F20001487039
:1020B00009E043F64871C2F20001C87043F6487166
:1020C000C2F20001087243F2B060C2F2000043F2B3
:1020D000E451C2F20001BDE81040FFF75CB9000016
:1020E00010B5446A204600F09DFB0120207110BD10
:1020F00010B5446A204600F065FB0120207110BD38
:1021000010B5446A206940F004002061204600F0C8
:102110008DFB0120207110BD10B5446A206940F08C
:1021200004002061204600F051FB0120207110BD09
:10213000406A00F079BB0000406A00F045BB000037
:1021400043F29430C2F2000000F0FEBC43F21C40A7
:10215000C2F2000000F0F8BC43F2D830C2F2000036
:1021600000F0F2BC10B5D0E90FCE012404FA0EF451
:10217000CCF804400468636040681028084608BF33
:102180001046A06008BF0A46E26010BD704700001C
:1021900070470000B0B543F28C54C2F2000443F221
:1021A000E821C2F200012046012202F0FBFA0028D9
:1021B00008BFB0BD43F2E825C2F2000594F83D0027
:1021C00020462946012202F0EDFA0228F6D1B0BDE0
:1021D00010B581B00022009290F82420012A01D18C
:1021E000022158E0012280F824204A68062A05D8F6
:1021F000036803F1340E6FF0040C0AE003680C2A44
:1022000087BF03F12C0E6FF0400C03F1300E6FF01E
:10221000220C02EB82026244DEF800C00B6893409D
:102220001F2404FA02F22CEA02021A43CEF800201C
:1022300002680B68092B1ED9D2F80CC003EB4304CB
:102240001E3C896801FA04FE0721A1402CEA010125
:1022500041EA0E01D16023F00101102917D142F2A9
:102260000041C4F201018A4218D0816A41F0200184
:10227000816201210CE003EB4303072404FA03FC11
:10228000146924EA0C0489689940214311610021F2
:10229000002280F82420C8B201B010BD916811F46A
:1022A000000FF4D1916841F400019160102BEED140
:1022B00040F2D001C2F2000109684DF68362C4F217
:1022C0001B32A1FB0212910C01EB8101490000912C
:1022D00000990029DBD000BF00990139009100214D
:1022E000009A002AF8D1D3E72DE9F04F8FB040F6DD
:1022F0000000C4F201004FF4807100F0F7FE43F2D9
:102300005030C2F2000000F02DFA0EA80DA90CAA60
:10231000FFF754FD43F2AC60C2F2000000780028E1
:102320006AD043F2D450C2F200000068FFF7D1F93E
:1023300046F26664C4F20A044FF066322346FFF7A1
:10234000BDF80025C3F6307500222B46FFF7B6F81E
:10235000CDE90A1043F2D850C2F200000068FFF73E
:10236000B8F94FF066322346FFF7A8F800222B4653
:10237000FFF7A4F8834609910E9F3846FFF7CAF984
:10238000064688460C9C2046FFF7C4F981468A46DB
:102390000D9D2846FFF7BEF902460B468DE8400723
:1023A0000B9804900A98CDE9050B0998079040F224
:1023B0006426C2F2000619A1304603F09BFE0020FD
:1023C00000213246102302F0A3FF40F2D400C2F2F3
:1023D0000000037838462946224603F08FF843F67A
:1023E0004870C2F200004068022802D103F0F4F8FD
:1023F00002E0204602F0EAFFFFF7CCFE43F2503045
:10240000C2F2000040F29821C2F200014FF4806253
:1024100000F00CF90FB0BDE8F08F00BF5670703DB2
:10242000252E3466562C663D252E3166485A2C647E
:102430003A252E3166255B252E34662C252E3466F2
:102440005D00000070470000704700002DE9F0417A
:102450000446002804BF0120BDE8F081A04658F8DA
:10246000280F30B9002084F82400E062204600F0F4
:102470008BF82046FFF7EEFBA26AA16A002808BF8E
:1024800012F0100006D041F010010120C8F8001031
:10249000BDE8F08141F2021021EA000040F00200A4
:1024A000A06294E80700531EB3FA83F35D09B2F506
:1024B000807F134618BF2B0280F0804585F49E353F
:1024C000E66986F440272F4308BF4FF4002646EA0A
:1024D0000107217B47EA410C277D012F13D141B130
:1024E000A16A41F02001A162E16A41F00101E162CB
:1024F00009E0A1694EF20007CFF6FF7707EB413103
:10250000194341F40063416821F469411943416072
:1025100081684FF2FD73CFF6E173194041EA0C0177
:102520008160B2F5807F01D0012A06D121690022A5
:10253000CFF6F07202EB015200E00022C16A21F4F2
:1025400070011143C162806840F6FE61CFF61F71D1
:102550000840604509D10020E062A16A012262F3CF
:102560000101C8F80010BDE8F081A06A20F0120057
:1025700040F01000A06254F82C0F40F0010101203F
:102580002160BDE8F081000070B586B004460026E9
:10259000CDE90466CDE9026640F60000C4F2010010
:1025A00000F5E05122688A4201D006B070BD41F2C8
:1025B0001801C4F202010A6842F400720A600A6853
:1025C00002F400720192019A0A6842F004020A6061
:1025D000096801F00401019101990321039101218E
:1025E000029102A900F086FC43F29435C2F2000584
:1025F0000820C4F2020080214FF400724FF40063FF
:102600004FF0200CC5E90006C5E9026105F1100094
:1026100080E80C10EE61284600F0D6FB002818BFB9
:10262000FFF7B6FD25626C6206B070BDF0B581B0F3
:1026300015460E460446006842F60007C4F201073C
:10264000B84205D042F20041C4F2010188420AD1E9
:1026500042F20440C4F20100006810F4702F1EBF63
:10266000012001B0F0BD94F82400012802BF02202F
:1026700001B0F0BD012084F824002046FFF74EFB96
:1026800020B1002184F8241001B0F0BD2168A06AB7
:1026900040F60172904340F48070A06242F2044020
:1026A000C4F2010000F57F72914208D0A06A20F4C4
:1026B0008010A062486810F4806F19D013E002689F
:1026C00012F4702FF2D0A26A42F48012A262B942D0
:1026D00005D042F20042C4F20102914208D10068E2
:1026E00010F4806F04D0A06A012262F30D30A06262
:1026F000A26A002012F4805F4FF000021CBFE26A61
:1027000022F0060284F82400E262206A41F61552A3
:10271000C0F6000241F6A943C0F6000341F6FD47AA
:10272000C0F60007C0E90A3207636FF002020A60D0
:102730008A6842F480728A604C3132462B4600F03F
:102740008DFB20688268816802F46022B2F5602FF8
:102750000CBF41F4A00141F480118160002001B060
:10276000F0BD000010B5044690F82400012804BF15
:10277000022010BD012084F824002046FFF76AFAE9
:10278000D8B92068816821F480718160206A90F84E
:102790002110022907D100F027F9A16A28B141F0E0
:1027A0004001A16209E0002007E041F2011021EAA6
:1027B000000040F00100A0620020002184F82410F5
:1027C00010BD000070470000704700007047000017
:1027D00090F805C00223BCF1010F20D080B5037131
:1027E00002F0100E40F6FE7303FA0EFC03681A683E
:1027F00022EA0C0CD1E90021114301FA0EF141EA61
:102800000C011960C02101FA0EF11A6822EA0101D7
:1028100019600023437101210171BDE88040D8B2E5
:1028200070470000704700007047000070470000CC
:1028300010B50446002804BF012010BD207920B93E
:1028400000206071204600F007F80220207100206F
:1028500020610121217110BDF0B585B0044600262C
:10286000CDE90366CDE90166016847F20040C4F294
:102870000000814201D005B0F0BD41F21801C4F260
:1028800002014A6842F000524A604A6802F000526F
:102890000092009A0A6842F004020A60096801F096
:1028A000040100910099032102911027019700F57E
:1028B000144001A900F01EFB43F2D835C2F2000516
:1028C00040F23040C4F2020080214FF480724FF495
:1028D00080634FF0200C4FF4405EC5E90007C5E966
:1028E000026105F1100080E80C50284600F06CFAF7
:1028F000002818BFFFF74CFCA5606C6205B0F0BD66
:102900002DE9F0418846044641790220012908BF9B
:10291000BDE8F0810699207101206071B8F1000FC7
:102920001ED0E06842F23916C0F6000642F2F10508
:10293000C0F6000542F21917C0F6000700F1280C96
:102940008CE8E00025682F6847F080572F60082941
:1029500027D0042927D000290CBF1435002523E0F7
:10296000A06842F2311CC0F6000C42F2E105C0F64C
:10297000000542F2011EC0F6000E00F1280686E8AE
:10298000205025682E6846F480562E6008290ED007
:1029900004290FD000290CBF05F1080C4FF0000CE2
:1029A0000AE01C3500E0183511462A4606E005F11C
:1029B000100C01E005F10C0C1146624600F04EFAD5
:1029C0000021617118B104F11001042206E008F041
:1029D0001000012101FA00F2216800200B681A435F
:1029E0000A60BDE8F081000090F82110022912D1A0
:1029F00001680A6822F00E020A600A6822F00102E9
:102A00000A60D0E90F12012303FA02F24A6080F84B
:102A10002130002102E0042181630121002280F89D
:102A2000202008467047000090F82110022927D185
:102A300001680A6822F00E020A600A6822F00102A8
:102A40000A6002680421C4F2020101F17C039A4287
:102A50001AD940F20843C4F202039A4247D040F226
:102A60001C43C4F202039A4245D040F23043C4F200
:102A700002039A4243D14FF48073C1F8003456E008
:102A800004218163012070474323C4F202039A4268
:102A90000EDD6B23C4F202039A421BDC4423C4F212
:102AA00002039A4239D05823C4F202039A4231E019
:102AB0000823C4F202039A4232D01C23C4F2020358
:102AC0009A4232D03023C4F202039A4222D14FF408
:102AD00080722BE06C23C4F202039A4222D080233E
:102AE000C4F202039A4215D14FF080721EE0012316
:102AF000C1F800341BE01023C1F8003417E001F5E1
:102B0000886C4FF48033624508BF4FF48053C1F89E
:102B100000340CE04FF4803208E04FF4805205E0BE
:102B2000012203E04FF4801200E010220A604FF40B
:102B300080710184416B002904BF0020704780B57B
:102B40008847002080BD000010B5D0E90FCEDCF82A
:102B5000002001680B6813F0040F1EBF042404FA60
:102B60000EF414EA020433D19C075BD5022404FA64
:102B70000EF4144056D00A6812F0200F06D10A68ED
:102B800022F00A020A60012180F821100268042163
:102B9000C4F2020101F17C039A4260D940F2084379
:102BA000C4F202039A4200F0C18040F21C43C4F216
:102BB00002039A4200F0BE8040F23043C4F20203A6
:102BC0009A4240F0BB804FF40073C1F80034EAE051
:102BD0000A6812F0200F02BF0A6822F004020A609D
:102BE00002680421C4F2020101F17C039A424BD92C
:102BF00040F20843C4F202039A4200F0AA8040F275
:102C00001C43C4F202039A4200F0A78040F2304312
:102C1000C4F202039A4240F0A4804FF48063C1F8EA
:102C20000034CBE01B0740F1CE80082303FA0EF3FB
:102C30001A4008BF10BD0A6822F00E020A60012186
:102C400001FA0EF2CCF8042081634FF48071018404
:102C5000016B002900F0B780BDE81040084743230E
:102C6000C4F202039A4223DD6B23C4F202039A42A8
:102C700042DC4423C4F202039A4200F083805823CA
:102C8000C4F202039A4277E04323C4F202039A4259
:102C900020DD6B23C4F202039A423ADC4423C4F2DF
:102CA00002039A4271D05823C4F202039A4266E0AA
:102CB0000823C4F202039A426AD01C23C4F202031E
:102CC0009A4267D03023C4F202039A4254D14FF49F
:102CD000007267E00823C4F202039A425CD01C230E
:102CE000C4F202039A4259D03023C4F202039A423A
:102CF00045D14FF4806260E06C23C4F202039A4233
:102D00004ED08023C4F202039A4235D14FF00072B4
:102D100048E06C23C4F202039A424CD08023C4F2F0
:102D200002039A422BD14FF0806246E00223C1F8A1
:102D3000003438E02023C1F8003434E001F5886421
:102D40004FF40033A24208BF4FF40053C1F80034DF
:102D500029E00423C1F8003430E04023C1F80034F6
:102D60002CE001F588644FF48023A24208BF4FF4A1
:102D70008043C1F8003421E04FF4003212E04FF4F8
:102D800080221AE04FF400520CE04FF4804214E02D
:102D9000022207E0202205E004220EE040220CE09F
:102DA0004FF400120A60002180F82010816A51B1AE
:102DB000BDE8104008474FF480020A60C16A11B1B3
:102DC000BDE81040084710BD002843D010B50022D0
:102DD000C4F2020202F58163016802F58062994241
:102DE0003CBF0022C4F202024FF6F833CBF6FD736B
:102DF00038BF03F5806301EB030C4CF6CD43CCF6F2
:102E0000CC43ACFB033C4FF6FC73C3F6FF7303EA01
:102E10009C03C0E90F230A6843F6F07322EA030C0F
:102E2000D0E90132D0E903E443EA0C031A4342EA51
:102E30000E02224343691A4383691A43C3691A4342
:102E40000A60002181634FF480720284BDE8104063
:102E500008467047012108467047000010B5044637
:102E600090F82000012820D0012084F8200094F858
:102E70002100012816D10020A063022084F821003F
:102E8000D4F800C0DCF8000020F00100CCF800000D
:102E90002046FFF767F92068E26A016842B141F015
:102EA0000E010BE0002084F820000220C0B210BD0B
:102EB00021F004010160016841F00A01016001682C
:102EC00041F0010101600020C0B210BDB0B5044660
:102ED00000F01AF9054640F28C20C2F2000000789A
:102EE000611C18BF044400BF00F00EF9401BA04253
:102EF000FAD3B0BD2DE9F04F83B00F68002F00F07A
:102F0000F18041F60042C4F201020623904208BF5C
:102F100005230193A0F18042A2F584324FEAB22248
:102F20000092002240F2004EC4F2010E4FF0010C5C
:102F30000F264FF0000B4FF0000A00BF0CFA0BF900
:102F400017EA090800F0C5804F684FF6FF74C1F218
:102F50001004A74210DC122F50D8DFE807F0330A24
:102F600041454F4F4F4F4F4F4F4F4F4F4F4F4F4890
:102F70004C00D1F80CA041E04FF6FF73C1F22103E1
:102F80009F420FDC0023C1F211039F421AD000239D
:102F9000C1F212039F4215D00023C1F221039F42C8
:102FA00010D02BE00023C1F222039F420AD000235D
:102FB000C1F231039F4205D00023C1F232039F4288
:102FC0001CD100BF8D6845B1012D14BFC0F814900D
:102FD000C0F810904FF0080A10E04FF0040A0DE01E
:102FE000CD6805F1080A09E04FF0000A06E0CD6857
:102FF00005F1040A02E0CD6805F10C0AB8F5807FFE
:10300000154628BF203D06FA05F7044628BF0434BC
:103010000F232668BE430AFA05F535432560CC79AF
:10302000E40601D40F2654E041F21804C4F202046D
:103030002546246844F001042C602C6804F0010447
:10304000029402F00C0403FA04F52BF00306764414
:10305000029F4FF60843CFF6FF739946F75827EAC9
:103060000505009B052B019F38BF1F4607FA04F496
:103070002C4346F809404F6817F4803FDEF80040C3
:103080000CBF24EA080544EA08050F26CEF80050D4
:10309000BC03DEF8044054BF24EA080544EA0805EE
:1030A000CEF80450FC02DEF8084054BF24EA0805BC
:1030B00044EA0805CEF80850BC0240F20C44C4F2C1
:1030C00001042546246854BF24EA080444EA08049D
:1030D0002C600BF1010B0F6837FA0BF402F10402BC
:1030E0007FF42CAF03B0BDE8F08F0000C26802EAA5
:1030F0000103914341EA034101617047002A08BF7F
:10310000090401617047000043F65870C2F20000E4
:1031100000687047B0B50446A0B394F83D0028B9E4
:10312000002084F83C00204600F06EF9242084F84A
:103130003D002068016821F001010160016841F44F
:1031400000410160016821F40041016000F056FB7C
:1031500048F28041C0F21E01002388424FF0000176
:1031600038BF012140F60012C0F23D02904238BF44
:103170000123656848F2A162C0F20102954238BF9E
:103180000B460BB10120B0BD4DF68361C4F21B317B
:10319000A0FB011221684B6823F03F0343EA9243EE
:1031A0004B60930C0A6A22F03F0C48F2A062C0F216
:1031B0000102954213D85A1C42EA0C020A626A00C4
:1031C0000138B0FBF2F001306FF31F30042898BFD4
:1031D0000420CA694CF6FF7322EA030C3FE04FF467
:1031E00096725A4344F6D353C1F26203A2FB0323FF
:1031F000012202EB931242EA0C020A62CA694CF6FF
:10320000FF7322EA030CA0F1010EA3689BB1192001
:103210006843BEFBF0F00130042262F31F3000056A
:1032200012D09BB119206843BEFBF0F0013004229C
:1032300062F31F3011E005EB4500BEFBF0F00130FA
:103240006FF31F300005ECD1012008E005EB4500CD
:10325000BEFBF0F001306FF31F3040F4004040EA55
:103260000C00C8610868D4E9072320F0C0001043AF
:1032700018430860886848F2FF329043D4E903237A
:10328000184310438860C868D4E9052320F0FF0084
:1032900010431843C860086840F00100086000202F
:1032A0002064202184F83D10206384F83E00B0BDE6
:1032B0002DE9F04383B0994616460F460446FFF7C2
:1032C00023FF054694F83D0020280BD100950221EC
:1032D000C0F2100120460122192301F01FFC30B179
:1032E000022000E00220C0B203B0BDE8F08394F8F1
:1032F0003C00012801D10220F5E70DF1280898E8EB
:103300000301012284F83C202268136813F0010FA6
:1033100002BF136843F001031360136823F40063D2
:103320001360212284F83D20402284F83E200022B0
:10333000226461856062608D0021CFF6FF71E162D9
:103340002085CDE900852046394632464B4601F0BE
:1033500043FB08B10120C6E7208D48B34FF6FF7646
:10336000204641462A4601F069FC88BB2168606A14
:10337000024612F8013B0B616262228D571E2785BF
:10338000638D013B63854B69374218BF13F004031B
:1033900003D1218D0804E3D10AE043780B61911E2B
:1033A000218502306062608D013860850804D7D1C4
:1033B000204641462A4601F081FB98B1206C042842
:1033C0001ED12068016841F40071016001208AE784
:1033D000206C042816D12068016841F40071016056
:1033E000012080E72068016841F40071016020201D
:1033F00084F83D00002084F83C0084F83E0072E729
:10340000012070E701206EE710B586B00021CDE9FC
:103410000411CDE90211016845F60000C4F2000074
:10342000814201D006B010BD41F21804C4F202047A
:10343000216841F008012160216801F00801019133
:103440000199122103914FF44061029103210591EA
:1034500000F5344002A9FFF74DFD606840F480009C
:103460006060606800F480000190019806B010BDB3
:1034700040F28C20C2F20000007843F65871C2F28C
:1034800000010A68104408607047000080B542F2ED
:103490000000C4F20200016841F010010160032045
:1034A00000F062F8002000F005F800F029F8002094
:1034B00080BD0000B0B5044640F28C20C2F200008E
:1034C00000784FF47A71B1FBF0F040F2D001C2F213
:1034D00000010968B1FBF0F000F0DAFB01250F2CC8
:1034E0000CD858B900254FF0FF302146002200F0DB
:1034F0002BF840F29020C2F2000004602846B0BDD4
:1035000082B041F21800C4F20200016841F00101EA
:103510000160016801F0010101910199416841F0E8
:1035200080514160406800F0805000900098042075
:10353000C4F201000168022262F31A61016002B064
:103540007047000002F0FEBB70B514460D460646FB
:1035500002F008FC2946224601F0D0FD0146304623
:10356000BDE8704002F006BC02F016BC2DE9F04147
:1035700082B004460078C00741F22006C4F2020679
:1035800068D056F8040C10F0805F0ED156F8040C89
:1035900040F0805046F8040C56F8040C00F08050BF
:1035A000019001984FF0010801E04FF0000847F248
:1035B0000007C4F20007386810F4807F11D1386822
:1035C00040F480703860FFF79FFD0546386810F4BE
:1035D000807F06D1FFF798FD401B6428F6D90320B1
:1035E00051E0306810F4407025D0616801F44071FA
:1035F000884220D0306840F24041C4F2422101228A
:103600000A6000220A6020F44071316010F0010F5E
:1036100011D0FFF779FD0546306810F0020F0AD18E
:1036200041F28837FFF770FD401BB8422FD8306851
:1036300010F0020FF6D03068616820F44070084343
:103640003060B8F1000F1EBF56F8040C20F0805017
:1036500046F8040C206810F0020F07D056F81C1C26
:10366000A26821F44041114346F81C1CC00601D455
:10367000002008E056F81C0C616920F48000084323
:1036800046F81C0C0020C0B202B0BDE8F081032057
:10369000F9E700002DE9F0410D460446002877D0F7
:1036A00041F20407C4F20207D7F8FC0F00F007004C
:1036B000A8420CD2D7F8FC0F20F007002843C7F827
:1036C000FC0FD7F8FC0F00F00700A84260D120687B
:1036D00010F0020F11D0410742BF396841F4E06198
:1036E0003960010742BF396841F460513960396877
:1036F000A26821F0F00111433960C00740D1D7F82A
:10370000FC0F00F00700A8420CD9D7F8FC0F20F0FE
:1037100007002843C7F8FC0FD7F8FC0F00F007009C
:10372000A84235D1206810F0040F05D03968E2684E
:1037300021F4E06111433960000706D5386821693A
:1037400020F4605040EAC100386000F07BF839682E
:10375000C1F3031146F65022C0F60002515CC84086
:1037600040F2D001C2F20001086040F29020C2F2A3
:1037700000000068FFF79EFE0020C0B2BDE8F081A7
:103780006068012808D157F8041C11F4003F0CD1DF
:103790000120C0B2BDE8F08157F8041C022802D114
:1037A0008901F5D501E08907F2D5396821F00301D7
:1037B00008433860FFF7A8FC06463868616800F0E7
:1037C0000C00B0EB810F9AD041F28838FFF79CFCD7
:1037D000801B404507D83868616800F00C00B0EBEA
:1037E000810FF3D18BE70320C0B2BDE8F081000068
:1037F00040F2D000C2F200000068704780B5FFF7C9
:10380000F7FF41F20401C4F202010968C1F3022189
:1038100046F66022C0F60002515CC84080BD000040
:1038200080B5FFF7E5FF41F20401C4F20201096827
:10383000C1F3C22146F66022C0F60002515CC840C6
:1038400080BD000041F2040CC4F2020CDCF8002040
:1038500002F00C0341F20020C0F27A00082B18BFDE
:103860007047C2F383430AA1CB5C12F4803F05D1B9
:1038700040F60010C0F23D00584370475843DCF852
:103880000010C1F3404106A2515CB0FBF1F070475B
:1038900002030405060708090A0B0C0D0E0F101091
:1038A000010200002DE9F04381B00446D0B1207838
:1038B000C00741F20009C4F2020941F22007C4F234
:1038C000020765D057F81C0C00F00C0004280BD13F
:1038D000D9F8000010F4003F5AD06068002857D192
:1038E0000120C6E10120C4E157F81C0C00F00C00D7
:1038F000082804D157F81C0C10F4803FE8D1606808
:1039000080B1B0F5803F08D0D9F80010B0F5A02FF5
:1039100024D141F48020C9F80000D9F8000040F417
:10392000803023E0D9F8000020F48030C9F800008E
:10393000D9F8000020F48020C9F80000FFF7E4FB6C
:10394000054600BFD9F8000010F4003F20D0FFF773
:10395000DBFB401B6428F5D903208AE121F4803089
:10396000C9F80000D9F8000020F48020C9F8000050
:10397000FFF7CAFB054600BFD9F8000010F4003F6E
:1039800006D1FFF7C1FB401B6428F5D9032070E185
:10399000207880073BD557F81C0C10F00C0F0AD08C
:1039A00057F81C0C00F00C0008280ED157F81C0C1E
:1039B00010F4803F09D1D9F8000010F0020F1DD09B
:1039C000206901281AD0012053E121690020C4F2A6
:1039D0004220002900F0AD8001210160FFF794FB37
:1039E000054600BFD9F8000010F0020F06D1FFF71E
:1039F0008BFB401B0228F5D903203AE1D9F80000DF
:103A0000616920F0F80040EAC100C9F800002078A0
:103A100000072AD5A1690020C4F24220A1B10121EA
:103A2000C0F88014FFF770FB054600BF786810F0FF
:103A3000020F06D1FFF768FB401B0228F6D90320CE
:103A400017E101F091FC10E00021C0F88014FFF7AD
:103A50005BFB0546786810F0020F06D0FFF754FBB9
:103A6000401B0228F6D9032003E12078400740F1EB
:103A7000958057F8040C10F0805F0ED157F8040CB5
:103A800040F0805047F8040C57F8040C00F08050C8
:103A9000009000984FF0010801E04FF0000846F256
:103AA0000006CFF6FE7659F8060010F4807F15D197
:103AB00059F8060040F4807049F80600FFF724FB2F
:103AC000054600BF59F8060010F4807F06D1FFF7C5
:103AD0001BFB401B6428F5D90320CAE0E06858B1FD
:103AE000012805D03968052835D141F00400386037
:103AF000386840F0010034E0386820F00100386098
:103B0000386820F004003860FFF7FEFA0546386890
:103B100010F0020F39D041F2883600BFFFF7F4FAF7
:103B2000401BB04200F2AD80386810F0020FF5D1B2
:103B30002BE000210160FFF7E7FA0546D9F8000005
:103B400010F0020F3FF463AFFFF7DEFA401B0228CC
:103B5000F4D903208DE021F001003860386820F0AE
:103B600004003860FFF7D0FA0546386810F0020FFD
:103B70000BD141F2883600BFFFF7C6FA401BB042B6
:103B80007BD8386810F0020FF6D0B8F1000F1EBFD6
:103B900057F8040C20F0805047F8040CE669002E1A
:103BA00066D057F81C0C00F00C00082803D1012E39
:103BB00044D101205DE040F20008C4F24228002018
:103BC000C8F86000FFF7A0FA0546D9F8000000F039
:103BD0000070022E40D148B1FFF796FA401B022830
:103BE00051D8D9F8000010F0007FF5D1206AB0F567
:103BF000803F07D157F81C1CA26821F40031114303
:103C000047F81C1C57F81C1C626A104321F47411FD
:103C1000084347F81C0C0120C8F86000FFF774FA4D
:103C2000044600BFD9F8000010F0007F20D1FFF754
:103C30006BFA001B0228F5D903201AE057F81C0C78
:103C4000216A00F480328A4219D1616A00F470104E
:103C500088420DD001200CE050B100BFFFF754FAAC
:103C6000401B022811D8D9F8000010F0007FF5D1D0
:103C70000020C0B201B0BDE8F0830320F9E70120C5
:103C8000F7E70320F5E70320F3E70320F1E700005F
:103C900001F030BD704700007047000090F83C30E4
:103CA0000222012B44D080B580F83D20012280F80B
:103CB0003C2002685368D2F808C023F0700E0B68ED
:103CC00043EA0E03536040F6FF33C4F200039A4206
:103CD000BDE880400FDCB2F1804F1ED040F20043BF
:103CE000C4F200039A4218D040F60003C4F2000365
:103CF0009A4212D016E040F60043C4F200039A4202
:103D00000BD043F20043C4F201039A4205D042F6BD
:103D10000043C4F201039A4204D12CF080034968A5
:103D200019439160002280F83C20012180F83D1069
:103D3000D0B2704710B50446002804BF012010BD62
:103D400094F83D0028B9002084F83C00204600F09B
:103D50001FF8022084F83D002068211D01F01EFD9F
:103D6000012084F8460084F83E0084F83F0084F87F
:103D7000400084F8410084F8420084F8430084F84D
:103D8000440084F8450084F83D00002010BD000088
:103D900080B584B0006840F60001C4F2000188429A
:103DA00017D040F20041C4F20001884229D0B0F19E
:103DB000804F33D141F21C00C4F20200016841F08F
:103DC00001010160006800F001000390039804B055
:103DD00080BD41F21C00C4F20200016841F0040100
:103DE0000160006800F00400019001981E2000218D
:103DF0000022FFF7A9FB1E2004B0BDE88040FFF7BA
:103E0000A1BB41F21C00C4F20200016841F00201B2
:103E10000160006800F002000290029804B080BDCA
:103E200090F83D1001291CBF01207047022180F845
:103E30003D10006840F6FF31C4F2000188420FDCFB
:103E4000B0F1804F1ED040F20041C4F20001884220
:103E500018D040F60001C4F20001884212D018E0E8
:103E600040F60041C4F2000188420BD043F2004109
:103E7000C4F20101884205D042F60041C4F20101BA
:103E8000884206D1816801F00701062904BF00209D
:103E90007047016841F00101016000207047000097
:103EA00090F83D1001291CBF01207047022180F8C5
:103EB0003D100068C16841F00101C16040F6FF316A
:103EC000C4F2000188420FDCB0F1804F1ED040F2F6
:103ED0000041C4F20001884218D040F60001C4F24B
:103EE0000001884212D018E040F60041C4F20001FF
:103EF00088420BD043F20041C4F20101884205D050
:103F000042F60041C4F20101884206D1816801F005
:103F10000701062904BF00207047016841F0010134
:103F2000016000207047000010B5044690F83C2066
:103F30000220012A5DD084F83D00012084F83C0075
:103F4000206882684FF677739A4382600A683F2A36
:103F500014DD5F2A18DD602A28D0B2F5005F2DD06D
:103F6000702A40D1D1E9012CCB68614601F072FC86
:103F70002068816841F07701816034E01F2A0FDCFE
:103F800092B1102A10D02EE0402A23D0502A2AD1F4
:103F90004B68CA68194601F03FFD2068502120E0B7
:103FA000202A01D0302A1ED111461AE04B68CA6877
:103FB000194601F043FD2068602112E0D1E9012C8F
:103FC000CB68614601F046FC2068816841F480417D
:103FD000816008E04B68CA68194601F01DFD206841
:103FE000402101F041FC002084F83C00012184F8CC
:103FF0003D10C0B210BD00007047000010B504466F
:104000000068016911F0020F18D0C16811F0020FA9
:1040100014D06FF00201016101212177806910F055
:10402000030F03D02046FFF7E7FF05E0204600F02E
:10403000C9F8204600F046F9002020772068016981
:1040400011F0040F18D0C16811F0040F14D06FF0F4
:104050000401016102212177806910F4407F03D0BF
:104060002046FFF7C9FF05E0204600F0ABF82046E8
:1040700000F028F9002020772068016911F0080F6E
:1040800018D0C16811F0080F14D06FF00801016159
:1040900004212177C06910F0030F03D02046FFF7F9
:1040A000ABFF05E0204600F08DF8204600F00AF94D
:1040B000002020772068016911F0100F18D0C16826
:1040C00011F0100F14D06FF0100101610821217759
:1040D000C06910F4407F03D02046FFF78DFF05E054
:1040E000204600F06FF8204600F0ECF80020207722
:1040F0002068016911F0010F09D0C16811F0010FAA
:1041000005D06FF001010161204600F08FF92068B1
:10411000016911F0800F09D0C16811F0800F05D03E
:104120006FF0800101612046FFF7B4FD206801694E
:1041300011F0400F09D0C16811F0400F05D06FF0A9
:1041400040010161204600F0ADF92068016911F0DD
:10415000200F08BF10BDC16811F0200F00D110BDA5
:104160006FF0200101612046BDE81040FFF794BDCB
:1041700080B586B00021CDE90411CDE902110168B6
:1041800040F60000C4F20000814201D006B080BDBC
:1041900041F21801C4F202010A6842F008020A6002
:1041A000096801F00801019101990221039140225F
:1041B0000292059100F5823002A9FEF79BFE06B03F
:1041C00080BD000070470000B0B50D46044690F871
:1041D0003C00012802BF0220C0B2B0BD012084F81B
:1041E0003C004FEAB200032836D8DFE800F0020AAC
:1041F00012222068294601F03FFB206850F8181F62
:104200000EE02068294601F06BFB206850F8181F6B
:1042100016E02068294601F09BFB206850F81C1F1F
:1042200041F008010160016821F004010160296981
:104230000FE02068294601F0C3FB206850F81C1FDE
:1042400041F400610160016821F480610160296925
:104250000902026811430160002084F83C00C0B2EA
:10426000B0BD000010B50446002804BF012010BDF9
:1042700094F83D0028B9002084F83C00204600F066
:104280001FF8022084F83D002068211D01F086FA05
:10429000012084F8460084F83E0084F83F0084F84A
:1042A000400084F8410084F8420084F8430084F818
:1042B000440084F8450084F83D00002010BD000053
:1042C000704700007047000010B5044641B108294E
:1042D00009D0042914BF04F1410004F13F0004E0B7
:1042E00004F13E0001E004F14000007801281CBF09
:1042F000012010BD022041B1082909D0042914BFB2
:1043000084F8410084F83F0004E084F83E0001E0B6
:1043100084F840002068012201F08CFA206843F202
:104320000041C4F20101884205D042F60042C4F2C5
:104330000102904203D1426C42F40042426440F6D2
:10434000FF32C4F2000290420FDCB0F1804F1AD06D
:1043500040F20041C4F20001884214D040F600014E
:10436000C4F2000188420ED014E040F60042C4F2CC
:104370000002904207D0884205D042F60041C4F2C4
:104380000101884206D1816801F00701062904BFB6
:10439000002010BD016841F001010160002010BD46
:1043A000B0B50D4604460068002201F043FA2068CB
:1043B00043F20041C4F20101884205D042F60041B7
:1043C000C4F2010188420DD1016A41F21112114279
:1043D00008D1016A40F24442114203D1416C21F4F8
:1043E00000414164016A41F21112114208D1016A8F
:1043F00040F24442114203D1016821F00101016001
:104400000120082D09D0042D0BD0002D14BF84F8F5
:10441000410084F83E000020B0BD84F84000002038
:10442000B0BD84F83F000020B0BD000043F2DC5076
:10443000C2F2000001880A097C2A06D843F2F02261
:10444000C2F200021278012A02D14FF6FF7200E098
:1044500001221144018088B243F24451C2F20001AA
:1044600009684863B0F5FA6F02D038B9002000E05F
:10447000012043F2F021C2F20001087010B5FDF7EF
:1044800089FE43F24454C2F200042046FFF708FDBF
:1044900020460021FFF784FF20460021BDE81040A0
:1044A000FFF712BF70470000704700007047000020
:1044B000B0B582B0054601680868CA684B6910F05B
:1044C0000F0F5CD002F4907403F001031C435AD028
:1044D000C1071FBF12F48071296C41F001012964EA
:1044E000410705D5002B1EBF296C41F0020129644C
:1044F000810705D5002B1EBF296C41F004012964FA
:10450000010707D502F0200119431EBF296C41F0B5
:1045100008012964296C002900F0AF801040800652
:1045200002D5284601F0C2FA2868406900F0400030
:10453000296C01F00801084300F09A80284601F038
:1045400095FA2868416911F0400F00F08B804169AD
:1045500021F040014161A86B002800F0838045F6FE
:104560006121C0F600014163FEF75EFA002800F009
:104570008480A86B416B02B0BDE8B040084702EAF6
:1045800000039B0635D41040C2062A6B27D5012AAA
:1045900025D1002001900868019048680190019899
:1045A000486910F0400F2AD1E88DAA8DEB8D002BC1
:1045B0001CBF101A5FEA00425FD0CA6822F49072F2
:1045C000CA604A6922F001024A61202285F83E2031
:1045D00000222A63CA6822F01002CA6035E0010690
:1045E0003AD4400649D5284602B0BDE8B04001F0B3
:1045F00053BA284602B0BDE8B04001F057BAA86BE4
:104600000268526893B2C3B3AC8DA34235D2EA8537
:104610008269202A16D0CA6822F48072CA604A6968
:1046200022F001024A614A6922F040024A612022D6
:1046300085F83E2000222A63CA6822F01002CA6070
:10464000FEF7D2F9E88DA98D081A81B2284602B08A
:10465000BDE8B040FFF728BF284602B0BDE8B04033
:1046600001F0DEBA284602B0BDE8B040FFF71EBF39
:104670002846FFF71BFF0020286402B0B0BD0000F1
:1046800010B50446002804BF012010BD94F83D0079
:1046900028B9002084F83C00204600F021F82420AE
:1046A00084F83D002068C16821F40051C1602046B3
:1046B00001F054FA2068016921F4904101614169D7
:1046C00021F02A014161C16841F40051C16000201C
:1046D0002064202184F83D1084F83E1010BD0000B5
:1046E000F0B585B004460027CDE90377CDE9017721
:1046F00040F60005C4F2010505F5405021688142ED
:1047000001D005B0F0BD41F21800C4F2020001680A
:1047100041F480410160016801F4804100910099F9
:10472000016841F004010160006800F0040000909D
:104730000098022002904FF4007001900320049032
:1047400001AE28463146FEF7D5FB02974FF4806054
:104750000190039728463146FEF7CCFB43F21C45F7
:10476000C2F2000510204421C4F202018022C5E9F2
:104770000010C5E90272C5E90477C5E90677284645
:10478000FEF722FB002818BFFDF702FD65636C628F
:10479000252001210022FEF7D7FE2520FEF7D2FEBC
:1047A00005B0F0BD10B590F83E30202B0AD10124A1
:1047B000002918BF002A01D1E0B210BD90F83C30AA
:1047C000012B02D10224E0B210BD002404630123B6
:1047D00080F83C3001F00AFAE0B210BDF0B581B0CB
:1047E00041F20044C4F201040125204604210122C3
:1047F000FEF784FC43F2AD66C2F20006307830B9B1
:1048000043F25030C2F20000FDF7ACFF357043F2C6
:10481000E820C2F20000007843F2DE51C2F200014B
:104820000A78CAB123281CD10020087043F2E0574F
:10483000C2F200073968087000F07CFCFDF7E8FB65
:1048400043F2E455C2F20005002006212A46102357
:1048500000F05EFD3D6012E0242804BF01200870D6
:104860000DE0A0F12301C9B2022908D343F2E051BF
:10487000C2F200010A68107008680130086043F253
:104880008C50C2F20000806A007890B90025204662
:1048900004210022FEF732FC357043F25030C2F2A0
:1048A000000040F29821C2F200014FF48062FDF74F
:1048B000BDFE01B0BDE8F040FDF76CBC2DE9F0474E
:1048C000994616460D46044690F83D0020280BD127
:1048D0000120002D18BF002E02D1C0B2BDE8F08724
:1048E00094F83C00012803D10220C0B2BDE8F08753
:1048F0004FF0000AC4F840A0012084F83C002120B9
:1049000084F83D00FEF700FC8046A684E684A0689B
:10491000B0F5805F07D12769002F4FF000060CBF6C
:104920002E462F4601E02F46002684F83CA002E0E8
:10493000E08C0138E084E08CA0B120468021424622
:104940004B4601F099F9A0B927B1206817F8011B6F
:104950004160EDE7206836F8021B6FF35F2141608C
:104960000027E5E72046402142464B4601F084F906
:1049700018B10320C0B2BDE8F087202084F83D00C4
:104980000020C0B2BDE8F0877047000010B541F2CA
:104990000044C4F2010400BFC820FEF797FA204685
:1049A0000421FEF7A3FBF7E702685369002113F423
:1049B000806F0FD06FF4806353610163202280F811
:1049C0003D2080F83E1080F83C10016C41F004015D
:1049D00001640121084670472DE9F04383B09946F0
:1049E00090460F4604460068016841F480710160FA
:1049F0000B9E00960A9D20464FF0011100222B4687
:104A000000F08CF848B12068006810F4807F1CBF6B
:104A10004FF40070206403200DE0206807F0FE01D1
:104A200001610221C0F2010120462A46334600F00E
:104A3000B5F820B10120C0B203B0BDE8F08300207A
:104A40000290206841690291806902900298204694
:104A50002946324600F0F2F848B1206C04280FD104
:104A60002068016841F4007101600120E3E7B9F1B9
:104A7000010F07D120685FFA88F101610020DAE7B1
:104A80000120D8E720684FEA182101612046294615
:104A9000324600F0D3F848B1206C04280CD12068CD
:104AA000016841F4007101600120C4E720685FFAE9
:104AB00088F101610020BEE70120BCE7F0B581B0BC
:104AC00015460E4604460068406910F0040F11D1E7
:104AD000771C00BF2046FFF767FFD8B92FB1FEF75C
:104AE00013FB56B1401BB04207D82068406910F054
:104AF000040FEFD0002001B0F0BD00202063202182
:104B000084F83D1084F83E0084F83C00206C40F0AE
:104B100020002064012001B0F0BD00002DE9F04725
:104B20009A46164680468FB201F47F04DDF8209045
:104B30005D1C00BFB4F5803F384608BF38464FF0D3
:104B4000180108BF1421D8F8002051580140081A54
:104B5000B0FA80F04009B0421CBF0020BDE8F087E9
:104B6000002DE7D0FEF7D0FABAF1000F03D0A0EB8A
:104B700009005045DED90020C8F83000202188F80F
:104B80003D1088F83E0088F83C00D8F8400040F01E
:104B90002000C8F840000120BDE8F0872DE9F0436F
:104BA00081B09846164681468FB201F47F05541CA9
:104BB000D9F80000B5F5803F14BF816941693940DB
:104BC000B9421BD0416911F4806F1BD1002CEFD08A
:104BD000FEF79AFA1EB1A0EB0800B042E8D9002017
:104BE000C9F83000202189F83D1089F83E0089F885
:104BF0003C00D9F8400040F0200018E0002001B04F
:104C0000BDE8F083016841F4007101606FF48061D8
:104C100041610020C9F83000202189F83D1089F851
:104C20003E0089F83C00D9F8400040F00400C9F883
:104C30004000012001B0BDE8F0830000F0B581B074
:104C400015460E4604460068406910F0800F11D1E9
:104C5000771C00BF2046FFF7A7FED8B92FB1FEF79B
:104C600053FA56B1401BB04207D82068406910F093
:104C7000800FEFD0002001B0F0BD00202063202184
:104C800084F83D1084F83E0084F83C00206C40F02D
:104C900020002064012001B0F0BD000043F6487000
:104CA000C2F200004B2101730221417240F2041252
:104CB000C0F20112C0E9002170470000B0B584B015
:104CC00043F25030C2F2000042F20041C4F201014E
:104CD0000024047304754FF40022C261C0E900147B
:104CE0008460012505610394CDE90144FDF7AEFB25
:104CF000002818BFFDF74CFACDE9014502200390CA
:104D000043F25030C2F2000001A9FDF761FA002819
:104D100018BFFDF73DFA04B0B0BD000010B582B079
:104D200043F28030C2F2000047F20041C4F20001B9
:104D300001600024CDE90044FDF77AFD002818BF8A
:104D4000FDF726FA2420CDE9000443F28030C2F2B8
:104D5000000069460022FDF73BFD002818BFFDF763
:104D600017FA02B010BD000080B582B041F2140005
:104D7000C4F20200016841F002010160016801F023
:104D8000020101910199016841F00101016000688F
:104D900000F00100009000980B2000210022FEF797
:104DA000D3FB0B20FEF7CEFB0E2000210022FEF7E6
:104DB000CBFB0E20FEF7C6FB3A2000210022FEF7B7
:104DC000C3FB3A2002B0BDE88040FEF7BBBB000049
:104DD0002DE9F04F85B04FF0000ACDF810A041F258
:104DE0001800C4F20200016841F01001016001687E
:104DF00001F0100100910099016841F0200101606B
:104E0000016801F0200100910099016841F004015E
:104E10000160016801F0040100910099016841F00E
:104E200008010160006800F008000090009840F65A
:104E30000005C4F201054FF4807928464FF48071D3
:104E40000022FEF75BF905F540644FF004082046A8
:104E500004210022FEF752F9CDF808A042F2020028
:104E60000190CDF80CA005F5006001AE3146FEF7CB
:104E700041F84FF0010BCDE9019BCDF80CA00227C2
:104E8000049728463146FEF735F8CDE9018BCDE988
:104E900003A720463146FEF72DF805B0BDE8F08F98
:104EA00080B543F26040C2F2000048F2A061C0F257
:104EB000010145F60002C4F2000200234FF4804CC9
:104EC0000362C0E90021C0E90233C0E904C3C0E9BC
:104ED0000633FEF71FF9002814BFBDE8804080BDEF
:104EE000FDF756B980B586B00021CDE90411CDE9B2
:104EF000021143F2B440C2F200004FF08042472357
:104F00004FF0130CC0E90023C0E9021C01618022AC
:104F10008261CDE90011FEF70DFF002818BFFDF7F3
:104F200037F94FF48050029043F2B440C2F20000CF
:104F300002A9FEF7F9FF002818BFFDF729F90020A4
:104F400001902020009043F2B440C2F20000694674
:104F5000FEF7A4FE002818BFFDF71AF906B080BDC1
:104F600080B586B00021CDE90411CDE9021143F2EC
:104F7000FC40C2F2000040F20042C4F200024723AB
:104F80004FF0630CC0E90023C0E9021C01618022DC
:104F90008261CDE90011FEF7CDFE002818BFFDF7B4
:104FA000F7F84FF48050029043F2FC40C2F2000048
:104FB00002A9FEF7B9FF002818BFFDF7E9F80020A5
:104FC00001902020009043F2FC40C2F200006946AC
:104FD000FEF764FE002818BFFDF7DAF806B080BDC2
:104FE00010B58EB00021CDE90C11CDE90A11CDE943
:104FF000081143F24450C2F2000040F60002C4F22D
:10500000000247234FF4FA64C0E90023C0E9021408
:105010000161802282610791CDE90511CDE903117B
:10502000CDE90111FEF786FE002818BFFDF7B0F8A4
:105030004FF480500A9043F24450C2F200000AA993
:10504000FEF772FF002818BFFDF7A2F843F24450A4
:10505000C2F20000FFF706F9002818BFFDF798F824
:105060000024CDE9084443F24450C2F2000008A9EC
:10507000FEF714FE002818BFFDF78AF84FF4C87039
:105080000290602001900394059443F24450C2F2D0
:10509000000001A90022FFF797F8002818BFFDF7CC
:1050A00077F843F24450C2F20000FFF761F80EB007
:1050B00010BD000080B543F28C50C2F200004FF4E6
:1050C000165143F60002C4F2010200234FF00C0C0B
:1050D000C0E90021C0E90233C0E9043CC0E906335D
:1050E000FFF7CEFA002814BFBDE8804080BDFDF771
:1050F0004FB80000FEE700007047000000F0070016
:1051000000F1040CC31EBCF1070F38BF002380F070
:105110000700042828BF04204FF0010C0CFA00F00F
:105120000138084098400CFA03F101391140084356
:1051300070470000B0B5002404E000BF0134082C23
:1051400008BFB0BD04F1B0000025002100F002F955
:105150000020002100F0FEF81020002100F0FAF8F5
:105160000020012100F0F6F8681C45B2B5F1FF3FC0
:10517000F6DCE3E780B5AE20002100F0EBF800207C
:10518000002100F0E7F81020002100F0E3F84020B3
:10519000002100F0DFF8B020002100F0DBF88120D2
:1051A000002100F0D7F8FF20002100F0D3F8A12063
:1051B000002100F0CFF8A620002100F0CBF8A820B5
:1051C000002100F0C7F83F20002100F0C3F8C820FC
:1051D000002100F0BFF8D320002100F0BBF8002030
:1051E000002100F0B7F8D520002100F0B3F88020AE
:1051F000002100F0AFF8D820002100F0ABF8052026
:10520000002100F0A7F8D920002100F0A3F8F12038
:10521000002100F09FF8DA20002100F09BF8122016
:10522000002100F097F8DB20002100F093F83020F7
:10523000002100F08FF88D20002100F08BF8142061
:10524000002100F087F8AF200021BDE8804000F089
:1052500081B8000010B5044601F1B000002100F053
:1052600079F8102040EA1410002100F073F804F0DF
:105270000F000021BDE8104000F06CB82DE9F043AC
:1052800081B01F4616460D46044640B20028B8BFFE
:105290000235E9B2B8BF00242046FFF7DBFF10203B
:1052A0001F2E88BF6FF01F00102F23D130445FFAEC
:1052B00080F946F66828C0F6000808EB09170026B2
:1052C000B85D012100F046F80136082EF8D1681CBF
:1052D000C1B22046FFF7BEFF082040EA091008EBE4
:1052E00000040025605D012100F034F80135082D2F
:1052F000F8D109E0002400BF0020012100F02AF8C5
:105300000134E0B20628F7D301B0BDE8F083000015
:105310002DE9F041984615460E4607461278002AB8
:1053200008BFBDE8F0810024F8B2F1B2D2B2434622
:10533000FFF7A4FF0837F8B2782888BF023604F1D7
:105340000104E0B22A5C88BF0027002AECD1BDE846
:10535000F0810000C0B2002908BF00F0C7BC00F017
:10536000DBBC00007047000081B040F2D000C2F208
:105370000000006844F6D351C1F26201A0FB0101B4
:10538000480A009000BF0098411E00910028F9D102
:1053900001B070477047000040F2D400C2F2000034
:1053A00090F9000002289ABF05A151F8200063205F
:1053B00043F2FC41C2F200010968C862704700BFB5
:1053C000E7030000C7000000630000002DE9F04380
:1053D00081B0044643F64878C2F2000898F8080005
:1053E000022831D1002743F27879C2F200094E46F3
:1053F000002500BF2846FCF75EF92146FCF73FF97F
:10540000002818BF642070550135642DF2D1643630
:105410000137042FECD198F8030001283BD143F267
:105420008C54C2F2000447F25801C0F60001204635
:105430000F223223FFF742FA43F27871C2F20001E1
:1054400020464FF4A57217E098F80300012831D1E7
:1054500043F28C54C2F2000447F25801C0F6000136
:1054600020460F223223FFF729FA40F2E401C2F26C
:10547000000120464FF4A0726423FFF71FFA47F2A1
:105480007201C0F60001204603220A23FFF716FA34
:1054900001B0BDE8F083002547F26804C0F60004BF
:1054A00019F80510204600F015FE0135B5F5C87F46
:1054B000F6D11FE043F28C50C2F2000043F6603197
:1054C000C2F200014FF4A0724FF4C873FFF7F6F96F
:1054D000002540F2E406C2F2000647F26804C0F676
:1054E000000400BF715D204600F0F4FD0135B5F504
:1054F000A07FF7D101B0BDE8F0830000F0B581B026
:105500001E4617460D46FCF705F902460B4643F2C8
:10551000AC24C2F200041AA1204600F0EBFD40F2D8
:10552000D800C2F2000050F8262043F2C026C2F292
:10553000000618A1304600F0DDFD3846FCF7EAF819
:1055400002460B4643F29827C2F2000715A13846DF
:1055500000F0D0FD2846FCF7DDF802460B4643F28A
:10556000D425C2F2000514A1284600F0C3FD009521
:1055700016A0214632463B4600F0ACFD01B0F0BD1E
:105580007431322E7478743D22252E336622FFFF4B
:10559000FF0000007431342E7478743D222564229B
:1055A000FFFFFF007431332E7478743D22252E33B3
:1055B0006622FFFFFF0000007431352E7478743DC1
:1055C00022252E336622FFFFFF000000257325737E
:1055D00025732573000000002DE9F04743F6487558
:1055E000C2F20005E878012842D16C7895F8028073
:1055F000287B4FF4C871B1FBF4F7A0F14B090026EA
:1056000043F27875C2F2000540F2982AC2F2000A0D
:1056100054B15AF82600800900FA08F04844C2B292
:1056200028462146FBF790FE2544701CBE420646E4
:10563000EED343F28C54C2F200042AA120460F227A
:105640003223FFF73BF943F27871C2F200012046A2
:105650004FF4C8726423FFF731F947F27201C0F6C4
:105660000001204603220A23FFF728F9BDE8F0874E
:1056700043F28C50C2F2000043F66031C2F20001E6
:105680004FF4C8784FF4A0724FF4C873FFF716F9BF
:105690006878002740F29829C2F2000947F26804AE
:1056A000C0F6000400060AD16878B8FBF0F17A1C55
:1056B0008F42174628BFBDE8F0870006F4D00026C9
:1056C00059F827008009A9782A7B884010444B3874
:1056D000C1B2204600F0FEFC013668788642EFD366
:1056E000E2E700BF6164647420312C302C34303028
:1056F000FFFFFF00B0B501380024B4EB106F1EBFF0
:1057000001242046B0BD4EF21005CEF200056860BF
:105710004FF0FF300F2100F02DFBAC600720286018
:105720002046B0BDFDF7A4BEB0B596B00024CDE9CB
:105730001144CDE90F440694CDE90444CDE9024477
:1057400001200C904FF48031CDE90D14109002250A
:10575000CDE913514FF4E01015900CA8FEF7A2F814
:105760000F20CDE9070509944FF48060CDE90A04C4
:1057700007A80221FDF78EFF01954FF4004003902A
:1057800001A8FDF7F3FE16B0B0BD000070470000A1
:1057900043F24450C2F20000FEF730BC026840F60B
:1057A000FF33C4F2000398420FDCB0F1804F1ED0EB
:1057B00040F20043C4F20003984218D040F60003C0
:1057C000C4F20003984212D01AE040F60043C4F23B
:1057D000000398420BD043F20043C4F20103984205
:1057E00005D042F60043C4F20103984208D122F4E6
:1057F0005C7C4B68CA6823F4407343EA0C031A4389
:105800004B6922F080021A4302608A68C2620A6809
:10581000826243F20042C4F20102904205D042F695
:105820000042C4F20102904201D1096901630121E1
:105830004161704701F01F01012303FA01FC036A73
:1058400023EA0C03036202FA01F1026A11430162C6
:1058500070470000114341EA0321826822F47F422D
:105860001143816070470000826822F07702114383
:1058700041F007018160704770B5026A22F00102B1
:105880000262026AD0F804E0D0F818C022F00202E6
:105890000B688C6822432CF0730444EA030C43F237
:1058A0000043C4F20103984205D042F60043C4F21B
:1058B000010398420CD12EF44073CE68D1E905451E
:1058C000234343EA050E22F00C0226F004031A4398
:1058D000C0F804E0C0F818C049684163026270BDB6
:1058E00070B5026A22F010020262026AD0F804E087
:1058F000D0F818C022F020020B688C6842EA04122B
:105900002CF4E64444EA032C43F20043C4F20103BE
:10591000984205D042F60043C4F2010398420FD1E9
:10592000CE68D1E905452EF4406343EA840343EA97
:10593000850E6FF04F0303EA061322F0C0021A43EC
:10594000C0F804E0C0F818C049688163026270BD05
:1059500070B5026A22F480720262026AD0F804E032
:10596000D0F81CC022F400720B688C6842EA042252
:105970002CF0730444EA030C43F20043C4F2010325
:10598000984205D042F60043C4F2010398420FD179
:10599000CE68D1E905452EF4405343EA041343EAA7
:1059A000051E330240F2FF44A34322F440621A432F
:1059B000C0F804E0C0F81CC04968C163026270BD51
:1059C000B0B5026A22F480520262026AD0F804E0A2
:1059D000C56922F400520C688B6842EA033C25F446
:1059E000E64242EA042243F20043C4F20103984231
:1059F00005D042F60043C4F20103984204D14B693A
:105A00002EF4804545EA831EC0F804E0C26149686F
:105A10000164C0F820C0B0BDD0F820C0036A23F0F4
:105A200001030362836923F0F00343EA02128261F7
:105A30002CF00A021143016270470000036A23F050
:105A400010030362836923F4704343EA0232036A5A
:105A5000826123F0A00242EA011101627047000056
:105A6000406A0021C185C184FEF720BD0168CA6873
:105A700022F49072CA604A6922F001024A61026B04
:105A8000012A02BFCA6822F01002CA60202180F8F1
:105A90003E100021016370470168CA6822F040028D
:105AA000CA60202180F83D10FEF76EBF90F83E10CE
:105AB000222918BF70478268B2F5805F03D101695F
:105AC00079B1816A08E0816A0AB9026922B1026883
:105AD000526802F07F0201E0026852680A700121F8
