:020000040800F2
:1000000060430020450100086D4F00085548000876
:10001000694F0008BD1D0008915B0008000000004A
:10002000000000000000000000000000E95100088E
:10003000BD21000800000000B95100085955000812
:100040005F0100085F0100085F0100085F01000810
:100050005F0100085F0100085F0100085F01000800
:100060005F0100085F0100085F01000861210008CE
:100070005F0100085F010008712100085F010008AE
:100080005F0100085F0100085F0100085F010008D0
:100090005F0100085F0100085F0100085F010008C0
:1000A0005F0100085F0100085F0100085F010008B0
:1000B0005F0100085F010008D55500085F010008D6
:1000C0005F0100085F0100085F0100085F01000890
:1000D0005F010008815B00085F0100085F01000804
:1000E0005F0100085F0100085F0100085F01000870
:1000F0005F0100085F0100085F0100085F01000860
:100100005F0100085F0100085F0100085F0100084F
:100110005F0100085F0100085F0100085F0100083F
:100120005F0100085F010008812100085F010008ED
:10013000DFF80CD001F020FD00480047415E0008C8
:10014000604300200648804706480047FEE7FEE778
:10015000FEE7FEE7FEE7FEE7FEE7FEE7FEE7FEE777
:10016000D1550008310100082DE9F04F4FF0000C87
:100170004FF0000301EB9C5EBEF90250BEF9004057
:100180000EF5806EBEF90290BEF900800EF5806E0D
:10019000BEF90270BEF900600EF5806EBEF902B0C5
:1001A000BEF900A00EF5806ED044D944A8EB4A0AEF
:1001B000A9EB4B0B4FEAA4044FEAA50504EBA604F8
:1001C00005EBA705A4EB6606A5EB670704EBA804FF
:1001D00005EBA905A4EB6808A5EB690906EBAB06DE
:1001E000A7EBAA07A6EB6B0B07EB6A0A458020F882
:1001F000044B478020F8046BA0F8029020F8048B91
:10020000A0F802A020F804BB03F1010393FAA3FCB9
:10021000B3F5807FAED1A0EB82014FF0100312093D
:100220000FF2341000F1000006B403EB430C6144FC
:10023000A2F5803202EB8332B1F90250B1F90040ED
:10024000A1EB0301B0F902B0B0F900A000F1040085
:10025000A5EB040E0EFB0BFC0AEB4B0E05FB0ACBC9
:1002600004FB0ECAB1F90250B1F90040A1EB030141
:10027000B0F90290B0F9008000F10400A5EB040E83
:100280000EFB09FC08EB490E05FB08C904FB0EC870
:10029000B1F90250B1F90040A1EB0301B0F90270CD
:1002A000B0F9006000F10400A5EB040E0EFB07FCA2
:1002B00006EB470E05FB06C704FB0EC6B1F902505C
:1002C000B1F9004001F10001D044D944A8EB4A0A39
:1002D000A9EB4B0B4FEAA4044FEAA50504EB264417
:1002E00005EB2745A4EBE636A5EBE73704EB2844FE
:1002F00005EB2945A4EBE838A5EBE93906EB2B46DD
:10030000A7EB2A47A6EBEB3B07EBEA3A4D800C80C4
:1003100019444F800E801944A1F80290A1F8008082
:100320001944A1F802A021F804BBB2F5803283DAA7
:1003300003EB430C6144A2F101025FEA024E18BFD5
:10034000A0EB0C007FF476AF06BC4FEA8303920863
:100350007FF46AAFBDE8F08F00400000004000006D
:10036000004000005DDD213BA3227E180000412DEE
:100370007EA5412D0000412D00C000405DDD82E7DB
:100380005DDD213B7EA5412D0040000000400000C6
:1003900000400000AA2A94126B39460649327C0CB0
:1003A000A8118E2349327C0CA3227E1821F77931C3
:1003B000AA2A9412A8118E235DDD213BA3227E1868
:1003C0000000412D95C6B13F461A2B1E58EE373519
:1003D000BEB4C53EA8118E235DDD213B63A97138F3
:1003E000DF089A28B7CDC53E7EA5412D0000412DDE
:1003F00000C0004063A92B1E21F77931BEB4C53E71
:10040000BEB47C0C58EE373561AC213B95C6BAF9C9
:10041000BAE571383BA737355DDD82E75DDD213B0D
:100420007EA5412D21F766D756D53F3D3BA78E23AC
:10043000A811C9CAB7CDC53E61AC7E18AA2AC1C2EF
:1004400095C6B13FBEB47C0C0040000000400000E7
:10045000004000001E3BB504693E9201C83C2403E5
:10046000EB356409C83C24036B3946066C30060E34
:100470001E3BB504EB356409AA2A94126B39460673
:1004800049327C0CAE240917AF37D607882E8D0F62
:100490007E1E5D1BEB356409AA2A941224188C1F5A
:1004A0001E34F10AB3269015A8118E2349327C0C14
:1004B000A3227E18140B60276C30060E7E1E5D1B77
:1004C0007104FB2A882E8D0F461A2B1EC7FD5A2E4B
:1004D0009D2C1211FE15E72021F77931AA2A9412DA
:1004E000A8118E2387F05334B2281314480D202608
:1004F00002EAE536B3269015DF089A289CE32B39EB
:10050000AE2409177104FB2A5DDD213BA3227E186E
:100510000000412D4ED7C53C9320EF198FFB6C2F67
:1005200078D1153E7E1E5D1B21F77931E2CB0F3F5E
:10053000641CC61CB8F2683395C6B13F461A2B1E20
:1005400058EE373597C1FB3F24188C1F02EAE53679
:10055000F0BCEC3FFE15E720BAE57138A6B8853F40
:10056000D5133D2282E1DB39BEB4C53EA8118E23EE
:100570005DDD213B40B1AF3D790FDA244DD9423CDE
:100580002EAE423C480D202656D53F3D8EAB823ADA
:10059000140B602778D1153E63A97138DF089A28BB
:1005A000B7CDC53EB1A71236A906CE2915CA4F3F11
:1005B00078A668337104FB2A95C6B13FBCA5763096
:1005C0003902212C38C3EC3F7EA5412D0000412D7E
:1005D00000C00040BCA5CE29C7FD5A2EF0BCEC3FA0
:1005E00078A620268FFB6C2F09BAB13FB1A73D2218
:1005F00057F976304DB74F3F63A92B1E21F779315C
:10060000BEB4C53E8EABEF19ECF474325EB2153E4B
:100610002EAE9015B8F268332DB03F3D40B11211A7
:1006200087F053342EAE423CBEB47C0C58EE3735C6
:1006300061AC213BA6B8D6072BEC1236C8AADB3931
:10064000F0BC240302EAE53663A9713897C16EFE57
:10065000DCE7B03734A8E53695C6BAF9BAE57138A3
:100660003BA73735E2CB0FF59CE32B3978A66833EF
:1006700078D173F082E1DB39EDA579314ED7EDEB1E
:100680006DDF823A99A56C2F5DDD82E75DDD213B50
:100690007EA5412D9CE33AE352DBB63B99A5FB2AAC
:1006A00002EA19DF4DD9423CEDA59A2887F026DBF6
:1006B0004ED7C53C78A6202621F766D756D53F3DB4
:1006C0003BA78E23C7FDDFD363D3AF3D34A8E7201C
:1006D000710494D078D1153E63A92B1E140B8CCDD8
:1006E00094CF723EC8AA5D1BA811C9CAB7CDC53E3A
:1006F00061AC7E18241850C8E2CB0F3F2EAE901587
:100700007E1E25C615CA4F3F2DB09412AE244AC492
:1007100051C8853F5EB28D0FAA2AC1C295C6B13FAE
:10072000BEB47C0C6C308EC1E2C4D43F4DB76409BA
:10073000EB35B1C038C3EC3F09BA46061E3B2CC0AE
:1007400097C1FB3FF0BC24030040000000400000C4
:1007500000400000D03E2E019B3F6500363FC9009F
:100760009A3D5B02363FC900693E92015F3C8803B7
:10077000D03E2E019A3D5B021E3BB504693E9201BC
:10078000C83C2403D939E205023EF701F43BED03EE
:100790008E380E079A3D5B021E3BB5043F37390881
:1007A000313DC002463A7E05EB356409C83C24035E
:1007B0006B39460692348E0A5F3C88038E380E07EA
:1007C0003433B70BF43BED03AF37D607D231DF0C30
:1007D0008A3B5104CE369D086C30060E1E3BB50494
:1007E000EB356409022F2B0FB23A1A0505352B0A97
:1007F000932D5010463A7E051E34F10A212C7311B8
:10080000D939E2053433B70BAA2A94126B3946065C
:1008100049327C0C3129B413FD38AA065B31410DF5
:10082000B327D2148E380E076C30060E3226EE1522
:100830001F3872077B2FCA0EAE240917AF37D607B1
:10084000882E8D0F262321183F373908932D5010FD
:100850009C213719CE369D089D2C12110E204B1A63
:100860005D360109A42BD3117E1E5D1BEB35640997
:10087000AA2A9412EB1C6C1C7835C709AF295413B3
:10088000561B791D05352B0AB2281314BE19841E78
:1008900092348E0AB327D21424188C1F1E34F10A06
:1008A000B326901588169120A933540BB1254C1608
:1008B000EA1493213433B70BAE2409174A1392225A
:1008C000BF321A0CA923C417A8118E2349327C0CFD
:1008D000A3227E1805108824D231DF0C9C21371901
:1008E000610E7E255B31410D9320EF19BB0C712603
:1008F000E430A40D891FA71A140B60276C30060E74
:100900007E1E5D1B6D094C28F42F680E721D121C93
:10091000C40735297B2FCA0E641CC61C1B061A2A65
:10092000022F2B0F561B791D7104FB2A882E8D0F69
:10093000461A2B1EC702D82B0E2EEE0F3519DC1EC1
:100940001C01B22C932D501024188C1F72FF882D7F
:10095000182DB11011173A20C7FD5A2E9D2C1211D7
:10096000FE15E7201DFC282F212C7311EA1493217A
:1009700073FAF22FA42BD311D5133D22CAF8B83045
:10098000282B3412BF12E72221F77931AA2A9412B8
:10099000A8118E2379F536322D2AF41291103524C0
:1009A000D2F3EF32AF295413790FDA242CF2A333A8
:1009B0003129B413610E7E2587F05334B228131405
:1009C000480D2026E3EEFF34332873142E0CC12685
:1009D00041EDA535B327D214140B6027A1EB48369F
:1009E00033273115FA09FE2702EAE536B3269015BA
:1009F000DF089A2865E87E373226EE15C4073529C8
:100A0000CBE61238B1254C16A906CE2932E5A1381D
:100A10002F25AB168D05652A9CE32B39AE240917CB
:100A20007104FB2A08E2B0392B24661755038F2B7B
:100A300077E0303AA923C4173902212CE9DEAB3A1A
:100A4000262321181C01B22C5DDD213BA3227E1838
:100A50000000412DD5DB923B1F22DB18E4FECF2D99
:100A60004FDAFD3B9C213719C7FD5A2ECDD8643C87
:100A700017219319ABFCE42E4ED7C53C9320EF19F8
:100A80008FFB6C2FD3D5213D0E204B1A73FAF22F1A
:100A90005CD4783D891FA71A57F97630E8D2C93D52
:100AA000041F021B3CF8F93078D1153E7E1E5D1BF9
:100AB00021F779310CD05C3EF81DB81B06F6F831F1
:100AC000A5CE9D3E721D121CECF4743241CDD83E71
:100AD000EB1C6C1CD2F3EF32E2CB0F3F641CC61C44
:100AE000B8F2683388CA403FDD1B201D9FF1DF3319
:100AF00032C96B3F561B791D87F05334E1C7913FD4
:100B0000CE1AD31D6FEFC63495C6B13F461A2B1EC1
:100B100058EE37354EC5CC3FBE19841E41EDA53584
:100B20000CC4E13F3519DC1E2BEC1236CFC2F13F6D
:100B3000AD18341F16EB7D3697C1FB3F24188C1F70
:100B400002EAE53665C000409B17E31FEFE84B372C
:100B500038BFFF3F11173A20DCE7B03711BEF83F2E
:100B600088169120CBE61238F0BCEC3FFE15E7204A
:100B7000BAE57138D4BBDB3F74153D21AAE4CF3808
:100B8000BFBAC43FEA1493219CE32B39AFB9A73F06
:100B90005F14E8218EE28439A6B8853FD5133D2243
:100BA00082E1DB39A2B75D3F4A13922277E0303A07
:100BB000A5B6303FBF12E7226DDF823AAFB5FD3EEA
:100BC00034123B2364DED33ABEB4C53EA8118E2353
:100BD0005DDD213BD5B3883E1D11E22357DC6D3B23
:100BE000F2B2453E9110352452DBB63B15B2FC3DC6
:100BF000051088244FDAFD3B40B1AF3D790FDA2470
:100C00004DD9423C71B05B3DED0E2C254DD8853C55
:100C1000A9AF033D610E7E254ED7C53CE8AEA53C8D
:100C2000D40DCF2551D6033D2EAE423C480D202693
:100C300056D53F3D7BADDA3BBB0C71265CD4783D8D
:100C4000D0AC6D3B2E0CC12663D3AF3D2BACFA3A32
:100C5000A10B11276DD2E33D8EAB823A140B6027B6
:100C600078D1153EF8AA063A870AAF2785D0453EC7
:100C70006AAA8439FA09FE2794CF723EE3A9FD38A7
:100C80006D094C28A5CE9D3E63A97138DF089A28CE
:100C9000B7CDC53EEBA8E1375208E728CCCCEB3EF8
:100CA0007BA84B37C4073529E2CB0F3F12A8B136DA
:100CB00036078129FBCA303FB1A71236A906CE29D3
:100CC00015CA4F3F57A76E351B061A2A32C96B3F0C
:100CD00005A7C6348D05652A51C8853FBBA61934C2
:100CE000FF04B02A72C79C3F78A668337104FB2AC0
:100CF00095C6B13F3EA6B232E303452BBAC5C43F09
:100D00000BA6F83155038F2BE2C4D43FE0A539314F
:100D1000C702D82B0CC4E13FBCA576303902212C88
:100D200038C3EC3FA1A5AF2FAA016A2C66C2F53FDC
:100D30008DA5E42E1C01B22C97C1FB3F81A5152E79
:100D40008E00FA2CCAC0FF3F7EA5412D0000412D28
:100D500000C0004081A56A2C72FF882D38BFFF3F7C
:100D60008DA58F2BE4FECF2D73BEFB3FA1A5B02A2E
:100D700056FE152EB0BDF53FBCA5CE29C7FD5A2E97
:100D8000F0BCEC3FE0A5E72839FD9F2E32BCE13FE7
:100D90000BA6FE27ABFCE42E77BBD43F3EA6112763
:100DA0001DFC282FBFBAC43F78A620268FFB6C2FCE
:100DB00009BAB13FBBA62C2501FBAF2F56B99C3F0A
:100DC00005A7352473FAF22FA6B8853F57A73B2312
:100DD000E5F93430F8B76B3FB1A73D2257F97630CB
:100DE0004DB74F3F12A83D21CAF8B830A5B6303FE5
:100DF0007BA83A203CF8F93000B60F3FEBA8341F2F
:100E0000AEF739315EB5EB3E63A92B1E21F7793180
:100E1000BEB4C53EE3A9201D93F6B93122B49D3E70
:100E20006AAA121C06F6F83188B3723EF8AA021BB1
:100E300079F53632F2B2453E8EABEF19ECF47432EE
:100E40005EB2153E2BACDB185FF4B232CDB1E33DA0
:100E5000D0ACC417D2F3EF3240B1AF3D7BADAB168F
:100E600045F32C33B5B0783D2EAE9015B8F268330B
:100E70002DB03F3DE8AE73142CF2A333A9AF033D70
:100E8000A9AF54139FF1DF3328AFC53C71B03412C2
:100E900013F11934A9AE853C40B1121187F05334D7
:100EA0002EAE423C15B2EE0FFBEF8D34B6ADFD3BDE
:100EB000F2B2CA0E6FEFC63441ADB63BD5B3A40D46
:100EC000E3EEFF34D0AC6D3BBEB47C0C58EE37354E
:100ED00061AC213BAFB5540BCCED6E35F6ABD33ADC
:100EE000A5B62B0A41EDA5358EAB823AA2B7010912
:100EF000B6ECDC3529AB303AA6B8D6072BEC123667
:100F0000C8AADB39AFB9AA06A1EB48366AAA843968
:100F1000BFBA7E0516EB7D360FAA2B39D4BB510420
:100F20008CEAB136B7A9CF38F0BC240302EAE53623
:100F300063A9713811BEF70178E9183712A9123880
:100F400038BFC900EFE84B37C5A8B03765C09BFF75
:100F500065E87E377BA84B3797C16EFEDCE7B0377C
:100F600034A8E536CFC240FD53E7E137F1A77D361F
:100F70000CC413FCCBE61238B1A712364EC5E6FA04
:100F800042E6423874A7A53595C6BAF9BAE5713874
:100F90003BA73735E1C78EF832E5A13805A7C6343F
:100FA00032C963F7AAE4CF38D3A6533488CA39F6D6
:100FB00023E4FD38A4A6DF33E2CB0FF59CE32B3905
:100FC00078A6683341CDE6F315E3583950A6EF32E1
:100FD000A5CEBFF28EE284392CA674320CD098F1E3
:100FE00008E2B0390BA6F83178D173F082E1DB3931
:100FF000EDA57931E8D24FEFFCE0063AD3A5F93000
:101000005CD42DEE77E0303ABCA57630D3D50CED2C
:10101000F2DF593AA9A5F22F4ED7EDEB6DDF823AF8
:1010200099A56C2FCDD8CFEAE9DEAB3A8DA5E42E99
:101030004FDAB4E964DED33A85A55A2ED5DB9AE8B7
:10104000E1DDFA3A7FA5CF2D5DDD82E75DDD213B55
:101050007EA5412DE9DE6DE6DADC473B7FA5B22CAB
:1010600077E059E557DC6D3B85A5212C08E248E483
:10107000D5DB923B8DA58F2B9CE33AE352DBB63B4D
:1010800099A5FB2A32E52DE2D1DADA3BA9A5652A3A
:10109000CBE624E14FDAFD3BBCA5CE2965E81DE097
:1010A000CED9203CD3A5352902EA19DF4DD9423CDF
:1010B000EDA59A28A1EB18DECDD8643C0BA6FE273F
:1010C00041ED19DD4DD8853C2CA66027E3EE1EDCF2
:1010D000CDD7A53C50A6C12687F026DB4ED7C53C10
:1010E00078A620262CF231DACFD6E43CA4A67E25C1
:1010F000D2F33FD951D6033DD3A6DA2479F551D89E
:10110000D3D5213D05A7352421F766D756D53F3DD8
:101110003BA78E23CAF87FD6D8D45B3D74A7E722BD
:1011200073FA9BD55CD4783DB1A73D221DFCBBD49E
:10113000DFD3933DF1A79321C7FDDFD363D3AF3D49
:1011400034A8E72072FF06D3E8D2C93D7BA83A2035
:101150001C0131D26DD2E33DC5A88C1FC70261D1FD
:10116000F2D1FC3D12A9DC1E710494D078D1153E59
:1011700063A92B1E1B06CCCFFED02D3EB7A9791D2F
:10118000C40707CF85D0453E0FAAC61C6D0947CEC0
:101190000CD05C3E6AAA121C140B8CCD94CF723E0C
:1011A000C8AA5D1BBB0CD4CC1CCF883E29ABA71AA8
:1011B000610E21CCA5CE9D3E8EABEF19051073CBF1
:1011C0002ECEB13EF6AB3719A811C9CAB7CDC53E70
:1011D00061AC7E184A1324CA41CDD83ED0ACC417A6
:1011E000EA1483C9CCCCEB3E41AD09178816E8C898
:1011F00057CCFD3EB6AD4C16241850C8E2CB0F3F7D
:101200002EAE9015BE19BEC76ECB203FA9AED2142C
:10121000561B31C7FBCA303F28AF1314EB1CA8C6BE
:1012200088CA403FA9AF54137E1E25C615CA4F3F3A
:101230002DB094120E20A7C5A3C95D3FB5B0D31140
:101240009C212DC532C96B3F40B112112623B9C470
:10125000C1C8783FCDB15010AE244AC451C8853FB3
:101260005EB28D0F3226E0C3E1C7913FF2B2CA0EE3
:10127000B3277BC372C79C3F88B3060E31291CC3BA
:1012800003C7A73F22B4410DAA2AC1C295C6B13FE8
:10129000BEB47C0C212C6DC227C6BB3F5EB5B70B1C
:1012A000932D1DC2BAC5C43F00B6F10A022FD3C1A7
:1012B0004EC5CC3FA5B62B0A6C308EC1E2C4D43FDC
:1012C0004DB76409D2314FC176C4DB3FF8B79D08F2
:1012D000343315C10CC4E13FA6B8D6079234E0C040
:1012E000A1C3E73F56B90E07EB35B1C038C3EC3F99
:1012F00009BA46063F3788C0CFC2F13FBFBA7E0564
:101300008E3864C066C2F53F77BBB504D93945C095
:10131000FEC1F83F32BCED031E3B2CC097C1FB3F22
:10132000F0BC24035F3C19C030C1FD3FB0BD5B027F
:101330009A3D0BC0CAC0FF3F73BE9201D03E03C0AE
:1013400065C0004038BFC900D2B201E000F8012BEF
:10135000491EFBD270470022F6E710B513460A4635
:1013600004461946FFF7F0FF204610BD421C10F856
:10137000011B0029FBD1801A704710B5002200E044
:10138000521C835C8C5CA34201D1002BF8D1D8B2F3
:10139000E1B2401A10BD034611F8012B00F8012BF1
:1013A000002AF9D118467047F0B480EA0102D40F40
:1013B0004200B2EB410F02D20246084611464A00F3
:1013C00042D0C30DDDB2C1F3C752AD1A202D35DABC
:1013D000C1F3160141F4000204B15242C5F12006E6
:1013E00002FA06F12A411044B3EBD05F23D0C4B116
:1013F000012DA0EBC35009DCF0BC4FF0004202EA23
:10140000C352DBB200F5000000F094B9400000F1D7
:10141000807000EBC350A0F1807040EAD1704900A9
:1014200009E0490841EAC071A0EBC35000F5000093
:10143000400800EBC350F0BC00F073B961420122D8
:1014400002EB4101001BF6E7F0BC704781F0004160
:10145000AAE780F00040A7E780EA010210B502F099
:101460000043400022D04A001FD0010E01EB126160
:10147000C0F35600C2F3560240F4000042F40002EA
:10148000A0FB022000047F39140400D0401C50EA65
:10149000124001D44000491EC2B20C0604EBD01029
:1014A000401C4008802A02D003E0002010BD20F03C
:1014B0000100002900DA0020184310BD2DE9FE4F7D
:1014C00081EA030404F0004421F0004100944FF04D
:1014D000000B23F0004350EA01045ED052EA0304FB
:1014E0005BD0C3F30A54C1F30A552C44A4F2F3347D
:1014F0000194A0FB0254C1F3130141F48011C3F322
:10150000130343F4801301FB024400FB034E840ADF
:10151000970A44EA815447EA8357A4FB0768029577
:101520008D0A05FB07854FEA932C04FB0C54270515
:10153000029D4FEA065847EA1637B5EB08056EEBF1
:10154000070C870E920E47EA811742EA8312A7FB27
:101550000201B6EB0B0164EB00042B0D43EA0C33E4
:101560005E1844EB1C50DA465146E7FB0201C5F316
:1015700013044FEA0B3343EA14534FEA0432019C3D
:1015800043EA0603A4F10C040294009CCDE900B4E4
:1015900000F00DF903B0BDE8F08F00200146F9E737
:1015A000002801DBC0F10040002901DBC1F100414E
:1015B000814201D20120704700207047002801DBE2
:1015C000C0F10040002901DBC1F10041814201D995
:1015D0000120704700207047C10F80EAE070084486
:1015E000CA079623002100F0A5B8962300221146D1
:1015F00000F0A0B80EB540F2334102910021CDE9D0
:1016000000110A460B4600F0D2F803B000BD20F0EE
:101610000040C10DC0F3160040F400007F2901DA3C
:1016200000207047962903DCC1F19601C84070473D
:1016300096398840704700F0004230F000400AD0F0
:10164000C10D01F56071C0F3160042EA0151C208F4
:1016500040071143704700200146704701F00043E6
:1016600030B421F0004150EA010206D00A0DA2F583
:101670006072C1F31301002A02DC30BC0020704705
:10168000440F44EAC104C100E01830BC00EBC25072
:1016900000F047B830B50B46014600202022012457
:1016A00009E021FA02F59D4205D303FA02F5491B30
:1016B00004FA02F52844151EA2F10102F1DC30BD46
:1016C0002DE9F05F0546002092469B468846064677
:1016D000814640241BE0284641464746224600F00A
:1016E0006CFA53465A46C01A914110D31146184617
:1016F000224600F053FA2D1A67EB01084F462246A6
:101700000120002100F04AFA17EB00094E41201E8B
:10171000A4F10104DFDC484631462A464346BDE8D1
:10172000F09F0029A8BF7047401C490008BF20F067
:101730000100704710B4B0FA80FC00FA0CF050EAD7
:10174000010404BF10BC704749B1CCF1200421FA58
:1017500004F411FA0CF118BF012121430843A3EB53
:101760000C01CB1D4FEA00614FEA102042BF002060
:1017700010BC704700EBC35010440029A4BF10BC3C
:101780007047401C490008BF20F0010010BC7047A2
:1017900010B5141E73F1000408DA401C41F1000179
:1017A00092185B411A4301D120F0010010BD2DE9D0
:1017B000F04D92469B4611B1B1FA81F202E0B0FAC7
:1017C00080F22032904600F0E9F904460F4640EAE4
:1017D0000A0041EA0B0153465A46084313D011460A
:1017E00053EA010019D0C8F14002504600F0E5F973
:1017F00005460E4650465946424600F0CFF908438A
:1018000005D0012004E020463946BDE8F08D0020D7
:10181000054346EAE0762C4337430A986305E40A19
:10182000A0EB08000022FD0A44EA47540A3002D522
:1018300000200146E9E7010510196941DDE9084585
:1018400000196941BDE8F04DA2E72DE9FE4F804641
:1018500081EA0300C00F0C46009021F0004123F004
:101860000045B8EB0200A94105D24046214690460A
:101870001C460B46024623F00040104347D0270D7C
:10188000C7F30A00C3F30A510290401A019040289E
:101890006BDAC3F3130040F4801B0098924620B12A
:1018A0000023D2EB030A63EB0B0B01985946C0F1FE
:1018B0004002504600F072F906460D465046594621
:1018C000019A00F08AF910EB08006141002487EAD0
:1018D000115284EAE7731A4340D0009A62B3019A26
:1018E000012A4FEA075215DC001B61EB02014FF0A1
:1018F000004202EA0752CDE90042001C41F5801186
:1019000032462B46FFF753FF03B0BDE8F08F404649
:101910002146F9E7001B61EB0201001C41F5801331
:1019200000185B412018A2F5001747EB030140EABD
:10193000D570B6196D4111E06D084FEA360645EADB
:10194000C0754FEA0752001B61EB0201001C41F514
:10195000801149084FEA30000019514132462B46A8
:1019600003B0BDE8F04FFFF713BF0098012240001D
:101970000023D0EB020263EBE073009821464FEAAC
:10198000E074B8EB000061EB0401E9E783F0004389
:101990005BE781F0004158E72DE9F04D81EA03044F
:1019A00004F0004B21F0004514464FF0000A23F0EC
:1019B000004150EA050220D054EA01021DD0C5F3CF
:1019C0000A570246C5F31303C1F31300C1F30A56C5
:1019D00040F4801543F48013A7EB0608101BD6468D
:1019E00008F2FD3873EB050002D308F1010801E0AD
:1019F00092185B41B8F1000F03DA00200146BDE800
:101A0000F08D00204FF48011064684460EE0171B2F
:101A100073EB050705D3121B63EB050306434CEA82
:101A2000010C49084FEA300092185B4150EA010767
:101A3000EDD152EA030012D082EA040083EA0501E4
:101A4000084305D0101BAB4106D20122002306E05B
:101A500000224FF0004302E06FF0010253101AEB36
:101A600006004CEB085110EB0A0041EB0B01BDE8FE
:101A7000F04DFFF78DBE2DE9F04D00231A461B1ADD
:101A80008A4103DB00200146BDE8F08DC1F30A5214
:101A9000C1F3130141F480154FF0000BD10702D1BF
:101AA00000186D41521E0027044640F2FF113846CF
:101AB00001EB620A3E468046024600204FF4801148
:101AC00000F07BF8C2197141BB1846EB0100B4EB82
:101AD000030C75EB000C04D3E41A65EB0005174604
:101AE0000E46241908F101006D4180463428E3DDDB
:101AF000F91946EB0600091BA84103D24FF0FF324B
:101B0000134601E0002213461BEB070046EB0A5187
:101B1000BDE8F04DFFF73CBEC1F30A52C1F313011B
:101B200040F2FF3341F480119A4202DA002001466C
:101B3000704740F233439A42A2F2334202DC5242EF
:101B400000F03BB800F02AB830B5041E71F1000473
:101B500004DB4FF00044404264EB0101141E73F1BA
:101B6000000405DB1C464FF00043524263EB0403C4
:101B7000994208BF904230BD064C074D06E0E06830
:101B800040F0010394E8070098471034AC42F6D3C4
:101B9000FEF7D2FA146F0008346F0008202A04DB25
:101BA000203A00FA02F1002070479140C2F1200370
:101BB00020FA03F3194390407047202A04DB203AAF
:101BC00021FA02F00021704721FA02F3D040C2F15D
:101BD00020029140084319467047202A06DBCB17A4
:101BE000203A41FA02F043EAE07306E041FA02F3D8
:101BF000D040C2F12002914008431946704770B5A9
:101C00008C1810F8015B15F0070301D110F8013BA7
:101C10002A1106D110F8012B03E010F8016B01F82E
:101C2000016B5B1EF9D12B0705D40023521E0DD486
:101C300001F8013BFAE710F8013BCB1A921C03E0D4
:101C400013F8015B01F8015B521EF9D5A142D8D30C
:101C5000002070BDB0B5044600688168C90709D08E
:101C6000816821F00101816001F038FA21688968FA
:101C7000C90701D10020B0BD054603E02068806897
:101C8000C007F7D001F02AFA401B0328F6D32068DA
:101C90008068C007F2D0A06A40F01000A062E06A3D
:101CA00040F00100E0620120B0BD000080B50146B7
:101CB000406A826A12F0500F04D0006A026B084634
:101CC000904780BD0168826A42F40072826289682E
:101CD00001F46021B1F5602F01D1017B11B100F059
:101CE00017FB80BD816A21F480718162816AC90419
:101CF000F5D4816A41F00101816200F009FB80BDE9
:101D000080B5406A816A41F040018162C16A41F058
:101D10000401C16200F09AFB80BD000080B5406AFA
:101D200000F092FB80BD0000B0B582B004460020F8
:101D3000019021688A68D2073DD1886840F001008F
:101D4000886040F2D400C2F2000000684DF6836162
:101D5000C4F21B31A0FB0101880C00BF0190019867
:101D600010B101980138F9E701F0B8F921688968E4
:101D7000C9071CD1054603E020688068C00719D157
:101D800001F0ACF9401B0328F6D320688068C00737
:101D9000F2D1A06A40F01000A062E06A40F00100B9
:101DA000E062002084F82400012002B0B0BD0020D1
:101DB00002B0B0BD002002B0B0BD0000FEE70000E0
:101DC0002DE9F04F83B0029000200860106040F2CF
:101DD000A020C2F200000091061F41F2A021019252
:101DE0006FF00300C2F2000140F6FC72334600BF00
:101DF00053F8047F0D1804303F0490426F60F7D110
:101E000042F2A027C2F2000741F2A021C2F2000173
:101E100038464FF48062FEF7A7F9384603F024FFF6
:101E200043F2D45742F6A02143F2D05B0020C2F225
:101E30000007C2F20001C2F2000B03E00130B0F56E
:101E4000007F0AD00028F9D03B6851F82020934247
:101E50003CBF3A60CBF80000F0E743F2D854C2F23E
:101E600000043846214603F063FF43F64870D7F874
:101E70000080D4F80090C2F2000090F809A0A8EB0E
:101E80000900FFF7B7FB46F26663C4F20A034FF09E
:101E90006632FFF713FB0023C3F6307300220027DE
:101EA000FFF70CFB0023C3F6E073002204460D4647
:101EB000FFF704FBBAF1010F1CBF20462946FFF7CC
:101EC000CDFB0099086009EB080040084FF48061E1
:101ED00056F8042F824288BF01370139F8D13846BD
:101EE000FFF788FB0023C3F650730022FFF7E6FAE2
:101EF0000023C4F259030022FFF7E0FAFFF7AEFB1C
:101F0000DBF80010019A10600846FFF76EFB40F204
:101F10000806C2F20006316804460846FFF765FB72
:101F200001462046FFF798FA4FF06A51FFF794FAFE
:101F300043F64871C2F20001097805460298042967
:101F4000056035D10021C4F22F412846FFF736FB4A
:101F500000210446C4F248312846FFF72FFB43F224
:101F6000AE61002818BF0120C2F20001002C18BF8A
:101F700002200A7840F2D803C2F20003092A18703E
:101F800033D8082A0FD142F21070306043F2FC407F
:101F9000C2F2000000686323C36243F2AC60C2F285
:101FA000000000230370501C087003B0BDE8F08FE0
:101FB000481E40F2D801C2F20001087040F2DC0174
:101FC00040F29022C0B2C2F20001C2F2000251F807
:101FD000201032F8100043F2FC42C2F200021268F4
:101FE0003160D06203B0BDE8F08F0020087018782F
:101FF00040F2DC0140F29022C2F20001C2F2000283
:1020000051F8201032F8100043F2FC42C2F20002F4
:1020100012683160D06243F2AC60C2F2000001216C
:10202000017003B0BDE8F08F10B543F2E454C2F282
:10203000000443F2B061C2F200012046FFF79DF9AF
:10204000002808BF10BD43F2F22122786378C2F263
:102050000001E0780A704B7043F2F723A2F14301CC
:10206000C2F20003152918703AD8DFE801F00B110D
:102070003917391D39393934233939393939293939
:102080003939392F43F64871C2F20001487227E00E
:1020900043F64871C2F20001087021E043F648712E
:1020A000C2F2000188701BE043F64871C2F20001E1
:1020B000087315E043F64871C2F2000148600FE072
:1020C00043F64871C2F20001487009E043F64871D6
:1020D000C2F20001C87043F64871C2F200010872F2
:1020E00043F2B06043F2E451C2F20000C2F20001D8
:1020F000FFF751F910BD000010B5446A204600F00A
:1021000089FB0120207110BD10B5446A204600F003
:1021100055FB0120207110BD10B5446A206940F0C4
:1021200004002061204600F079FB0120207110BDE1
:1021300010B5446A206940F004002061204600F098
:1021400041FB0120207110BD80B5406A00F064FBA6
:1021500080BD000080B5406A00F032FB80BD000009
:1021600080B543F29430C2F2000000F0E1FC80BD83
:1021700080B543F21C40C2F2000000F0D9FC80BDE3
:1021800080B543F2D830C2F2000000F0D1FC80BD2F
:10219000B0B5D0E900CED0E90F40012505FA00F036
:1021A00060600846CCF80430BEF1100F04BF104642
:1021B0000A46CCF80800CCF80C20B0BD70470000EF
:1021C00070470000B0B543F28C54C2F2000443F2F1
:1021D000F021C2F200012046012202F045FA002857
:1021E00008BFB0BD43F2F025C2F2000594F83D00EF
:1021F00020462946012202F037FA0228F6D1B0BD66
:10220000B0B581B00022009290F82420012A01D1BB
:10221000022179E04A680123062A80F8243005D893
:1022200003686FF0040C03F1340E0AE003680C2A13
:1022300087BF03F12C0E6FF0400C03F1300E6FF0EE
:10224000220C02EB8202DEF8005062441F230C686D
:10225000934025EA030304FA02F21A43CEF8002061
:10226000D1F800E002680EEB4E051024BEF1090F14
:1022700088BF1E3D88BF0C2452F804C0072389681C
:10228000AB402CEA0303A940194311512EF0010180
:102290004FF0000C10294FF0000133D1016842F2D9
:1022A0000042C4F20102914205D0816A41F020014E
:1022B0008162012126E09268120222D48A68BEF16E
:1022C000100F42F400028A601BD140F2D401C2F226
:1022D000000109684DF68362C4F21B32A1FB0212B1
:1022E000910C01EB810149000091009949B100BFB7
:1022F000009901390091009900294FF00001F7D1B0
:1023000000E0002180F824C0084601B0B0BD000004
:102310002DE9F04788B040F60000C4F201004FF408
:10232000807100F0CDFE43F25030C2F2000000F0A8
:102330001BFA07A806A905AAFFF742FD43F2AC6005
:10234000C2F20000007800285CD0DDF818A05046EA
:10235000FFF771F9804643F2D450C2F200000068E2
:102360008946FFF747F946F26667C4F20A074FF05D
:1023700066323B46FFF7A2F80025C3F6307500220F
:102380002B46FFF79BF8064643F2D850C2F20000F6
:1023900000680C46FFF72EF94FF066323B46FFF718
:1023A0008DF800222B46FFF789F8CDE9006440F252
:1023B0006824C2F200040F4602901BA12046424648
:1023C0004B46039703F0E4FD002000212246102332
:1023D00002F0C8FE40F2D800059DC2F2000003786A
:1023E000079851462A4602F09FFF43F64870C2F212
:1023F00000004068022802D103F004F802E02846F9
:1024000002F0F4FEFFF7DEFE43F2503040F2A0216E
:10241000C2F20000C2F200014FF4806200F008F93D
:1024200008B0BDE8F08700BF5670703D252E3466B9
:10243000562C566D613D252E3466562C566D693DE1
:10244000252E3466560000007047000070470000DB
:10245000002804BF012070472DE9F0418046044662
:1024600058F8280F30B90020E06284F82400204694
:1024700000F08CF82046FFF7EDFBA26AA16A002865
:1024800008BF12F0100206D041F010010120C8F878
:102490000010BDE8F08141F2021291430231A162C5
:1024A000D4E90013E66981F08045A26885F49E3581
:1024B00086F440272F4308BF4FF4002646EA03075F
:1024C000531EB3FA83F35E091346B2F5807F18BF3B
:1024D0003302267D257B012E47EA450C11D145B1FB
:1024E000A76A47F02007A762E76A47F00107E7629B
:1024F00007E0A7694EF60006CFF6FF7606EB4737F2
:102500003B434F68B2F5807F27F4694743EA0703EE
:102510004B608B684FF2FD77CFF6E17703EA070354
:1025200043EA0C038B6001D0012A06D12269002303
:10253000CFF6F07303EB025200E00022CB6A23F4E3
:1025400070031A43CA62896840F6FE62CFF61F72B2
:102550001140614509D10021E162A16A012262F3C3
:102560000101C8F80010BDE8F081A06A40F0100039
:1025700020F00200A06254F82C0F40F0010101206D
:10258000A046C8F80010BDE8F081000070B586B024
:10259000044640F60000C4F20100216800F5E05254
:1025A000002691420596CDE90366029601D006B059
:1025B00070BD41F21801C4F202010A6842F40072CF
:1025C0000A600A6802F400720192019A0A6842F0F5
:1025D00004020A60096801F00401019101990121D6
:1025E00002910321039102A900F076FC43F2943595
:1025F0000820C2F20005C4F202004FF40072C5E9DF
:10260000000605F1100080214FF400634FF0200C0C
:1026100080E80C102846C5E90261EE6100F0C8FBB5
:10262000002818BFFFF7CCFD25626C6206B070BDB4
:102630002DE9F0410546006842F60006C4F20106A5
:102640009046B0420F4605D042F20041C4F201016B
:1026500088420AD142F20440C4F20100006810F43A
:10266000702F1CBF0120BDE8F08195F824000128DF
:1026700004BF0220BDE8F081012085F8240028462F
:10268000FFF752FB044628B1002085F824002046BD
:10269000BDE8F08142F204402968AA6AC4F2010050
:1026A00040F601739A4300F57F7302F580729942F8
:1026B000AA6207D0A86A20F48010A8624868400582
:1026C00018D512E0026812F4702FF3D0AA6AB14252
:1026D00042F48012AA6205D042F20042C4F2010222
:1026E000914207D10068400504D5A86A012262F32F
:1026F0000D30A862AA6A0020D2044FF0000244BF45
:10270000EA6A22F00602EA6285F82400286A41F6A5
:10271000AD42C0F6000241F61D5341F6015600F1EC
:10272000280CC0F60003C0F600068CE84C006FF0E1
:1027300002020A608A68434642F480728A604C3121
:102740003A4600F07DFB2868816801F460228168C8
:10275000B2F5602F0CBF41F4A00141F480118160FB
:102760002046BDE8F081000010B5044690F8240032
:10277000012804BF022010BD012084F82400204657
:10278000FFF768FAB0B92268216A936823F480736E
:10279000936091F82120022A0CD1084600F01AF922
:1027A000A16A10B141F0400103E041F201129143EE
:1027B0000131A162002184F8241010BD704700008F
:1027C000704700007047000010B54379012B4FF0AF
:1027D00002031DD00371036802F0100ED3F800C08D
:1027E000D1E9004140F6FE7202FA0EF221432CEAD2
:1027F000020201FA0EF111431960C0211A6801FAB0
:102800000EF122EA010119600121002301714371D7
:10281000184610BD70470000704700007047000068
:10282000002804BF0120704710B50446007920B984
:1028300000206071204600F007F80220207100207F
:1028400001212061217110BDF0B585B0044647F229
:1028500000402168C4F2000000268142CDE90366F1
:102860000296019601D005B0F0BD41F21801C4F204
:1028700002014A68102742F000524A604A6800F597
:10288000144002F000520092009A0A6842F00402DA
:102890000A60096801F00401009100990321029186
:1028A00001A9019700F018FB43F2D83540F23040FF
:1028B000C2F20005C4F202004FF48072C5E90007BD
:1028C00005F1100080214FF480634FF0200C4FF48D
:1028D000405E80E80C502846C5E9026100F068FAC5
:1028E000002818BFFFF76CFCA5606C6205B0F0BD56
:1028F000F0B581B00446407901284FF0020067D05E
:102900000E460699012565712071F6B1E76842F21D
:1029100009152068C0F6000542F2551C42F2311E2E
:102920002837C0F6000CC0F6000E87E82050076874
:10293000082947F08057076026D0042927D00029AE
:102940000CBF00F11405002529E0A56842F2F90C3E
:1029500042F2491E42F219172068C0F6000CC0F678
:10296000000EC0F60007C5E90ACE2F6307680829E4
:1029700047F48057076010D004290BD000290CBF02
:1029800000F1080500250AE000F11C0507E000F150
:10299000180504E000F10C0501E000F110050C2021
:1029A000002E08BF0820205811462A4600F048FA99
:1029B0000021617118B104F11001042205E006F054
:1029C00010020123216803FA02F20B681A430A601D
:1029D00001B0F0BD014690F82100022813D108682B
:1029E000D1E90FC3026822F00E020260026822F0F1
:1029F00001020260012000FA03F2CCF8042081F801
:102A00002100002002E0042088630120002281F8D8
:102A10002020704780B590F82110022927D1026844
:102A200040F2040C1368C4F2020C23F00E0313608E
:102A300013680CF17C018A4223F0010111601AD95C
:102A400040F20841C4F202018A4247D040F21C41E0
:102A5000C4F202018A4245D040F23041C4F2020180
:102A60008A4243D14FF48073CCF8003457E00421FC
:102A70008163012080BD4321C4F202018A420EDD40
:102A80006B21C4F202018A421BDC4421C4F2020120
:102A90008A4239D05821C4F202018A4231E0082129
:102AA000C4F202018A4232D01C21C4F202018A42DD
:102AB00032D03021C4F202018A4222D14FF4807216
:102AC0002BE06C21C4F202018A4222D08021C4F2A0
:102AD00002018A4215D14FF080721EE00123CCF82A
:102AE00000341CE01023CCF8003418E00CF58861A9
:102AF0004FF480338A4208BF4FF48053CCF800343F
:102B00000DE04FF4803208E04FF4805205E00122DE
:102B100003E04FF4801200E01022CCF80020416B5B
:102B20004FF48072028401B18847002080BD00000C
:102B300010B5D0F800E0D0E90FC3DCF80020DEF8D3
:102B400000104C072ED504249C4014402AD0DEF8F7
:102B50000010890605D4DEF8001021F00401CEF83B
:102B600000100422C4F2020202F17C018E454DD90C
:102B700040F20841C4F202018E4500F0AA8040F202
:102B80001C41C4F202018E4500F0A78040F23041A2
:102B9000C4F202018E4540F0A4804FF48061C2F877
:102BA0000014EBE08C0746D502249C40144042D030
:102BB000DEF80010890608D4DEF8001021F00A01C2
:102BC000CEF80010012180F821100422C4F2020284
:102BD00002F17C018E4549D940F20841C4F202015C
:102BE0008E4500F0AB8040F21C41C4F202018E45DC
:102BF00000F0A88040F23041C4F202018E4540F05E
:102C0000A5804FF40071C2F80014C7E04321C4F25C
:102C100002018E453EDD6B21C4F202018E454BDC84
:102C20004421C4F202018E4500F09B805821C4F279
:102C300002018E4560E0090758BF10BD0821994088
:102C4000114012D0DEF8001021F00E01CEF8001075
:102C5000012101FA03F2CCF804208163016B4FF4E7
:102C600080720029028418BF884710BD4321C4F236
:102C700002018E4543DD6B21C4F202018E4550DC1A
:102C80004421C4F202018E457ED05821C4F20201D3
:102C90008E456EE00821C4F202018E4564D01C21ED
:102CA000C4F202018E4567D03021C4F202018E4584
:102CB00022D14FF4806160E06C21C4F202018E45A4
:102CC00054D08021C4F202018E4515D14FF08061AD
:102CD00053E00421C2F8001450E04021C2F800146F
:102CE0004CE002F588634FF480219E4508BF4FF405
:102CF0008041C2F8001441E04FF480213DE00821FA
:102D0000C4F202018E4542D01C21C4F202018E455C
:102D100042D03021C4F202018E452AD14FF4007115
:102D20003BE06C21C4F202018E4532D08021C4F216
:102D300002018E451DD14FF000712EE00221C2F834
:102D400000142BE02021C2F8001427E002F588636C
:102D50004FF400319E4508BF4FF40051C2F80014F3
:102D60001CE04FF4804108E0042106E04FF48001AC
:102D700003E04FF4003110E040211160C16A0029E6
:102D80003FF473AF884710BD4FF4005105E00221B6
:102D900003E04FF4001100E020211160816A00225D
:102DA000002980F820203FF460AF884710BD000064
:102DB000002804BF012070472DE9F04140F2000CCB
:102DC000C4F2020C01684FF6F8320CF58163CBF6C1
:102DD000FD72994238BF02F580624CF6CD430A4439
:102DE000CCF6CC43A2FB03236FF003050CF5806403
:102DF00005EA9303D0E9012ED0F80C803CBF0024F3
:102E0000C4F20204C0E90F430B6843F6F075AB430C
:102E10001A43D0E9045442EA0E0242EA0802D0E919
:102E200006672A43224332433A430A6000214FF4A3
:102E3000807281630284BDE8F0410846704700005B
:102E400010B5044690F82000012821D094F8210004
:102E50004FF0010C012884F820C016D1022084F81C
:102E600021000020A063D4F800C0DCF8000020F0AE
:102E70000100CCF800002046FFF78AF92068E26ADA
:102E800001683AB141F00E010AE0002084F8200008
:102E9000022010BD21F004010160016841F00A0127
:102EA00001602068016841F001010160002010BD4F
:102EB000B0B5044600F012F9054640F29620C2F281
:102EC00000000078611C18BF044400BF00F006F940
:102ED000401BA042FAD3B0BD2DE9F04F83B00C687F
:102EE000002C00F0EA80A0F18042A2F5843240F28A
:102EF000004E4FEAB22241F60047C4F2010E0092A2
:102F0000C4F20107062200254FF001094FF0000B23
:102F10004FF0000AB84208BF0522019209E000BF45
:102F20000C680BF1010B34FA0BF205F1040500F00B
:102F3000C48009FA0BF814EA080CF1D04C684FF67B
:102F4000FF72C1F21002944210DC122C50D8DFE85C
:102F500004F0330A41454F4F4F4F4F4F4F4F4F4FA4
:102F60004F4F4F484C00D1F80CA041E04FF6FF7294
:102F7000C1F2210294420FDC0022C1F211029442FC
:102F80001AD00022C1F21202944215D00022C1F2DE
:102F90002102944210D02BE00022C1F2220294427E
:102FA0000AD00022C1F23102944205D00022C1F2BF
:102FB000320294421CD100BF8C6844B1012C14BF72
:102FC000C0F81480C0F810804FF0080A10E04FF0ED
:102FD000040A0DE0CC6804F1080A09E04FF0000A89
:102FE00006E0CC6804F1040A02E0CC6804F10C0AA3
:102FF0002C460746BCF5807F24BF203C04373A6846
:103000000F2303FA04F6B2430AFA04F422433A60A7
:10301000CA79D2067FF584AF41F21804C4F20204E3
:1030200022684FF6084842F0010222602268CFF67B
:10303000FF7802F001020292029A2BF0030272441E
:1030400052F8084005F00C0603FA06F7009BBC4353
:10305000019F052B38BF1F4607FA06F6344342F896
:1030600008404C68E203DEF8002054BF22EA0C0757
:1030700042EA0C07A203CEF80070DEF8042054BF29
:1030800022EA0C0742EA0C07E202CEF80470DEF8EE
:10309000082054BF22EA0C0742EA0C07A20240F2C1
:1030A0000C44CEF80870C4F20104226854BF22EA2E
:1030B0000C0242EA0C02226032E703B0BDE8F08F56
:1030C000C26802EA0103914341EA0341016170478A
:1030D000002A08BF090401617047000043F65870D8
:1030E000C2F2000000687047F0B581B0B0B304468A
:1030F00090F83D0028B9002084F83C00204600F0FC
:1031000055F9242084F83D002068016821F0010170
:103110000160016841F400410160016821F400414F
:10312000016000F041FB48F28041C0F21E0140F610
:103130000012656888424FF00001C0F23D0248F27B
:10314000A16C4FF0000338BF01219042C0F2010C86
:1031500038BF0123654538BF0B4613B1012001B0CC
:10316000F0BD4DF68361C4F21B31A0FB0112216852
:103170004FEA924E4B684FF4967623F03F0343EAB2
:1031800092434B6044F6D3530F6A0EFB06F6C1F22E
:103190006203A6FB033627F03F03B709654538BF36
:1031A000970C7A1C1A430A62CA6948F2A0674CF667
:1031B000FF73C0F20107BD4222EA030C0AD80138AE
:1031C0006A00B0FBF2F001306FF31F30042898BFA3
:1031D00004202BE0A368A0F1010E9BB119206843E5
:1031E000BEFBF0F00422013062F31F30000512D064
:1031F0009BB119206843BEFBF0F00422013062F35A
:103200001F3011E005EB4500BEFBF0F001306FF31D
:103210001F300005ECD1012008E005EB4500BEFBA6
:10322000F0F001306FF31F3040F4004040EA0C0032
:10323000C8610868D4E9072320F0C0001043184390
:103240000860886848F2FF3204F10C0790438CCF85
:1032500018431043A6698860C86820F0FF0038430F
:103260003043C860086840F0010008600020202159
:10327000206484F83D10206384F83E0001B0F0BD66
:103280002DE9F04383B0994616460F460446FFF7F2
:1032900025FF94F83D1020290ED102210546C0F2E9
:1032A0001001204601221923009501F087FB18B96F
:1032B00094F83C00012803D1022003B0BDE8F0835C
:1032C0000121226884F83C101368DDE90B080A9993
:1032D000DB0703D1136843F001031360136823F481
:1032E00000631360212284F83D20402284F83E20B0
:1032F0000022226461626085608D3946208500204D
:10330000CFF6FF70E062204632464B46CDF8008093
:10331000019501F0C3FA30B3012003B0BDE8F0839A
:10332000204641462A4601F0C9FB28BB606A216855
:10333000034613F8012B0A61228D6362571E27850D
:10334000638D3F04A3F1010363854B6918BF13F03C
:10335000040308D0437802300B616062901E208520
:10336000608D01386085208D0028D9D120464146E6
:103370002A4601F0F3FA40B1206C0428CCD1206831
:10338000016841F400710160C6E72068016841F4FA
:1033900000710160202084F83D00002084F83E0088
:1033A00084F83C0003B0BDE8F083000010B586B09F
:1033B000016845F60000C4F2000081424FF00001B0
:1033C000CDE90411CDE9021101D006B010BD41F2E2
:1033D0001804C4F20204216800F5344041F00801E9
:1033E0002160216801F00801019101994FF44061C9
:1033F0000291122103910321059102A9FFF76CFDAF
:10340000606840F480006060606800F480000190B3
:10341000019806B010BD000040F2962043F65871A6
:10342000C2F20000C2F2000100780A68104408608D
:103430007047000080B542F20000C4F2020001684B
:1034400041F010010160032000F066F8002000F058
:1034500005F800F02BF8002080BD0000B0B540F268
:103460009622C2F2000240F2D4011278C2F20001A8
:103470004FF47A730968B3FBF2F20446B1FBF2F140
:10348000084600F06BFB0F2C4FF001050CD858B923
:103490004FF0FF3021460022002500F02DF840F2C9
:1034A0009820C2F2000004602846B0BD82B041F20C
:1034B0001800C4F202000168022241F0010101601B
:1034C000016801F0010101910199416841F08051C9
:1034D0004160406800F08050009000980420C4F2E1
:1034E0000100016862F31A61016002B070470000D8
:1034F00080B502F07FFB80BD70B514460D460646D0
:1035000002F088FB2946224601F032FD0146304692
:1035100002F088FB70BD000080B502F095FB80BD15
:103520002DE9F04182B00446007841F21C06C00744
:10353000C4F202064AD0306810F0805808D13068D2
:1035400040F080503060306800F080500190019869
:1035500047F20007C4F200073868C00512D4386883
:1035600040F480703860FFF7B9FD05463868C00543
:1035700008D4FFF7B3FD401B6428F7D9032002B03D
:10358000BDE8F081706810F4407012D0616801F4F9
:10359000407188420DD0706840F24042C4F242222D
:1035A000012320F4407113600023C0071360716091
:1035B00029D17068616820F440700843B8F1000FA9
:1035C000706003D1306820F080503060206881073F
:1035D00007D556F8181CA26821F44041114346F85B
:1035E000181CC00603D4002002B0BDE8F08156F8D4
:1035F000180C616920F48000084346F8180C00207C
:1036000002B0BDE8F081FFF769FD054641F2883759
:1036100070688007CDD4FFF761FD401BB8424FF0C2
:103620000300F5D9ECE700002DE9F04381B0002854
:1036300000F0898042F20008C4F202080446D8F87B
:1036400000000D4600F0070088420CD2D8F80000B8
:1036500020F007002843C8F80000D8F8000000F068
:103660000700A8426FD1206841F204098107C4F223
:10367000020917D5410705D5D9F8001041F4E061DA
:10368000C9F80010010705D5D9F8001041F46051C0
:10369000C9F80010D9F80010A26821F0F001114318
:1036A000C9F80010C00745D1D8F8000000F00700A5
:1036B000A8420CD9D8F8000020F007002843C8F829
:1036C0000000D8F8000000F00700A8423BD12068B5
:1036D000410707D5D9F80010E26821F4E0611143F1
:1036E000C9F80010000708D5D9F80000216920F4B6
:1036F000605040EAC100C9F8000000F079F8D9F83C
:10370000001046F6EC02C1F30311C0F60002515C52
:1037100040F2D40220FA01F140F29820C2F20000F7
:103720000068C2F200021160FFF798FE002001B0AD
:10373000BDE8F0836068022809D0012829D159F832
:10374000041C890307D4012001B0BDE8F08359F8B7
:10375000041C8901F7D5D9F8001021F003010843B2
:10376000C9F80000FFF7BAFC064641F2883700BFEF
:10377000D9F80000616800F00C00B0EB810F93D025
:10378000FFF7ACFC801BB842F2D9032001B0BDE8C2
:10379000F08359F8041C8907D5D5DCE740F2D40042
:1037A000C2F200000068704780B5FFF7F7FF41F2F2
:1037B0000401C4F20201096846F6FC02C1F30221C9
:1037C000C0F60002515CC84080BD000080B5FFF724
:1037D000E5FF41F20401C4F20201096846F6FC0269
:1037E000C1F3C221C0F60002515CC84080BD000098
:1037F00041F2040CC4F2020CDCF8003003F00C00BF
:10380000082841F20020C0F27A0018BF7047C3F3C5
:1038100083420AA18A5CD90305D440F60010C0F2A5
:103820003D0050437047DCF8001008A3C1F340414D
:10383000595C5043B0FBF1F0704700BF0203040530
:10384000060708090A0B0C0D0E0F101001020000EC
:103850002DE9F04182B0002800F0C48004460078D1
:1038600041F20006C007C4F2020643D0706800F0BF
:103870000C00042817D0706800F00C00082802D152
:103880007068C0030FD465682DB1B5F5A02F10D0B6
:10389000B5F5803F11D0306820F48030306030685A
:1038A00020F480200CE03068800323D5606808BBDA
:1038B00098E0306840F480203060306840F4803018
:1038C0003060FFF70BFC002D054610D030688003F8
:1038D00010D4FFF703FC401B6428F7D904E100BFB4
:1038E000FFF7FCFB401B64284FF0030077D83068DB
:1038F0008003F5D42078800718D5706810F00C0F7D
:1039000007D0706800F00C00082826D17068C0034A
:1039100023D43068800702D52069012862D130683D
:10392000616920F0F80040EAC100306020780007AB
:103930003DD5A06938B30020C4F242200121C0F86F
:103940008014FFF7CBFB0546706A80072DD4FFF784
:10395000C5FB401B0228F7D9C6E02069002840F2C9
:103960000000C4F2422000F0968001210160FFF7C0
:10397000B5FB054630688007D1D4FFF7AFFB401B8D
:103980000228F7D9B0E00020C4F242200021C0F89C
:103990008014FFF7A3FB0546706A800707D5FFF781
:1039A0009DFB401B0228F7D99EE001F007FC207820
:1039B00040071BD4E5698DB1706800F00C00082841
:1039C00047D1012D0ED07068216A00F480328A42FE
:1039D00008D1616A00F47010884203D1002002B05F
:1039E000BDE8F081012002B0BDE8F081F06910F07F
:1039F000805808D1F06940F08050F061F06900F023
:103A000080500190019847F20007C4F2000738681F
:103A1000C00510D4386840F480703860FFF75EFB52
:103A2000054600BF3868C00505D4FFF757FB401BAB
:103A30006428F7D958E0E5681DB1052D3CD0012D6B
:103A40003ED0306A20F001003062306A20F004007D
:103A500039E00027C4F2422700203866FFF73EFB1A
:103A6000022D05460CD100BF3068800154D5FFF708
:103A700035FB401B02284FF00300F5D9AFE700BF2C
:103A800030688001AAD5FFF729FB401B02284FF0C0
:103A90000300F5D9A3E700210160FFF71FFB0546EE
:103AA000306880077FF542AFFFF718FB401B022804
:103AB0004FF00300F4D992E7306A40F0040030621E
:103AC000306A40F001003062FFF708FB002D054628
:103AD00041F2883714D000BF306A800713D4FFF753
:103AE000FDFA401BB842F7D9032002B0BDE8F081CF
:103AF000FFF7F4FA401BB8424FF003003FF66FAFF8
:103B0000306A8007F4D4B8F1000F7FF453AFF06946
:103B100020F08050F0614DE7206AB0F5803F05D17C
:103B20007168A26821F40031114371607168626AA2
:103B300021F4741110430843706001203866FFF7C8
:103B4000CDFA0446306880013FF548AFFFF7C6FA6A
:103B5000001B02284FF00300F4D940E780B501F0C4
:103B6000E3FC80BD704700007047000010B590F87E
:103B70003C20012A4FF0020241D0012380F83C3062
:103B800080F83D200268D2F804E0D2F808C00C6842
:103B90002EF07003234340F6FF34C4F20004A24227
:103BA00053600FDCB2F1804F1ED040F20043C4F2EC
:103BB00000039A4218D040F60003C4F200039A4270
:103BC00012D016E040F60043C4F200039A420BD034
:103BD00043F20043C4F201039A4205D042F6004387
:103BE000C4F201039A4204D149682CF080031943BE
:103BF00091600121002280F83D1080F83C201046A1
:103C000010BD0000002804BF0120704710B5044615
:103C100090F83D0028B9002084F83C00204600F0D0
:103C20001FF8022084F83D002068211D01F0DAFC15
:103C3000012084F8460084F83E0084F83F0084F8B0
:103C4000400084F8410084F8420084F8430084F87E
:103C5000440084F8450084F83D00002010BD0000B9
:103C600080B584B0006840F60001C4F200018842CB
:103C700017D040F20041C4F20001884228D0B0F1D0
:103C8000804F23D141F21C00C4F20200016841F0D0
:103C900001010160006800F001000390039804B086
:103CA00080BD41F21C00C4F202000168002241F014
:103CB000040101600068002100F0040001900198F7
:103CC0001E20FFF719FC1E20FFF712FC04B080BD78
:103CD00041F21C00C4F20200016841F002010160DF
:103CE000006800F002000290029804B080BD00005D
:103CF00090F83D1001291CBF01207047022180F877
:103D00003D10006840F6FF31C4F2000188420FDC2C
:103D1000B0F1804F1ED040F20041C4F20001884251
:103D200018D040F60001C4F20001884212D018E019
:103D300040F60041C4F2000188420BD043F200413A
:103D4000C4F20101884205D042F60041C4F20101EB
:103D5000884206D1816801F00701062904BF0020CE
:103D60007047016841F001010160002070470000C8
:103D700090F83D1001291CBF01207047022180F8F6
:103D80003D10006840F6FF32C168C4F20002904264
:103D900041F00101C1600FDCB0F1804F1ED040F254
:103DA0000041C4F20001884218D040F60001C4F27C
:103DB0000001884212D018E040F60041C4F2000130
:103DC00088420BD043F20041C4F20101884205D081
:103DD00042F60041C4F20101884206D1816801F037
:103DE0000701062904BF00207047016841F0010166
:103DF000016000207047000010B5044690F83C00B8
:103E000001284FF0020008BF10BD012284F83C20B9
:103E100084F83D0020684FF6777382689A43826089
:103E20000A683F2A14DD5F2A18DD602A28D0B2F51F
:103E3000005F2DD0702A40D1D1E9012CCB686146BA
:103E400001F04EFC2068816841F07701816034E028
:103E50001F2A0FDC92B1102A10D02EE0402A23D066
:103E6000502A2AD14B68CA68194601F023FD206800
:103E7000502120E0202A01D0302A1ED111461AE01C
:103E80004B68CA68194601F027FD2068602112E0DE
:103E9000D1E9012CCB68614601F022FC20688168E1
:103EA00041F48041816008E04B68CA68194601F01E
:103EB00001FD2068402101F01FFC012084F83D0035
:103EC000002084F83C0010BD7047000010B5044687
:103ED00000680169890744BFC1685FEA817138D40D
:103EE00020680169490744BFC1685FEA41713CD459
:103EF00020680169090744BFC1685FEA017141D4C4
:103F000020680169C90644BFC1685FEAC16145D440
:103F100020680169C9071CBFC1685FEAC1714AD145
:103F200020680169090644BFC1685FEA016149D49C
:103F300020680169490644BFC1685FEA416148D40D
:103F400020680169890644BFC1685FEA816147D47E
:103F500010BD6FF0020101610121217780698007A6
:103F600045D02046FFF7B0FF47E06FF00401016144
:103F700002212177806910F4407F41D02046FFF76D
:103F8000A3FF43E06FF00801016104212177C069BC
:103F900080073ED02046FFF797FF40E06FF010010A
:103FA000016108212177C06910F4407F3AD0204692
:103FB000FFF78AFF3CE06FF001010161204600F04D
:103FC0009BF9ADE76FF0800101612046FFF7CAFD64
:103FD000AEE76FF040010161204600F0C5F9AFE7A0
:103FE0006FF0200101612046FFF7BEFD10BD2046A5
:103FF00000F04CF8204600F0C7F8002020776FE76B
:10400000204600F043F8204600F0BEF8002020775C
:104010006EE7204600F03AF8204600F0B5F80020A0
:1040200020776DE7204600F031F8204600F0ACF82C
:10403000002020776CE7000080B586B0016840F66C
:104040000000C4F2000081424FF00001CDE90411EC
:10405000CDE9021101D006B080BD41F21801C4F2D1
:1040600002010A6800F5823042F008020A6009681D
:1040700001F008010191019940210291022103916F
:10408000059102A9FEF728FF06B080BD7047000029
:10409000B0B5044690F83C00012804BF0220B0BD32
:1040A0004FEAB2000D460121032884F83C1036D8AF
:1040B000DFE800F0020A12222068294601F024FB02
:1040C000206850F8181F0EE02068294601F052FBC6
:1040D000206850F8181F16E02068294601F084FB7C
:1040E000206850F81C1F41F008010160016821F0B0
:1040F0000401016029690FE02068294601F0AEFB48
:10410000206850F81C1F41F400610160016821F42F
:104110008061016029690902026811430160002081
:1041200084F83C00B0BD0000002804BF01207047A7
:1041300010B5044690F83D0028B9002084F83C00F2
:10414000204600F01FF8022084F83D002068211D61
:1041500001F048FA012084F8460084F83E0084F813
:104160003F0084F8400084F8410084F8420084F85D
:10417000430084F8440084F8450084F83D000020A2
:1041800010BD0000704700007047000010B50446E5
:1041900041B1082909D0042914BF04F1410004F1F8
:1041A0003F0004E004F13E0001E004F1400000782B
:1041B00001281CBF012010BD022041B1082909D0EF
:1041C000042914BF84F8410084F83F0004E084F817
:1041D0003E0001E084F840002068012201F06EFA00
:1041E000206840F6FF31C4F20001884217DD40F636
:1041F0000042C4F20002904220D043F20043C4F2D5
:104200000103984205D042F60044C4F20104A042E2
:104210001BD1446C884244F4004444641BDCB0F17C
:10422000804F0BD040F20041C4F20001884205D01B
:1042300040F60001C4F20001884206D1816801F015
:104240000701062904BF002010BD016841F00101EB
:104250000160002010BD9042F0D09842EED042F6AE
:104260000041C4F201018842E8D0EEE7B0B504464F
:10427000006800220D4601F021FA206843F2004157
:10428000C4F20101884205D042F60041C4F20101A6
:1042900088420DD1016A41F21112114208D1016A1E
:1042A00040F24442114203D1416C21F40041416487
:1042B000016A41F21112114208D1016A40F24442EE
:1042C000114203D1016821F0010101600120082D94
:1042D00009D0042D0BD0002D14BF84F8410084F8C0
:1042E0003E000020B0BD84F840000020B0BD84F83E
:1042F0003F000020B0BD000010B543F2DC51C2F217
:1043000000010A8810097C2843F2F820C2F200005C
:1043100002D80378012B02D14FF6FF7300E001238E
:104320001A440A8091B243F24452C2F20002126867
:10433000B1F5FA6F516302D019B9002100E00121F3
:104340000170FDF73FFF43F24454C2F200042046DF
:10435000FFF70EFD20460021FFF788FF20460021D1
:10436000FFF714FF10BD0000704700007047000009
:1043700070470000B0B582B0016805460868CA6899
:104380004C6900F02F03202B02F0200305D123B14C
:10439000284601F0DDFA02B0B0BD5FEA007C1EBF26
:1043A00004F0010E02F4907414EB0E0424D12B6B74
:1043B0001040C20617D5012B15D1002001900868C6
:1043C0000190486801900198486940061CD4A88D66
:1043D000EA8DEB8D002B1CBF801A5FEA004240F093
:1043E0009A8002B0B0BD010636D44006F9D5284601
:1043F00001F0A2FA02B0B0BDC10718BF12F480717B
:104400002FD1410733D439E0A86B0268526893B2C8
:10441000002BE6D0AC8DA342E3D2EA858269202A44
:1044200016D0CA6822F48072CA604A6922F001027A
:104430004A614A6922F040024A61202285F83E2002
:1044400000222A63CA6822F01002CA60FEF7C2FA8C
:10445000A88DE98D401A6FE0284601F035FB02B0C7
:10446000B0BD296C41F001012964410706D5BEF1B8
:10447000000F03D0296C41F002012964810706D5A1
:10448000BEF1000F03D0296C41F004012964BCF196
:10449000000F06D55EEA030103D0296C41F0080144
:1044A0002964296C00299CD01040800602D528463A
:1044B00001F04EFA28684069296C00F0400001F0D4
:1044C0000801401820D0284601F020FA28684169E8
:1044D000490614D5416921F040014161A86B70B1D2
:1044E00045F6FD01C0F600014163FEF793FA00288E
:1044F0003FF477AFA86B416B884702B0B0BD284648
:10450000FFF736FF02B0B0BD2846FFF731FF0020AD
:10451000286402B0B0BDCA6822F49072CA604A69C9
:1045200022F001024A61202285F83E2000222A63FF
:10453000CA6822F01002CA6081B22846FFF716FF4F
:1045400002B0B0BD002804BF0120704710B504467A
:1045500090F83D0028B9002084F83C00204600F087
:1045600021F8242084F83D002068C16821F400511E
:10457000C160204601F046FA2068016921F49041AB
:104580000161416921F02A014161C16841F4005192
:10459000C16000202021206484F83D1084F83E1082
:1045A00010BD0000F0B585B040F600050446C4F229
:1045B0000105006805F54051002788420497CDE9C0
:1045C0000277019701D005B0F0BD41F21800C4F2A6
:1045D0000200016801AE41F480410160016801F40C
:1045E000804100910099016841F004010160006878
:1045F000314600F00400009000984FF400700190E4
:1046000002200290032004902846FEF765FC4FF438
:104610008060CDE90107284631460397FEF75CFC30
:1046200043F21C454420C2F20005C4F202001021EE
:10463000802285E883002846C5E90327C5E9057778
:10464000EF61FEF7B5FB002818BFFDF7B9FD252087
:104650000121002265636C62FEF74EFF2520FEF704
:1046600047FF05B0F0BD000010B590F83E30202B9C
:104670000BD100294FF0010418BF002A01D12046B8
:1046800010BD90F83C30012B01D1022010BD012358
:10469000002480F83C30046301F0FCF9204610BD92
:1046A000F0B581B041F20044C4F201042046042177
:1046B00001220125FEF70CFD43F2AD66C2F20006B1
:1046C000307830B943F25030C2F20000FEF74CF8B7
:1046D000357043F2DE51C2F2000143F2F0200A7855
:1046E000C2F200000078002A08BF24281AD0E2B1E4
:1046F00023281AD143F2E057C2F200073A6800209B
:104700000870107000F04AFCFDF78EFC43F2E4558F
:10471000C2F20005002004212A46102300F022FDE9
:104720003D6010E0012008700DE062B1A0F12301AE
:10473000022908D343F2E051C2F200010A68107066
:1047400008680130086043F28C50C2F20000806AB1
:10475000007890B92046042100220024FEF7B8FC1E
:1047600043F2503040F2A021C2F20000C2F2000138
:104770004FF480623470FDF75BFFFDF723FD01B05D
:10478000F0BD00002DE9F04381B0044690F83D00F3
:1047900020280BD10E4600294FF0010055D01746B6
:1047A000002A52D094F83C00012803D1022001B025
:1047B000BDE8F083012084F83C004FF0000921207F
:1047C0001D46C4F8409084F83D00FEF787FCA7849E
:1047D000E784A1680746B1F5805F07D1206900280A
:1047E0001CBF30464E46B046064601E04FF000087A
:1047F00084F83C9007E000BF16F8010B2168486080
:10480000E08C0138E084E08C80B1204680213A467B
:104810002B4601F083F980B9002EEDD138F8020B58
:1048200021686FF35F2048600026E9E720464021B9
:104830003A462B4601F072F918B1032001B0BDE8E9
:10484000F083202084F83D00002001B0BDE8F08313
:104850007047000041F20044C4F20104C820FEF792
:1048600027FB20460421FEF72BFCF7E7026851697D
:1048700049054FF000010FD56FF48063536120228A
:10488000016380F83D2080F83E10026C42F0040283
:10489000026480F83C100121084670472DE9F0437E
:1048A00083B0044600680D4601680A9F0B9E41F4E0
:1048B000807199469046016020464FF00111002218
:1048C0003B46009600F07AF850B120680068C005B9
:1048D00044BF4FF400702064032003B0BDE8F083B0
:1048E000206805F0FE0101610221C0F201012046AD
:1048F0003A46334600F09CF818B1012003B0BDE8F9
:10490000F08300200290206832464169029180695C
:10491000394602900298204600F0D0F840B1206C51
:104920000428EAD12068016841F400710160E4E7DD
:10493000B9F1010F0AD020684FEA18210161204621
:104940003946324600F0BAF80028E8D120685FFA0C
:1049500088F10161002003B0BDE8F083F0B581B0BB
:10496000044600684069400724D415460E464F1C93
:1049700004E000BF2068406940071BD42046FFF7D1
:1049800075FFA0B9002FF5D0FEF7A8FB16B1401BAC
:10499000B042EFD900202021206384F83D1084F834
:1049A0003E00216C41F02001216484F83C0001208C
:1049B00001B0F0BD002001B0F0BD00002DE9F047CE
:1049C000DDF820801D469146824601F47F078EB2B5
:1049D0005C1C00BFDAF80000B7F5803F14BF183048
:1049E000143000683040801BB0FA80F04009484520
:1049F0001BD1002CEED0FEF771FB1DB1A0EB08001F
:104A0000A842E7D900202021CAF830008AF83D10DA
:104A10008AF83E00DAF8401041F02001CAF8401050
:104A20008AF83C000120BDE8F0870020BDE8F0874F
:104A30002DE9F04104460068984643698FB203EAC5
:104A40000701B94202D10020BDE8F0814169490562
:104A500012D41646551C00BF35B1FEF73FFB16B306
:104A6000A0EB0800B0421ED8206841693940B94225
:104A7000E9D041694905EFD5016841F40071016051
:104A80006FF48061416100202021206384F83D1093
:104A900084F83E00216C41F00401216484F83C005C
:104AA0000120BDE8F08100202021206384F83D1022
:104AB00084F83E00216C41F02001EEE7F0B581B0B2
:104AC000044600684069000624D415460E464F1C73
:104AD00004E000BF2068406900061BD42046FFF7B1
:104AE000C5FEA0B9002FF5D0FEF7F8FA16B1401BAD
:104AF000B042EFD900202021206384F83D1084F8D3
:104B00003E00216C41F02001216484F83C0001202A
:104B100001B0F0BD002001B0F0BD000043F64870C8
:104B2000C2F2000040F204114B22C0F201110273E4
:104B30000222C0E90012427270470000B0B584B092
:104B400043F2503042F200410024C2F20000C4F2AD
:104B500001014FF4002201250394CDE901440473BF
:104B60000475C261C0E9001484600561FDF770FC42
:104B7000002818BFFDF724FB0220039043F25030B9
:104B8000C2F2000001A9CDE90145FDF739FB00287B
:104B900018BFFDF715FB04B0B0BD000010B582B022
:104BA00043F2803047F200410024C2F20000C4F218
:104BB0000001CDE900440160FDF732FE002818BF76
:104BC000FDF7FEFA2420CDE9000443F28030C2F262
:104BD000000069460022FDF7F7FD002818BFFDF729
:104BE000EFFA02B010BD000080B582B041F21400AF
:104BF000C4F202000168002241F002010160016874
:104C000001F0020101910199016841F00101016087
:104C10000068002100F00100009000980B20FEF7D2
:104C20006BFC0B20FEF764FC0E2000210022FEF737
:104C300063FC0E20FEF75CFC3A2000210022FEF708
:104C40005BFC3A20FEF754FC02B080BD2DE9F04732
:104C500086B0002741F21800CDE90477CDE902774C
:104C6000C4F20200016840F6000541F01001016045
:104C70000168C4F2010501F0100101910199016878
:104C8000002241F02001016001684FF4807801F0BA
:104C9000200101910199016841F00401016001685E
:104CA00001F0040101910199016841F008010160DE
:104CB00000684FF4807100F00800019001982846C8
:104CC000FEF706FA05F540642046042100224FF065
:104CD0000409FEF7FDF942F2020002AECDE9020737
:104CE00005F5006031460497FEF7F6F8CDF8088028
:104CF0004FF001084FF0020A28463146CDE90387FC
:104D0000CDF814A0FEF7E8F820463146CDE9029828
:104D1000CDE9047AFEF7E0F806B0BDE8F0870000C0
:104D200080B543F2604045F60001C2F20000C4F2D3
:104D3000000148F2A06200234FF4804CC0F201024F
:104D400080E80E00C0E9033CC0E90533C0E9073341
:104D5000FEF7CAF9002818BFFDF732FA80BD00003F
:104D600080B586B043F2B4400021C2F200004FF09B
:104D7000130CCDE90411CDE90211CDE900114FF07A
:104D800080424723C0E9021C01618021C0E9002361
:104D90008161FEF737FF002818BFFDF711FA4FF4C5
:104DA0008050029043F2B440C2F2000002A9FFF723
:104DB00023F8002818BFFDF703FA202000900020F8
:104DC000019043F2B440C2F200006946FEF7CEFE05
:104DD000002818BFFDF7F4F906B080BD80B586B095
:104DE00043F2FC400021C2F2000040F200424FF0CA
:104DF000630CCDE90411CDE90211CDE90011C4F233
:104E000000024723C0E9021C01618021C0E90023A0
:104E10008161FEF7F7FE002818BFFDF7D1F94FF4C6
:104E20008050029043F2FC40C2F2000002A9FEF75B
:104E3000E3FF002818BFFDF7C3F9202000900020F1
:104E4000019043F2FC40C2F200006946FEF78EFE7C
:104E5000002818BFFDF7B4F906B080BD10B58EB0BC
:104E600043F244500021C2F2000040F600024FF429
:104E7000FA640D91CDE90B11CDE90911CDE90711C6
:104E8000CDE90511CDE90311CDE90111C4F200020C
:104E90004723C0E9021401618021C0E90023816138
:104EA000FEF7B0FE002818BFFDF78AF94FF48050D6
:104EB0000A9043F24450C2F200000AA9FEF79CFF98
:104EC000002818BFFDF77CF943F24450C2F20000FD
:104ED000FFF72AF9002818BFFDF772F943F2445092
:104EE0000024C2F2000008A9CDE90844FEF73EFE06
:104EF000002818BFFDF764F9602001904FF4C870D6
:104F0000CDE9020443F24450C2F2000001A900229C
:104F10000594FFF7BDF8002818BFFDF751F943F2DB
:104F20004450C2F20000FFF787F80EB010BD000039
:104F300080B543F28C5043F60001C2F20000C4F287
:104F4000010100234FF00C0C4FF4165280E80E00C4
:104F5000C0E90333C0E905C3C361FFF7F3FA0028D2
:104F600018BFFDF72DF980BDFEE700007047000077
:104F700000F0070080F00703042B28BF04234FF044
:104F8000FF3C03380CFA03F338BF002099438140FB
:104F90000CFA00F022EA000008437047B0B5002484
:104FA00004F1B0000021002500F0FCF800200021F1
:104FB00000F0F8F81020002100F0F4F800200121A2
:104FC00000F0F0F8681C45B2B5F1FF3FF6DC0134A3
:104FD000082C08BFB0BDE3E780B5AE20002100F08B
:104FE000E1F80020002100F0DDF81020002100F0A1
:104FF000D9F84020002100F0D5F8B020002100F0C1
:10500000D1F88120002100F0CDF8FF20002100F030
:10501000C9F8A120002100F0C5F8A620002100F069
:10502000C1F8A820002100F0BDF83F20002100F0C9
:10503000B9F8C820002100F0B5F8D320002100F015
:10504000B1F80020002100F0ADF8D520002100F0DB
:10505000A9F88020002100F0A5F8D820002100F058
:10506000A1F80520002100F09DF8D920002100F0D2
:1050700099F8F120002100F095F8DA20002100F0E5
:1050800091F81220002100F08DF8DB20002100F0C3
:1050900089F83020002100F085F88D20002100F0F3
:1050A00081F81420002100F07DF8AF20002100F0ED
:1050B00079F880BD10B5044601F1B000002100F080
:1050C00071F820091030002100F06CF804F00F0096
:1050D000002100F067F810BD2DE9F0410D460446AF
:1050E00040B210271F2A88BF6FF01F07002844BF57
:1050F00002350024E9B2204698461646FFF7DAFF4B
:10510000B8F1100F22D1B81946F60411C0B2C0F69A
:10511000000101EB00164FF0FF3700BFF019407897
:10512000012100F03FF80137072FF7D1681CC1B209
:105130002046FFF7BFFFF41D082500BF14F8010F3C
:10514000012100F02FF8013DF8D109E0002400BF53
:105150000020012100F026F8052C04F10104F7D30A
:10516000BDE8F0812DE9F04115461278002A08BF0C
:10517000BDE8F08198460E4607460024F8B2F1B229
:10518000D2B24346FFF7A8FF0837F8B201347828B7
:10519000E0B288BF02362A5C88BF0027002AEDD122
:1051A000BDE8F08180B5C0B211B100F00BFD80BD4B
:1051B00000F0F0FC80BD00007047000081B040F2BC
:1051C000D400C2F20000006844F6D351C1F262017B
:1051D000A0FB0101480A009000BF0098411E002872
:1051E0000091F9D101B07047704700002DE9F047F8
:1051F00043F64879C2F2000999F80810022938D11B
:1052000043F27878C2F2000804464FF0000A46469E
:105210004FF0FF356F1C3846FCF7DEF92146FCF7EE
:10522000BFF9002818BF64207119632F3D464870EC
:10523000F0D10AF1010ABAF1040F06F16406E7D1D0
:1052400099F8030001283AD143F28C54C2F20004C9
:1052500046F6F461C0F6000120460F223223FFF724
:1052600091FA43F27871C2F2000120464FF4A57220
:1052700017E099F80300012832D143F28C54C2F2AE
:10528000000446F6F461C0F6000120460F223223E6
:10529000FFF778FA40F2E801C2F2000120464FF42D
:1052A000A0726423FFF76EFA46F60E71C0F6000195
:1052B000204603220A23FFF765FABDE8F08746F689
:1052C0000474A8F101054FF4C876C0F6000400BFCD
:1052D00015F8011F204600F04BFE013EF8D120E0FA
:1052E00043F28C5043F66031C2F20000C2F200017A
:1052F0004FF4A0724FF4C8734FF4A075FFF742FA51
:1053000040F2E800C2F2000046F60474461EC0F601
:10531000000400BF16F8011F204600F029FE013DE1
:10532000F8D1BDE8F0870000F0B581B01E46174601
:105330000D46FCF780F943F2B424C2F200040246A1
:105340000B461AA1204600F023FE40F2DC00C2F218
:10535000000050F8262043F2C826C2F2000618A129
:10536000304600F015FE3846FCF765F943F2A027F9
:10537000C2F2000702460B4615A1384600F008FEAF
:105380002846FCF758F943F2DC25C2F20005024634
:105390000B4614A1284600F0FBFD17A0214632461B
:1053A0003B46009500F0E4FD01B0F0BD7431322EB3
:1053B0007478743D22252E336622FFFFFF00000023
:1053C0007431342E7478743D22256422FFFFFF006F
:1053D0007431332E7478743D22252E336622FFFFFC
:1053E000FF0000007431352E7478743D22252E3371
:1053F0006622FFFFFF0000002573257325732573C8
:10540000000000002DE9F04743F64875C2F20005A0
:10541000E878012827D16C78287B4FF4C87195F87B
:105420000280B1FBF4F743F2787540F2A02AA0F1B4
:105430004B090026C2F20005C2F2000A05E000BFD7
:10544000BE4206F10106254447D0002CF8D05AF898
:1054500026002146800900FA08F04844C2B22846D6
:10546000FBF772FFECE743F28C5043F66031C2F277
:105470000000C2F200014FF4A0724FF4C8734FF461
:10548000C878FFF77FF940F2A02946F60474002798
:10549000C2F20009C0F6000409E000BF6878B8FB5A
:1054A000F0F0874207F1010728BFBDE8F087687870
:1054B0000028F3D0002600BF59F82700A9788009FA
:1054C0002A7B884010444B38C1B2204600F050FD82
:1054D000687801368642EFD3E0E743F28C54C2F29B
:1054E00000040DA120460F223223FFF74BF943F2AF
:1054F0007871C2F2000120464FF4C8726423FFF7AE
:1055000041F946F60E71C0F60001204603220A2337
:10551000FFF738F9BDE8F0876164647420312C30FE
:105520002C343030FFFFFF00B0B501380024B4EB5D
:10553000106F1CBF0120B0BD4EF21005CEF2000569
:1055400068604FF0FF300F2100F06CFB0720AC606B
:1055500028602046B0BD000080B5FDF75DFF80BD2E
:1055600070B596B00CAC20462821FBF7F4FE012064
:105570000C9010904FF4E01000254FF4803102267B
:10558000159020460B95CDE90955CDE90755CDE994
:105590000555CDE90355CDE90155CDE90D15CDE909
:1055A0001361FEF755F90F20CDE907064FF480602F
:1055B000CDE90A0507A802210995FEF735F84FF451
:1055C0000040039001A80196FDF7AAFF16B070BD38
:1055D0007047000080B543F24450C2F20000FEF76D
:1055E00075FC80BD10B540F6FF3E0368C4F2000EA6
:1055F00043F2004C7045C4F2010C20DCB0F1804F46
:105600002BD040F20042C4F20002904225D040F676
:105610000002C4F2000290421FD0704523DCB0F1BA
:10562000804F2ED040F20042C4F20002904228D0B7
:1056300040F60002C4F20002904222D025E040F67B
:105640000042C4F20002904207D0604505D042F605
:105650000042C4F201029042DFD14A6823F0700395
:1056600013437045DBDD40F60042C4F20002904275
:1056700007D0604505D042F60042C4F201029042D4
:1056800003D1CA6823F44073134323F080024B69AB
:10569000D1F800E08C681A4360450260C462C0F82B
:1056A00028E005D042F60042C4F20102904201D146
:1056B000096901630121416110BD000080B501F05D
:1056C0001F014FF0010CD0F820E00CFA01F32EEA94
:1056D00003030362036A02FA01F11943016280BD08
:1056E000D0F808C011432CF47F4C41EA032141EA71
:1056F0000C01816070470000826822F07002114343
:1057000041F007018160704770B5026A43F20045BD
:1057100022F001020262026A4368D0F818E08C6845
:1057200022F00202D1F800C02243C4F2010542F681
:105730000044A842C4F2010401D0A04205D1CE68C1
:1057400022F00C0226F004063243A84201D0A04207
:1057500005D1D1E9054523F4407323432B432EF0B3
:10576000730646EA0C06436086614968416302623B
:1057700070BD0000F0B5026A43F2004522F010024D
:105780000262036A4268D0F818C08C6823F02003D4
:10579000D1F800E043EA0413C4F2010542F60044E4
:1057A000A842C4F2010401D0A04207D1CE686FF034
:1057B000400723F0C00307EA06163343A84201D08E
:1057C000A04207D1D1E9054522F4406242EA8402B1
:1057D00042EA85022CF4E64747EA0E2742608761D9
:1057E000496881630362F0BDF0B5026A43F2004587
:1057F00022F480720262036A4268D0F81CC08C688E
:1058000023F40073D1F800E043EA0423C4F2010555
:1058100042F60044A842C4F2010401D0A04207D1DC
:10582000CE6840F2FF47360223F44063BE43334361
:10583000A84201D0A04207D1D1E9054522F4405247
:1058400042EA041242EA05122CF0730747EA0E07F7
:105850004260C7614968C1630362F0BDB0B5026AC6
:1058600043F2004522F480520262026A4368D0F893
:105870001CE00C68D1F808C0C4F20105A84205D0AC
:1058800042F60045C4F20105A84204D14D6923F453
:10589000804343EA85132EF4E64545EA0425436038
:1058A000C56122F40052496842EA0C320164026286
:1058B000B0BD0000D0F820C0036A23F001030362EA
:1058C000836923F0F00343EA02122CF00A03194320
:1058D0008261016270470000036A23F010030362D3
:1058E0008369D0F820C023F4704343EA02322CF0DD
:1058F000A00343EA011182610162704780B5406AEA
:105900000021C185C184FEF733FD80BD0168CA68EE
:1059100022F49072CA604A6922F001024A61026B65
:10592000012A03D1CA6822F01002CA60202180F83F
:105930003E1000210163704780B50168CA6822F0FB
:105940004002CA60202180F83D10FEF781FF80BD33
:1059500080B582B090F83E1022291ED18268B2F53F
:10596000805F02D10169002940D0816AB2F5805F71
:1059700007D00AB9026922B10268526802F07F02B8
:1059800001E0026852680A700121826A1144816252
:10599000C18D01390A04C18501D002B080BD016802
:1059A000CA6822F02002CA60CA6822F48072CA6003
:1059B0004A6922F001024A61202280F83E20026BEF
:1059C000012A1BD100220263CB6823F01003CB60B5
:1059D0000B68DB0605D501920A68019249680191BE
:1059E0000199818DFEF7C2FC02B080BD0168826A18
:1059F00049686FF35F2111800221C6E7FEF750FE70
:105A000002B080BD10B504460068D4E902C2236923
:105A1000016921F4405111430161616943EA0C02BB
:105A20001143C26841F20C639A431143C16041695A
:105A3000A26921F44071114343F60002C4F201024D
:105A40009042416102D0FDF7AFFE01E0FDF7BEFEDE
:105A50006268192148439100B0FBF1F048F21F51F0
:105A6000C5F2EB11A0FB01235A096FF0630302FB9F
:105A70000300322303EB0010A0FB0101F02303EA33
:105A80005113206803EB0212C1F3431111448160EA
:105A900010BD000081628285C2850021222201643E
:105AA00080F83E20026880F83C10D06840F4807096
:105AB000D060506940F001005061D06840F0200192
:105AC0000020D1607047000090F83D10212923D1BB
:105AD0008168B1F5805F01D1016931B1016A026865
