:020000040800F2
:10000000C0610020450100087D470008114100083B
:1000100079470008211D0008894E000800000000F3
:10002000000000000000000000000000ED49000892
:10003000F91D000800000000BD490008214A000821
:100040005F0100085F0100085F0100085F01000810
:100050005F0100085F0100085F0100085F01000800
:100060005F0100085F0100085F0100088D1D0008A6
:100070005F0100085F0100089D1D00085F01000886
:100080005F010008AD1D00085F0100085F01000866
:100090005F0100085F0100085F0100085F010008C0
:1000A0005F0100085F0100085F0100085F010008B0
:1000B0005F0100085F0100085F0100085F010008A0
:1000C0005F0100085F0100085F0100085F01000890
:1000D0005F010008694E0008794E00085F010008C2
:1000E0005F0100085F0100085F0100085F01000870
:1000F0005F0100085F0100085F0100085F01000860
:100100005F0100085F0100085F0100085F0100084F
:100110005F0100085F0100085F0100085F0100083F
:100120005F0100085F010008BD1D00085F010008B5
:10013000DFF80CD001F0FCFC004800472950000813
:10014000C06100200648804706480047FEE7FEE7FA
:10015000FEE7FEE7FEE7FEE7FEE7FEE7FEE7FEE777
:10016000994A0008310100082DE9F04F4FF0000CCA
:100170004FF0000301EB9C5EBEF90250BEF9004057
:100180000EF5806EBEF90290BEF900800EF5806E0D
:10019000BEF90270BEF900600EF5806EBEF902B0C5
:1001A000BEF900A00EF5806ED044D944A8EB4A0AEF
:1001B000A9EB4B0B4FEAA4044FEAA50504EBA604F8
:1001C00005EBA705A4EB6606A5EB670704EBA804FF
:1001D00005EBA905A4EB6808A5EB690906EBAB06DE
:1001E000A7EBAA07A6EB6B0B07EB6A0A458020F882
:1001F000044B478020F8046BA0F8029020F8048B91
:10020000A0F802A020F804BB03F1010393FAA3FCB9
:10021000B3F5807FAED1A0EB82014FF0100312093D
:100220000FF2341000F1000006B403EB430C6144FC
:10023000A2F5803202EB8332B1F90250B1F90040ED
:10024000A1EB0301B0F902B0B0F900A000F1040085
:10025000A5EB040E0EFB0BFC0AEB4B0E05FB0ACBC9
:1002600004FB0ECAB1F90250B1F90040A1EB030141
:10027000B0F90290B0F9008000F10400A5EB040E83
:100280000EFB09FC08EB490E05FB08C904FB0EC870
:10029000B1F90250B1F90040A1EB0301B0F90270CD
:1002A000B0F9006000F10400A5EB040E0EFB07FCA2
:1002B00006EB470E05FB06C704FB0EC6B1F902505C
:1002C000B1F9004001F10001D044D944A8EB4A0A39
:1002D000A9EB4B0B4FEAA4044FEAA50504EB264417
:1002E00005EB2745A4EBE636A5EBE73704EB2844FE
:1002F00005EB2945A4EBE838A5EBE93906EB2B46DD
:10030000A7EB2A47A6EBEB3B07EBEA3A4D800C80C4
:1003100019444F800E801944A1F80290A1F8008082
:100320001944A1F802A021F804BBB2F5803283DAA7
:1003300003EB430C6144A2F101025FEA024E18BFD5
:10034000A0EB0C007FF476AF06BC4FEA8303920863
:100350007FF46AAFBDE8F08F00400000004000006D
:10036000004000005DDD213BA3227E180000412DEE
:100370007EA5412D0000412D00C000405DDD82E7DB
:100380005DDD213B7EA5412D0040000000400000C6
:1003900000400000AA2A94126B39460649327C0CB0
:1003A000A8118E2349327C0CA3227E1821F77931C3
:1003B000AA2A9412A8118E235DDD213BA3227E1868
:1003C0000000412D95C6B13F461A2B1E58EE373519
:1003D000BEB4C53EA8118E235DDD213B63A97138F3
:1003E000DF089A28B7CDC53E7EA5412D0000412DDE
:1003F00000C0004063A92B1E21F77931BEB4C53E71
:10040000BEB47C0C58EE373561AC213B95C6BAF9C9
:10041000BAE571383BA737355DDD82E75DDD213B0D
:100420007EA5412D21F766D756D53F3D3BA78E23AC
:10043000A811C9CAB7CDC53E61AC7E18AA2AC1C2EF
:1004400095C6B13FBEB47C0C0040000000400000E7
:10045000004000001E3BB504693E9201C83C2403E5
:10046000EB356409C83C24036B3946066C30060E34
:100470001E3BB504EB356409AA2A94126B39460673
:1004800049327C0CAE240917AF37D607882E8D0F62
:100490007E1E5D1BEB356409AA2A941224188C1F5A
:1004A0001E34F10AB3269015A8118E2349327C0C14
:1004B000A3227E18140B60276C30060E7E1E5D1B77
:1004C0007104FB2A882E8D0F461A2B1EC7FD5A2E4B
:1004D0009D2C1211FE15E72021F77931AA2A9412DA
:1004E000A8118E2387F05334B2281314480D202608
:1004F00002EAE536B3269015DF089A289CE32B39EB
:10050000AE2409177104FB2A5DDD213BA3227E186E
:100510000000412D4ED7C53C9320EF198FFB6C2F67
:1005200078D1153E7E1E5D1B21F77931E2CB0F3F5E
:10053000641CC61CB8F2683395C6B13F461A2B1E20
:1005400058EE373597C1FB3F24188C1F02EAE53679
:10055000F0BCEC3FFE15E720BAE57138A6B8853F40
:10056000D5133D2282E1DB39BEB4C53EA8118E23EE
:100570005DDD213B40B1AF3D790FDA244DD9423CDE
:100580002EAE423C480D202656D53F3D8EAB823ADA
:10059000140B602778D1153E63A97138DF089A28BB
:1005A000B7CDC53EB1A71236A906CE2915CA4F3F11
:1005B00078A668337104FB2A95C6B13FBCA5763096
:1005C0003902212C38C3EC3F7EA5412D0000412D7E
:1005D00000C00040BCA5CE29C7FD5A2EF0BCEC3FA0
:1005E00078A620268FFB6C2F09BAB13FB1A73D2218
:1005F00057F976304DB74F3F63A92B1E21F779315C
:10060000BEB4C53E8EABEF19ECF474325EB2153E4B
:100610002EAE9015B8F268332DB03F3D40B11211A7
:1006200087F053342EAE423CBEB47C0C58EE3735C6
:1006300061AC213BA6B8D6072BEC1236C8AADB3931
:10064000F0BC240302EAE53663A9713897C16EFE57
:10065000DCE7B03734A8E53695C6BAF9BAE57138A3
:100660003BA73735E2CB0FF59CE32B3978A66833EF
:1006700078D173F082E1DB39EDA579314ED7EDEB1E
:100680006DDF823A99A56C2F5DDD82E75DDD213B50
:100690007EA5412D9CE33AE352DBB63B99A5FB2AAC
:1006A00002EA19DF4DD9423CEDA59A2887F026DBF6
:1006B0004ED7C53C78A6202621F766D756D53F3DB4
:1006C0003BA78E23C7FDDFD363D3AF3D34A8E7201C
:1006D000710494D078D1153E63A92B1E140B8CCDD8
:1006E00094CF723EC8AA5D1BA811C9CAB7CDC53E3A
:1006F00061AC7E18241850C8E2CB0F3F2EAE901587
:100700007E1E25C615CA4F3F2DB09412AE244AC492
:1007100051C8853F5EB28D0FAA2AC1C295C6B13FAE
:10072000BEB47C0C6C308EC1E2C4D43F4DB76409BA
:10073000EB35B1C038C3EC3F09BA46061E3B2CC0AE
:1007400097C1FB3FF0BC24030040000000400000C4
:1007500000400000D03E2E019B3F6500363FC9009F
:100760009A3D5B02363FC900693E92015F3C8803B7
:10077000D03E2E019A3D5B021E3BB504693E9201BC
:10078000C83C2403D939E205023EF701F43BED03EE
:100790008E380E079A3D5B021E3BB5043F37390881
:1007A000313DC002463A7E05EB356409C83C24035E
:1007B0006B39460692348E0A5F3C88038E380E07EA
:1007C0003433B70BF43BED03AF37D607D231DF0C30
:1007D0008A3B5104CE369D086C30060E1E3BB50494
:1007E000EB356409022F2B0FB23A1A0505352B0A97
:1007F000932D5010463A7E051E34F10A212C7311B8
:10080000D939E2053433B70BAA2A94126B3946065C
:1008100049327C0C3129B413FD38AA065B31410DF5
:10082000B327D2148E380E076C30060E3226EE1522
:100830001F3872077B2FCA0EAE240917AF37D607B1
:10084000882E8D0F262321183F373908932D5010FD
:100850009C213719CE369D089D2C12110E204B1A63
:100860005D360109A42BD3117E1E5D1BEB35640997
:10087000AA2A9412EB1C6C1C7835C709AF295413B3
:10088000561B791D05352B0AB2281314BE19841E78
:1008900092348E0AB327D21424188C1F1E34F10A06
:1008A000B326901588169120A933540BB1254C1608
:1008B000EA1493213433B70BAE2409174A1392225A
:1008C000BF321A0CA923C417A8118E2349327C0CFD
:1008D000A3227E1805108824D231DF0C9C21371901
:1008E000610E7E255B31410D9320EF19BB0C712603
:1008F000E430A40D891FA71A140B60276C30060E74
:100900007E1E5D1B6D094C28F42F680E721D121C93
:10091000C40735297B2FCA0E641CC61C1B061A2A65
:10092000022F2B0F561B791D7104FB2A882E8D0F69
:10093000461A2B1EC702D82B0E2EEE0F3519DC1EC1
:100940001C01B22C932D501024188C1F72FF882D7F
:10095000182DB11011173A20C7FD5A2E9D2C1211D7
:10096000FE15E7201DFC282F212C7311EA1493217A
:1009700073FAF22FA42BD311D5133D22CAF8B83045
:10098000282B3412BF12E72221F77931AA2A9412B8
:10099000A8118E2379F536322D2AF41291103524C0
:1009A000D2F3EF32AF295413790FDA242CF2A333A8
:1009B0003129B413610E7E2587F05334B228131405
:1009C000480D2026E3EEFF34332873142E0CC12685
:1009D00041EDA535B327D214140B6027A1EB48369F
:1009E00033273115FA09FE2702EAE536B3269015BA
:1009F000DF089A2865E87E373226EE15C4073529C8
:100A0000CBE61238B1254C16A906CE2932E5A1381D
:100A10002F25AB168D05652A9CE32B39AE240917CB
:100A20007104FB2A08E2B0392B24661755038F2B7B
:100A300077E0303AA923C4173902212CE9DEAB3A1A
:100A4000262321181C01B22C5DDD213BA3227E1838
:100A50000000412DD5DB923B1F22DB18E4FECF2D99
:100A60004FDAFD3B9C213719C7FD5A2ECDD8643C87
:100A700017219319ABFCE42E4ED7C53C9320EF19F8
:100A80008FFB6C2FD3D5213D0E204B1A73FAF22F1A
:100A90005CD4783D891FA71A57F97630E8D2C93D52
:100AA000041F021B3CF8F93078D1153E7E1E5D1BF9
:100AB00021F779310CD05C3EF81DB81B06F6F831F1
:100AC000A5CE9D3E721D121CECF4743241CDD83E71
:100AD000EB1C6C1CD2F3EF32E2CB0F3F641CC61C44
:100AE000B8F2683388CA403FDD1B201D9FF1DF3319
:100AF00032C96B3F561B791D87F05334E1C7913FD4
:100B0000CE1AD31D6FEFC63495C6B13F461A2B1EC1
:100B100058EE37354EC5CC3FBE19841E41EDA53584
:100B20000CC4E13F3519DC1E2BEC1236CFC2F13F6D
:100B3000AD18341F16EB7D3697C1FB3F24188C1F70
:100B400002EAE53665C000409B17E31FEFE84B372C
:100B500038BFFF3F11173A20DCE7B03711BEF83F2E
:100B600088169120CBE61238F0BCEC3FFE15E7204A
:100B7000BAE57138D4BBDB3F74153D21AAE4CF3808
:100B8000BFBAC43FEA1493219CE32B39AFB9A73F06
:100B90005F14E8218EE28439A6B8853FD5133D2243
:100BA00082E1DB39A2B75D3F4A13922277E0303A07
:100BB000A5B6303FBF12E7226DDF823AAFB5FD3EEA
:100BC00034123B2364DED33ABEB4C53EA8118E2353
:100BD0005DDD213BD5B3883E1D11E22357DC6D3B23
:100BE000F2B2453E9110352452DBB63B15B2FC3DC6
:100BF000051088244FDAFD3B40B1AF3D790FDA2470
:100C00004DD9423C71B05B3DED0E2C254DD8853C55
:100C1000A9AF033D610E7E254ED7C53CE8AEA53C8D
:100C2000D40DCF2551D6033D2EAE423C480D202693
:100C300056D53F3D7BADDA3BBB0C71265CD4783D8D
:100C4000D0AC6D3B2E0CC12663D3AF3D2BACFA3A32
:100C5000A10B11276DD2E33D8EAB823A140B6027B6
:100C600078D1153EF8AA063A870AAF2785D0453EC7
:100C70006AAA8439FA09FE2794CF723EE3A9FD38A7
:100C80006D094C28A5CE9D3E63A97138DF089A28CE
:100C9000B7CDC53EEBA8E1375208E728CCCCEB3EF8
:100CA0007BA84B37C4073529E2CB0F3F12A8B136DA
:100CB00036078129FBCA303FB1A71236A906CE29D3
:100CC00015CA4F3F57A76E351B061A2A32C96B3F0C
:100CD00005A7C6348D05652A51C8853FBBA61934C2
:100CE000FF04B02A72C79C3F78A668337104FB2AC0
:100CF00095C6B13F3EA6B232E303452BBAC5C43F09
:100D00000BA6F83155038F2BE2C4D43FE0A539314F
:100D1000C702D82B0CC4E13FBCA576303902212C88
:100D200038C3EC3FA1A5AF2FAA016A2C66C2F53FDC
:100D30008DA5E42E1C01B22C97C1FB3F81A5152E79
:100D40008E00FA2CCAC0FF3F7EA5412D0000412D28
:100D500000C0004081A56A2C72FF882D38BFFF3F7C
:100D60008DA58F2BE4FECF2D73BEFB3FA1A5B02A2E
:100D700056FE152EB0BDF53FBCA5CE29C7FD5A2E97
:100D8000F0BCEC3FE0A5E72839FD9F2E32BCE13FE7
:100D90000BA6FE27ABFCE42E77BBD43F3EA6112763
:100DA0001DFC282FBFBAC43F78A620268FFB6C2FCE
:100DB00009BAB13FBBA62C2501FBAF2F56B99C3F0A
:100DC00005A7352473FAF22FA6B8853F57A73B2312
:100DD000E5F93430F8B76B3FB1A73D2257F97630CB
:100DE0004DB74F3F12A83D21CAF8B830A5B6303FE5
:100DF0007BA83A203CF8F93000B60F3FEBA8341F2F
:100E0000AEF739315EB5EB3E63A92B1E21F7793180
:100E1000BEB4C53EE3A9201D93F6B93122B49D3E70
:100E20006AAA121C06F6F83188B3723EF8AA021BB1
:100E300079F53632F2B2453E8EABEF19ECF47432EE
:100E40005EB2153E2BACDB185FF4B232CDB1E33DA0
:100E5000D0ACC417D2F3EF3240B1AF3D7BADAB168F
:100E600045F32C33B5B0783D2EAE9015B8F268330B
:100E70002DB03F3DE8AE73142CF2A333A9AF033D70
:100E8000A9AF54139FF1DF3328AFC53C71B03412C2
:100E900013F11934A9AE853C40B1121187F05334D7
:100EA0002EAE423C15B2EE0FFBEF8D34B6ADFD3BDE
:100EB000F2B2CA0E6FEFC63441ADB63BD5B3A40D46
:100EC000E3EEFF34D0AC6D3BBEB47C0C58EE37354E
:100ED00061AC213BAFB5540BCCED6E35F6ABD33ADC
:100EE000A5B62B0A41EDA5358EAB823AA2B7010912
:100EF000B6ECDC3529AB303AA6B8D6072BEC123667
:100F0000C8AADB39AFB9AA06A1EB48366AAA843968
:100F1000BFBA7E0516EB7D360FAA2B39D4BB510420
:100F20008CEAB136B7A9CF38F0BC240302EAE53623
:100F300063A9713811BEF70178E9183712A9123880
:100F400038BFC900EFE84B37C5A8B03765C09BFF75
:100F500065E87E377BA84B3797C16EFEDCE7B0377C
:100F600034A8E536CFC240FD53E7E137F1A77D361F
:100F70000CC413FCCBE61238B1A712364EC5E6FA04
:100F800042E6423874A7A53595C6BAF9BAE5713874
:100F90003BA73735E1C78EF832E5A13805A7C6343F
:100FA00032C963F7AAE4CF38D3A6533488CA39F6D6
:100FB00023E4FD38A4A6DF33E2CB0FF59CE32B3905
:100FC00078A6683341CDE6F315E3583950A6EF32E1
:100FD000A5CEBFF28EE284392CA674320CD098F1E3
:100FE00008E2B0390BA6F83178D173F082E1DB3931
:100FF000EDA57931E8D24FEFFCE0063AD3A5F93000
:101000005CD42DEE77E0303ABCA57630D3D50CED2C
:10101000F2DF593AA9A5F22F4ED7EDEB6DDF823AF8
:1010200099A56C2FCDD8CFEAE9DEAB3A8DA5E42E99
:101030004FDAB4E964DED33A85A55A2ED5DB9AE8B7
:10104000E1DDFA3A7FA5CF2D5DDD82E75DDD213B55
:101050007EA5412DE9DE6DE6DADC473B7FA5B22CAB
:1010600077E059E557DC6D3B85A5212C08E248E483
:10107000D5DB923B8DA58F2B9CE33AE352DBB63B4D
:1010800099A5FB2A32E52DE2D1DADA3BA9A5652A3A
:10109000CBE624E14FDAFD3BBCA5CE2965E81DE097
:1010A000CED9203CD3A5352902EA19DF4DD9423CDF
:1010B000EDA59A28A1EB18DECDD8643C0BA6FE273F
:1010C00041ED19DD4DD8853C2CA66027E3EE1EDCF2
:1010D000CDD7A53C50A6C12687F026DB4ED7C53C10
:1010E00078A620262CF231DACFD6E43CA4A67E25C1
:1010F000D2F33FD951D6033DD3A6DA2479F551D89E
:10110000D3D5213D05A7352421F766D756D53F3DD8
:101110003BA78E23CAF87FD6D8D45B3D74A7E722BD
:1011200073FA9BD55CD4783DB1A73D221DFCBBD49E
:10113000DFD3933DF1A79321C7FDDFD363D3AF3D49
:1011400034A8E72072FF06D3E8D2C93D7BA83A2035
:101150001C0131D26DD2E33DC5A88C1FC70261D1FD
:10116000F2D1FC3D12A9DC1E710494D078D1153E59
:1011700063A92B1E1B06CCCFFED02D3EB7A9791D2F
:10118000C40707CF85D0453E0FAAC61C6D0947CEC0
:101190000CD05C3E6AAA121C140B8CCD94CF723E0C
:1011A000C8AA5D1BBB0CD4CC1CCF883E29ABA71AA8
:1011B000610E21CCA5CE9D3E8EABEF19051073CBF1
:1011C0002ECEB13EF6AB3719A811C9CAB7CDC53E70
:1011D00061AC7E184A1324CA41CDD83ED0ACC417A6
:1011E000EA1483C9CCCCEB3E41AD09178816E8C898
:1011F00057CCFD3EB6AD4C16241850C8E2CB0F3F7D
:101200002EAE9015BE19BEC76ECB203FA9AED2142C
:10121000561B31C7FBCA303F28AF1314EB1CA8C6BE
:1012200088CA403FA9AF54137E1E25C615CA4F3F3A
:101230002DB094120E20A7C5A3C95D3FB5B0D31140
:101240009C212DC532C96B3F40B112112623B9C470
:10125000C1C8783FCDB15010AE244AC451C8853FB3
:101260005EB28D0F3226E0C3E1C7913FF2B2CA0EE3
:10127000B3277BC372C79C3F88B3060E31291CC3BA
:1012800003C7A73F22B4410DAA2AC1C295C6B13FE8
:10129000BEB47C0C212C6DC227C6BB3F5EB5B70B1C
:1012A000932D1DC2BAC5C43F00B6F10A022FD3C1A7
:1012B0004EC5CC3FA5B62B0A6C308EC1E2C4D43FDC
:1012C0004DB76409D2314FC176C4DB3FF8B79D08F2
:1012D000343315C10CC4E13FA6B8D6079234E0C040
:1012E000A1C3E73F56B90E07EB35B1C038C3EC3F99
:1012F00009BA46063F3788C0CFC2F13FBFBA7E0564
:101300008E3864C066C2F53F77BBB504D93945C095
:10131000FEC1F83F32BCED031E3B2CC097C1FB3F22
:10132000F0BC24035F3C19C030C1FD3FB0BD5B027F
:101330009A3D0BC0CAC0FF3F73BE9201D03E03C0AE
:1013400065C0004038BFC900D2B201E000F8012BEF
:10135000491EFBD270470022F6E710B513460A4635
:1013600004461946FFF7F0FF204610BD421C10F856
:10137000011B0029FBD1801A7047F0B480EA0102FA
:10138000D40F4200B2EB410F02D20246084611468A
:101390004A0042D0C30DDDB2C1F3C752AD1A202DB1
:1013A00035DAC1F3160141F4000204B15242C5F12D
:1013B000200602FA06F12A411044B3EBD05F23D095
:1013C000C4B1012DA0EBC35009DCF0BC4FF00042CA
:1013D00002EAC352DBB200F5000000F086B940001B
:1013E00000F1807000EBC350A0F1807040EAD17032
:1013F000490009E0490841EAC071A0EBC35000F57B
:101400000000400800EBC350F0BC00F065B9614239
:10141000012202EB4101001BF6E7F0BC704781F0AE
:101420000041AAE780F00040A7E780EA010210B57A
:1014300002F00043400022D04A001FD0010E01EB11
:101440001261C0F35600C2F3560240F4000042F4A9
:101450000002A0FB022000047F39140400D0401CCD
:1014600050EA124001D44000491EC2B20C0604EBFF
:10147000D010401C4008802A02D003E0002010BD9C
:1014800020F00100002900DA0020184310BD2DE9EA
:10149000FE4F81EA030404F0004421F0004100946F
:1014A0004FF0000B23F0004350EA01045ED052EAF3
:1014B00003045BD0C3F30A54C1F30A552C44A4F2CD
:1014C000F3340194A0FB0254C1F3130141F48011E1
:1014D000C3F3130343F4801301FB024400FB034EE8
:1014E000840A970A44EA815447EA8357A4FB0768B1
:1014F00002958D0A05FB07854FEA932C04FB0C54DB
:101500002705029D4FEA065847EA1637B5EB08054E
:101510006EEB070C870E920E47EA811742EA8312A0
:10152000A7FB0201B6EB0B0164EB00042B0D43EAB1
:101530000C335E1844EB1C50DA465146E7FB0201BF
:10154000C5F313044FEA0B3343EA14534FEA043252
:10155000019C43EA0603A4F10C040294009CCDE92B
:1015600000B400F0FFF803B0BDE8F08F00200146A2
:10157000F9E7002801DBC0F10040002901DBC1F1DF
:101580000041814201D90120704700207047C10FFE
:1015900080EAE0700844CA079623002100F0A5B84D
:1015A00096230022114600F0A0B80EB540F2334158
:1015B00002910021CDE900110A460B4600F0D2F855
:1015C00003B000BD20F00040C10DC0F3160040F490
:1015D00000007F2901DA00207047962903DCC1F161
:1015E0009601C840704796398840704700F0004225
:1015F00030F000400AD0C10D01F56071C0F3160053
:1016000042EA0151C20840071143704700200146D9
:10161000704701F0004330B421F0004150EA01026C
:1016200006D00A0DA2F56072C1F31301002A02DC94
:1016300030BC00207047440F44EAC104C100E018E8
:1016400030BC00EBC25000F047B830B50B46014645
:1016500000202022012409E021FA02F59D4205D351
:1016600003FA02F5491B04FA02F52844151EA2F1FB
:101670000102F1DC30BD2DE9F05F05460020924605
:101680009B4688460646814640241BE02846414644
:101690004746224600F06DFA53465A46C01A914119
:1016A00010D311461846224600F054FA2D1A67EB63
:1016B00001084F4622460120002100F04BFA17EBAB
:1016C00000094E41201EA4F10104DFDC48463146EA
:1016D0002A464346BDE8F09F0029A8BF7047401C3A
:1016E000490008BF20F00100704710B4B0FA80FC38
:1016F00000FA0CF050EA010404BF10BC704749B175
:10170000CCF1200421FA04F411FA0CF118BF0121E4
:1017100021430843A3EB0C01CB1D4FEA00614FEAC4
:10172000102042BF002010BC704700EBC350104493
:101730000029A4BF10BC7047401C490008BF20F01E
:10174000010010BC704710B5141E73F1000408DAD4
:10175000401C41F1000192185B411A4301D120F075
:10176000010010BD2DE9F04D92469B4611B1B1FA32
:1017700081F202E0B0FA80F22032904600F0EAF9FD
:1017800004460F4640EA0A0041EA0B0153465A4616
:10179000084313D0114653EA010019D0C8F14002A2
:1017A000504600F0E6F905460E4650465946424678
:1017B00000F0D0F9084305D0012004E02046394666
:1017C000BDE8F08D0020054346EAE0762C43374320
:1017D0000A986305E40AA0EB08000022FD0A44EA27
:1017E00047540A3002D500200146E9E701051019E7
:1017F0006941DDE9084500196941BDE8F04DA2E7FE
:101800002DE9FE4F804681EA0300C00F0C46009090
:1018100021F0004123F00045B8EB0200A94105D2B8
:101820004046214690461C460B46024623F00040A7
:10183000104347D0270DC7F30A00C3F30A510290A3
:10184000401A019040286BDAC3F3130040F4801B68
:101850000098924620B10023D2EB030A63EB0B0BF6
:1018600001985946C0F14002504600F073F906460F
:101870000D4650465946019A00F08BF910EB0800CE
:101880006141002487EA115284EAE7731A4340D089
:10189000009A62B3019A012A4FEA075215DC001B35
:1018A00061EB02014FF0004202EA0752CDE900422B
:1018B000001C41F5801132462B46FFF753FF03B061
:1018C000BDE8F08F40462146F9E7001B61EB0201BD
:1018D000001C41F5801300185B412018A2F5001789
:1018E00047EB030140EAD570B6196D4111E06D0870
:1018F0004FEA360645EAC0754FEA0752001B61EB16
:101900000201001C41F5801149084FEA300000191E
:10191000514132462B4603B0BDE8F04FFFF713BFED
:101920000098012240000023D0EB020263EBE07339
:10193000009821464FEAE074B8EB000061EB040127
:10194000E9E783F000435BE781F0004158E72DE9C8
:10195000F04D81EA030404F0004B21F000451446E9
:101960004FF0000A23F0004150EA050220D054EA6B
:1019700001021DD0C5F30A570246C5F31303C1F394
:101980001300C1F30A5640F4801543F48013A7EB0B
:101990000608101BD64608F2FD3873EB050002D38B
:1019A00008F1010801E092185B41B8F1000F03DA79
:1019B00000200146BDE8F08D00204FF4801106465E
:1019C00084460EE0171B73EB050705D3121B63EB70
:1019D000050306434CEA010C49084FEA300092180F
:1019E0005B4150EA0107EDD152EA030012D082EACE
:1019F000040083EA0501084305D0101BAB4106D261
:101A00000122002306E000224FF0004302E06FF0C5
:101A1000010253101AEB06004CEB085110EB0A00C0
:101A200041EB0B01BDE8F04DFFF78DBE2DE9F04D08
:101A300000231A461B1A8A4103DB00200146BDE839
:101A4000F08DC1F30A52C1F3130141F480154FF038
:101A5000000BD10702D100186D41521E0027044629
:101A600040F2FF11384601EB620A3E4680460246CC
:101A700000204FF4801100F07CF8C2197141BB18AE
:101A800046EB0100B4EB030C75EB000C04D3E41A35
:101A900065EB000517460E46241908F101006D415B
:101AA00080463428E3DDF91946EB0600091BA841FE
:101AB00003D24FF0FF32134601E0002213461BEB26
:101AC000070046EB0A51BDE8F04DFFF73CBEC1F3FD
:101AD0000A52C1F3130140F2FF3341F480119A42DC
:101AE00002DA00200146704740F233439A42A2F2E4
:101AF000334202DC524200F03CB800F02BB8000048
:101B000030B5041E71F1000404DB4FF00044404284
:101B100064EB0101141E73F1000405DB1C464FF059
:101B20000043524263EB0403994208BF904230BD28
:101B3000064C074D06E0E06840F0010394E807001A
:101B400098471034AC42F6D3FEF7F6FAD06000089E
:101B5000F0600008202A04DB203A00FA02F100209D
:101B600070479140C2F1200320FA03F319439040DB
:101B70007047202A04DB203A21FA02F00021704746
:101B800021FA02F3D040C2F12002914008431946E5
:101B90007047202A06DBCB17203A41FA02F043EACD
:101BA000E07306E041FA02F3D040C2F12002914016
:101BB0000843194670470000B0B5044600688168C4
:101BC000C90709D0816821F00101816001F02EF977
:101BD00021688968C90701D10020B0BD054603E02E
:101BE00020688068C007F7D001F020F9401B032867
:101BF000F6D320688068C007F2D0A06A40F01000D9
:101C0000A062E06A40F00100E0620120B0BD000087
:101C100080B50146406A826A12F0500F04D0006A13
:101C2000026B0846904780BD0168826A42F40072E8
:101C30008262896801F46021B1F5602F01D1017BD6
:101C400011B100F065F980BD816A21F48071816273
:101C5000816AC904F5D4816A41F00101816200F012
:101C600057F980BD80B5406A816A41F040018162C8
:101C7000C16A41F00401C16200F090FA80BD000029
:101C800080B5406A00F088FA80BD0000B0B582B02F
:101C900004460020019021688A68D2073DD18868F7
:101CA00040F00100886040F2D800C2F200000068F5
:101CB0004DF68361C4F21B31A0FB0101880C00BF0B
:101CC0000190019810B101980138F9E701F0AEF8E0
:101CD00021688968C9071CD1054603E0206880682F
:101CE000C00719D101F0A2F8401B0328F6D32068E1
:101CF0008068C007F2D1A06A40F01000A062E06ADC
:101D000040F00100E062002084F82400012002B0CD
:101D1000B0BD002002B0B0BD002002B0B0BD0000D8
:101D2000FEE7000010B5446A204600F01BFC0120CD
:101D3000207110BD10B5446A204600F0E7FB012079
:101D4000207110BD10B5446A206940F00400206184
:101D5000204600F00BFC0120207110BD10B5446A34
:101D6000206940F004002061204600F0D3FB0120F0
:101D7000207110BD80B5406A00F0F6FB80BD000008
:101D800080B5406A00F0C4FB80BD000080B543F21E
:101D90006810C2F2000000F073FD80BD80B543F210
:101DA000F010C2F2000000F06BFD80BD80B543F280
:101DB0003420C2F2000000F063FD80BD80B543F224
:101DC000AC10C2F2000000F05BFD80BDB0B5D0E900
:101DD00000CED0E90F40012505FA00F0606008460A
:101DE000CCF80430BEF1100F04BF10460A46CCF800
:101DF0000800CCF80C20B0BD704700007047000010
:101E0000B0B581B00022009290F82420012A01D1BF
:101E1000022179E04A680123062A80F8243005D897
:101E200003686FF0040C03F1340E0AE003680C2A17
:101E300087BF03F12C0E6FF0400C03F1300E6FF0F2
:101E4000220C02EB8202DEF8005062441F230C6871
:101E5000934025EA030304FA02F21A43CEF8002065
:101E6000D1F800E002680EEB4E051024BEF1090F18
:101E700088BF1E3D88BF0C2452F804C00723896820
:101E8000AB402CEA0303A940194311512EF0010184
:101E90004FF0000C10294FF0000133D1016842F2DD
:101EA0000042C4F20102914205D0816A41F0200152
:101EB0008162012126E09268120222D48A68BEF172
:101EC000100F42F400028A601BD140F2D801C2F226
:101ED000000109684DF68362C4F21B32A1FB0212B5
:101EE000910C01EB810149000091009949B100BFBB
:101EF000009901390091009900294FF00001F7D1B4
:101F000000E0002180F824C0084601B0B0BD000008
:101F100084B040F60000C4F201004FF4807100F07C
:101F200077FF43F22410C2F2000000F0C5FA40F23D
:101F30002015C2F20005A5F1040B41F220116FF04B
:101F40000300C2F2000140F6FC725B4653F8047FC6
:101F50000E1804303F0490427760F7D142F220140B
:101F6000C2F2000441F22011C2F2000120464FF4F7
:101F70008062FEF7F9F8204602F0F2FF42F62011E7
:101F80000026C2F200010024002200BF51F82630D2
:101F900000279A42304638BF0127002E18BF012083
:101FA00038401CBF1A4634460136B6F5007FEDD1E5
:101FB0006D684FF4806059462F4600BF51F8042FDA
:101FC0002B46AA4238BF1346BA428CBF17461D465D
:101FD0000138F3D1781BFFF7E8FA46F26663C4F2E2
:101FE0000A034FF06632FFF752FA0023C3F630734C
:101FF00000220026FFF74BFAEA1952084FF48063DB
:102000005F4600BF57F8045F954288BF0136013B29
:10201000F8D1FFF7FEFA05463046FFF7C6FA00236F
:10202000C3F650730022FFF732FA0023C4F25903BB
:102030000022FFF72CFAFFF7ECFA80462046FFF764
:10204000AFFA40F2D407C2F20007396804460846E6
:10205000FFF7A6FA01462046FFF7E7F94FF06A516D
:10206000FFF7E3F904462846FFF7C0FA8146204609
:102070008A46FFF7BBFA064640460D46FFF7B6FA1A
:10208000CDE9006540F2E805C2F200058C460290F9
:1020900036A128464A465346CDF80CC003F066F8F0
:1020A000002000212A46102302F05EFC0021C4F229
:1020B0002F412046FFF75DFA00210546C4F2483162
:1020C0002046FFF756FA43F22011002818BF0120DE
:1020D000C2F20001002D18BF02200A7840F2D0039E
:1020E000C2F200030A2A18700ED2082A09D142F25D
:1020F0001070386043F21430C2F2000000686323AD
:10210000C362501C087015E000200870187840F277
:10211000DC0140F21012C2F20001C2F2000251F8DA
:10212000201032F8100043F21432C2F2000212689A
:102130003960D06243F2B540C2F2000001384FF47A
:10214000A57100BF5BF8042F01394FEA521200F865
:10215000012FF7D143F25C30C2F200000AA10F2236
:10216000322301F06DFF00BFFEE700BF5670703DE7
:10217000252E3266562C663D252E3166485A2C6433
:102180003A252E31662525006164647420312C3097
:102190002C333235FFFFFF0070470000704700000E
:1021A000002804BF012070472DE9F0418046044615
:1021B00058F8280F30B90020E06284F82400204647
:1021C00000F08CF82046FFF7F7FCA26AA16A00280D
:1021D00008BF12F0100206D041F010010120C8F82B
:1021E0000010BDE8F08141F2021291430231A16278
:1021F000D4E90013E66981F08045A26885F49E3534
:1022000086F440272F4308BF4FF4002646EA030711
:10221000531EB3FA83F35E091346B2F5807F18BFED
:102220003302267D257B012E47EA450C11D145B1AD
:10223000A76A47F02007A762E76A47F00107E7624D
:1022400007E0A7694EF60006CFF6FF7606EB4737A4
:102250003B434F68B2F5807F27F4694743EA0703A1
:102260004B608B684FF2FD77CFF6E17703EA070307
:1022700043EA0C038B6001D0012A06D122690023B6
:10228000CFF6F07303EB025200E00022CB6A23F496
:1022900070031A43CA62896840F6FE62CFF61F7265
:1022A0001140614509D10021E162A16A012262F376
:1022B0000101C8F80010BDE8F081A06A40F01000EC
:1022C00020F00200A06254F82C0F40F00101012020
:1022D000A046C8F80010BDE8F081000070B586B0D7
:1022E000044640F60000C4F20100216800F5E05207
:1022F000002691420596CDE90366029601D006B00C
:1023000070BD41F21801C4F202010A6842F4007281
:102310000A600A6802F400720192019A0A6842F0A7
:1023200004020A60096801F0040101910199012188
:1023300002910321039102A900F076FC43F2681593
:102340000820C2F20005C4F202004FF40072C5E991
:10235000000605F1100080214FF400634FF0200CBF
:1023600080E80C102846C5E90261EE6100F0C8FB68
:10237000002818BFFFF742FD25626C6206B070BDF1
:102380002DE9F0410546006842F60006C4F2010658
:102390009046B0420F4605D042F20041C4F201011E
:1023A00088420AD142F20440C4F20100006810F4ED
:1023B000702F1CBF0120BDE8F08195F82400012892
:1023C00004BF0220BDE8F081012085F824002846E2
:1023D000FFF75CFC044628B1002085F82400204665
:1023E000BDE8F08142F204402968AA6AC4F2010003
:1023F00040F601739A4300F57F7302F580729942AB
:10240000AA6207D0A86A20F48010A8624868400534
:1024100018D512E0026812F4702FF3D0AA6AB14204
:1024200042F48012AA6205D042F20042C4F20102D4
:10243000914207D10068400504D5A86A012262F3E1
:102440000D30A862AA6A0020D2044FF0000244BFF7
:10245000EA6A22F00602EA6285F82400286A41F658
:102460001142C0F6000241F6814341F6654600F193
:10247000280CC0F60003C0F600068CE84C006FF094
:1024800002020A608A68434642F480728A604C31D4
:102490003A4600F07DFB2868816801F4602281687B
:1024A000B2F5602F0CBF41F4A00141F480118160AE
:1024B0002046BDE8F081000010B5044690F82400E5
:1024C000012804BF022010BD012084F8240020460A
:1024D000FFF772FBB0B92268216A936823F4807316
:1024E000936091F82120022A0CD1084600F01AF9D5
:1024F000A16A10B141F0400103E041F201129143A1
:102500000131A162002184F8241010BD7047000041
:10251000704700007047000010B54379012B4FF061
:1025200002031DD00371036802F0100ED3F800C03F
:10253000D1E9004140F6FE7202FA0EF221432CEA84
:10254000020201FA0EF111431960C0211A6801FA62
:102550000EF122EA0101196001210023017143718A
:10256000184610BD7047000070470000704700001B
:10257000002804BF0120704710B50446007920B937
:1025800000206071204600F007F802202071002032
:1025900001212061217110BDF0B585B0044647F2DC
:1025A00000402168C4F2000000268142CDE90366A4
:1025B0000296019601D005B0F0BD41F21801C4F2B7
:1025C00002014A68102742F000524A604A6800F54A
:1025D000144002F000520092009A0A6842F004028D
:1025E0000A60096801F00401009100990321029139
:1025F00001A9019700F018FB43F2AC1540F23040FE
:10260000C2F20005C4F202004FF48072C5E900076F
:1026100005F1100080214FF480634FF0200C4FF43F
:10262000405E80E80C502846C5E9026100F068FA77
:10263000002818BFFFF7E2FBA5606C6205B0F0BD93
:10264000F0B581B00446407901284FF0020067D010
:102650000E460699012565712071F6B1E76841F6CD
:1026600035552068C0F6000541F6815C41F65D5E97
:102670002837C0F6000CC0F6000E87E82050076827
:10268000082947F08057076026D0042927D0002961
:102690000CBF00F11405002529E0A56841F6255C72
:1026A00041F6755E41F645572068C0F6000CC0F64D
:1026B000000EC0F60007C5E90ACE2F630768082997
:1026C00047F48057076010D004290BD000290CBFB5
:1026D00000F1080500250AE000F11C0507E000F103
:1026E000180504E000F10C0501E000F110050C20D4
:1026F000002E08BF0820205811462A4600F048FA4C
:102700000021617118B104F11001042205E006F006
:1027100010020123216803FA02F20B681A430A60CF
:1027200001B0F0BD014690F82100022813D10868DD
:10273000D1E90FC3026822F00E020260026822F0A3
:1027400001020260012000FA03F2CCF8042081F8B3
:102750002100002002E0042088630120002281F88B
:102760002020704780B590F82110022927D10268F7
:1027700040F2040C1368C4F2020C23F00E03136041
:1027800013680CF17C018A4223F0010111601AD90F
:1027900040F20841C4F202018A4247D040F21C4193
:1027A000C4F202018A4245D040F23041C4F2020133
:1027B0008A4243D14FF48073CCF8003457E00421AF
:1027C0008163012080BD4321C4F202018A420EDDF3
:1027D0006B21C4F202018A421BDC4421C4F20201D3
:1027E0008A4239D05821C4F202018A4231E00821DC
:1027F000C4F202018A4232D01C21C4F202018A4290
:1028000032D03021C4F202018A4222D14FF48072C8
:102810002BE06C21C4F202018A4222D08021C4F252
:1028200002018A4215D14FF080721EE00123CCF8DC
:1028300000341CE01023CCF8003418E00CF588615B
:102840004FF480338A4208BF4FF48053CCF80034F1
:102850000DE04FF4803208E04FF4805205E0012291
:1028600003E04FF4801200E01022CCF80020416B0E
:102870004FF48072028401B18847002080BD0000BF
:1028800010B5D0F800E0D0E90FC3DCF80020DEF886
:1028900000104C072ED504249C4014402AD0DEF8AA
:1028A0000010890605D4DEF8001021F00401CEF8EE
:1028B00000100422C4F2020202F17C018E454DD9BF
:1028C00040F20841C4F202018E4500F0AA8040F2B5
:1028D0001C41C4F202018E4500F0A78040F2304155
:1028E000C4F202018E4540F0A4804FF48061C2F82A
:1028F0000014EBE08C0746D502249C40144042D0E3
:10290000DEF80010890608D4DEF8001021F00A0174
:10291000CEF80010012180F821100422C4F2020236
:1029200002F17C018E4549D940F20841C4F202010E
:102930008E4500F0AB8040F21C41C4F202018E458E
:1029400000F0A88040F23041C4F202018E4540F010
:10295000A5804FF40071C2F80014C7E04321C4F20F
:1029600002018E453EDD6B21C4F202018E454BDC37
:102970004421C4F202018E4500F09B805821C4F22C
:1029800002018E4560E0090758BF10BD082199403B
:10299000114012D0DEF8001021F00E01CEF8001028
:1029A000012101FA03F2CCF804208163016B4FF49A
:1029B00080720029028418BF884710BD4321C4F2E9
:1029C00002018E4543DD6B21C4F202018E4550DCCD
:1029D0004421C4F202018E457ED05821C4F2020186
:1029E0008E456EE00821C4F202018E4564D01C21A0
:1029F000C4F202018E4567D03021C4F202018E4537
:102A000022D14FF4806160E06C21C4F202018E4556
:102A100054D08021C4F202018E4515D14FF080615F
:102A200053E00421C2F8001450E04021C2F8001421
:102A30004CE002F588634FF480219E4508BF4FF4B7
:102A40008041C2F8001441E04FF480213DE00821AC
:102A5000C4F202018E4542D01C21C4F202018E450F
:102A600042D03021C4F202018E452AD14FF40071C8
:102A70003BE06C21C4F202018E4532D08021C4F2C9
:102A800002018E451DD14FF000712EE00221C2F8E7
:102A900000142BE02021C2F8001427E002F588631F
:102AA0004FF400319E4508BF4FF40051C2F80014A6
:102AB0001CE04FF4804108E0042106E04FF480015F
:102AC00003E04FF4003110E040211160C16A002999
:102AD0003FF473AF884710BD4FF4005105E0022169
:102AE00003E04FF4001100E020211160816A002210
:102AF000002980F820203FF460AF884710BD000017
:102B0000002804BF012070472DE9F04140F2000C7D
:102B1000C4F2020C01684FF6F8320CF58163CBF673
:102B2000FD72994238BF02F580624CF6CD430A44EB
:102B3000CCF6CC43A2FB03236FF003050CF58064B5
:102B400005EA9303D0E9012ED0F80C803CBF0024A5
:102B5000C4F20204C0E90F430B6843F6F075AB43BF
:102B60001A43D0E9045442EA0E0242EA0802D0E9CC
:102B700006672A43224332433A430A6000214FF456
:102B8000807281630284BDE8F0410846704700000E
:102B900010B5044690F82000012821D094F82100B7
:102BA0004FF0010C012884F820C016D1022084F8CF
:102BB00021000020A063D4F800C0DCF8000020F061
:102BC0000100CCF800002046FFF700F92068E26A17
:102BD00001683AB141F00E010AE0002084F82000BB
:102BE000022010BD21F004010160016841F00A01DA
:102BF00001602068016841F001010160002010BD02
:102C0000B0B5044600F012F9054640F21610C2F2C3
:102C100000000078611C18BF044400BF00F006F9F2
:102C2000401BA042FAD3B0BD2DE9F04F83B00C6831
:102C3000002C00F0EA80A0F18042A2F5843240F23C
:102C4000004E4FEAB22241F60047C4F2010E009254
:102C5000C4F20107062200254FF001094FF0000BD6
:102C60004FF0000AB84208BF0522019209E000BFF8
:102C70000C680BF1010B34FA0BF205F1040500F0BE
:102C8000C48009FA0BF814EA080CF1D04C684FF62E
:102C9000FF72C1F21002944210DC122C50D8DFE80F
:102CA00004F0330A41454F4F4F4F4F4F4F4F4F4F57
:102CB0004F4F4F484C00D1F80CA041E04FF6FF7247
:102CC000C1F2210294420FDC0022C1F211029442AF
:102CD0001AD00022C1F21202944215D00022C1F291
:102CE0002102944210D02BE00022C1F22202944231
:102CF0000AD00022C1F23102944205D00022C1F272
:102D0000320294421CD100BF8C6844B1012C14BF24
:102D1000C0F81480C0F810804FF0080A10E04FF09F
:102D2000040A0DE0CC6804F1080A09E04FF0000A3B
:102D300006E0CC6804F1040A02E0CC6804F10C0A55
:102D40002C460746BCF5807F24BF203C04373A68F8
:102D50000F2303FA04F6B2430AFA04F422433A605A
:102D6000CA79D2067FF584AF41F21804C4F2020496
:102D700022684FF6084842F0010222602268CFF62E
:102D8000FF7802F001020292029A2BF003027244D1
:102D900052F8084005F00C0603FA06F7009BBC4306
:102DA000019F052B38BF1F4607FA06F6344342F849
:102DB00008404C68E203DEF8002054BF22EA0C070A
:102DC00042EA0C07A203CEF80070DEF8042054BFDC
:102DD00022EA0C0742EA0C07E202CEF80470DEF8A1
:102DE000082054BF22EA0C0742EA0C07A20240F274
:102DF0000C44CEF80870C4F20104226854BF22EAE1
:102E00000C0242EA0C02226032E703B0BDE8F08F08
:102E1000C26802EA0103914341EA0341016170473C
:102E2000002A08BF090401617047000045F6BC5044
:102E3000C2F2000000687047F0B581B0B0B304463C
:102E400090F83D0028B9002084F83C00204600F0AE
:102E500055F9242084F83D002068016821F0010123
:102E60000160016841F400410160016821F4004102
:102E7000016000F03FFB48F28041C0F21E0140F6C5
:102E80000012656888424FF00001C0F23D0248F22E
:102E9000A16C4FF0000338BF01219042C0F2010C39
:102EA00038BF0123654538BF0B4613B1012001B07F
:102EB000F0BD4DF68361C4F21B31A0FB0112216805
:102EC0004FEA924E4B684FF4967623F03F0343EA65
:102ED00092434B6044F6D3530F6A0EFB06F6C1F2E1
:102EE0006203A6FB033627F03F03B709654538BFE9
:102EF000970C7A1C1A430A62CA6948F2A0674CF61A
:102F0000FF73C0F20107BD4222EA030C0AD8013860
:102F10006A00B0FBF2F001306FF31F30042898BF55
:102F200004202BE0A368A0F1010E9BB11920684397
:102F3000BEFBF0F00422013062F31F30000512D016
:102F40009BB119206843BEFBF0F00422013062F30C
:102F50001F3011E005EB4500BEFBF0F001306FF3D0
:102F60001F300005ECD1012008E005EB4500BEFB59
:102F7000F0F001306FF31F3040F4004040EA0C00E5
:102F8000C8610868D4E9072320F0C0001043184343
:102F90000860886848F2FF3204F10C0790438CCF38
:102FA00018431043A6698860C86820F0FF003843C2
:102FB0003043C860086840F001000860002020210C
:102FC000206484F83D10206384F83E0001B0F0BD19
:102FD0002DE9F04383B0994616460F460446FFF7A5
:102FE00025FF94F83D1020290ED102210546C0F29C
:102FF0001001204601221923009501F03DF918B96E
:1030000094F83C00012803D1022003B0BDE8F0830E
:103010000121226884F83C101368DDE90B080A9945
:10302000DB0703D1136843F001031360136823F433
:1030300000631360212284F83D20402284F83E2062
:103040000022226461626085608D394620850020FF
:10305000CFF6FF70E062204632464B46CDF8008046
:10306000019501F079F830B3012003B0BDE8F08399
:10307000204641462A4601F07FF928BB606A216854
:10308000034613F8012B0A61228D6362571E2785C0
:10309000638D3F04A3F1010363854B6918BF13F0EF
:1030A000040308D0437802300B616062901E2085D3
:1030B000608D01386085208D0028D9D12046414699
:1030C0002A4601F0A9F840B1206C0428CCD1206830
:1030D000016841F400710160C6E72068016841F4AD
:1030E00000710160202084F83D00002084F83E003B
:1030F00084F83C0003B0BDE8F083000010B586B052
:10310000016845F20040C4F2000081424FF0000126
:10311000CDE90411CDE9021101D006B010BD41F294
:103120001804C4F20204216800F5384041F0080197
:103130002160216801F0080101910199C0210291EB
:10314000122103910321059102A9FFF76DFD60682B
:1031500040F400106060606800F400100190019875
:1031600006B010BD40F2161045F6BC51C2F2000088
:10317000C2F2000100780A6810440860704700003D
:1031800080B542F20000C4F20200016841F0100173
:103190000160032000F066F8002000F005F800F060
:1031A0002BF8002080BD0000B0B540F21612C2F22C
:1031B000000240F2D8011278C2F200014FF47A7393
:1031C0000968B3FBF2F20446B1FBF2F1084600F0E5
:1031D0006BFB0F2C4FF001050CD858B94FF0FF30A6
:1031E00021460022002500F02DF840F21810C2F20E
:1031F000000004602846B0BD82B041F21800C4F25D
:1032000002000168022241F001010160016801F041
:10321000010101910199416841F08051416040688C
:1032200000F08050009000980420C4F20100016872
:1032300062F31A61016002B07047000080B501F0CE
:1032400055FE80BD70B514460D46064601F05EFE83
:103250002946224601F094FA0146304601F05EFE0E
:1032600070BD000080B501F06BFE80BD2DE9F0411E
:1032700082B00446007841F21C06C007C4F2020680
:103280004AD0306810F0805808D1306840F0805043
:103290003060306800F080500190019847F20007DC
:1032A000C4F200073868C00512D4386840F4807052
:1032B0003860FFF7BBFD05463868C00508D4FFF746
:1032C000B5FD401B6428F7D9032002B0BDE8F081AA
:1032D000706810F4407012D0616801F44071884247
:1032E0000DD0706840F24042C4F24222012320F423
:1032F000407113600023C0071360716029D17068AA
:10330000616820F440700843B8F1000F706003D189
:10331000306820F0805030602068810707D556F86B
:10332000181CA26821F44041114346F8181CC0063D
:1033300003D4002002B0BDE8F08156F8180C616992
:1033400020F48000084346F8180C002002B0BDE8C5
:10335000F081FFF76BFD054641F288377068800702
:10336000CDD4FFF763FD401BB8424FF00300F5D901
:10337000ECE700002DE9F04381B0002800F08980DF
:1033800042F20008C4F202080446D8F800000D46D4
:1033900000F0070088420CD2D8F8000020F00700A7
:1033A0002843C8F80000D8F8000000F00700A84241
:1033B0006FD1206841F204098107C4F2020917D5D0
:1033C000410705D5D9F8001041F4E061C9F80010B3
:1033D000010705D5D9F8001041F46051C9F8001073
:1033E000D9F80010A26821F0F0011143C9F80010CB
:1033F000C00745D1D8F8000000F00700A8420CD95A
:10340000D8F8000020F007002843C8F80000D8F8DA
:10341000000000F00700A8423BD12068410707D513
:10342000D9F80010E26821F4E0611143C9F80010F6
:10343000000708D5D9F80000216920F4605040EA5F
:10344000C100C9F8000000F079F8D9F8001045F67D
:10345000C822C1F30311C0F60002515C40F2D80249
:1034600020FA01F140F21810C2F200000068C2F226
:1034700000021160FFF798FE002001B0BDE8F08364
:103480006068022809D0012829D159F8041C890351
:1034900007D4012001B0BDE8F08359F8041C89016C
:1034A000F7D5D9F8001021F003010843C9F800004E
:1034B000FFF7BCFC064641F2883700BFD9F8000090
:1034C000616800F00C00B0EB810F93D0FFF7AEFC09
:1034D000801BB842F2D9032001B0BDE8F08359F84F
:1034E000041C8907D5D5DCE740F2D800C2F2000001
:1034F0000068704780B5FFF7F7FF41F20401C4F29E
:103500000201096845F6D822C1F30221C0F6000283
:10351000515CC84080BD000080B5FFF7E5FF41F277
:103520000401C4F20201096845F6D822C1F3C221A0
:10353000C0F60002515CC84080BD000041F2040C9E
:10354000C4F2020CDCF8003003F00C00082841F251
:103550000020C0F27A0018BF7047C3F383420AA16B
:103560008A5CD90305D440F60010C0F23D005043F8
:103570007047DCF8001008A3C1F34041595C504388
:10358000B0FBF1F0704700BF02030405060708090D
:103590000A0B0C0D0E0F1010010200002DE9F04176
:1035A00082B0002800F0C4800446007841F2000692
:1035B000C007C4F2020643D0706800F00C00042873
:1035C00017D0706800F00C00082802D17068C003A2
:1035D0000FD465682DB1B5F5A02F10D0B5F5803F9B
:1035E00011D0306820F480303060306820F48020C2
:1035F0000CE03068800323D5606808BB98E0306831
:1036000040F480203060306840F480303060FFF754
:103610000DFC002D054610D03068800310D4FFF754
:1036200005FC401B6428F7D904E100BFFFF7FEFB4F
:10363000401B64284FF0030077D830688003F5D42E
:103640002078800718D5706810F00C0F07D07068CC
:1036500000F00C00082826D17068C00323D430681D
:10366000800702D52069012862D13068616920F0A5
:10367000F80040EAC1003060207800073DD5A0691D
:1036800038B30020C4F242200121C0F88014FFF7B3
:10369000CDFB0546706A80072DD4FFF7C7FB401BA2
:1036A0000228F7D9C6E02069002840F20000C4F2E1
:1036B000422000F0968001210160FFF7B7FB05462C
:1036C00030688007D1D4FFF7B1FB401B0228F7D93F
:1036D000B0E00020C4F242200021C0F88014FFF7BF
:1036E000A5FB0546706A800707D5FFF79FFB401BC7
:1036F0000228F7D99EE001F063F9207840071BD437
:10370000E5698DB1706800F00C00082847D1012DE3
:103710000ED07068216A00F480328A4208D1616A52
:1037200000F47010884203D1002002B0BDE8F0819F
:10373000012002B0BDE8F081F06910F0805808D196
:10374000F06940F08050F061F06900F08050019025
:10375000019847F20007C4F200073868C00510D48A
:10376000386840F480703860FFF760FB054600BFA2
:103770003868C00505D4FFF759FB401B6428F7D90A
:1037800058E0E5681DB1052D3CD0012D3ED0306AD2
:1037900020F001003062306A20F0040039E0002798
:1037A000C4F2422700203866FFF740FB022D054691
:1037B0000CD100BF3068800154D5FFF737FB401BA8
:1037C00002284FF00300F5D9AFE700BF3068800151
:1037D000AAD5FFF72BFB401B02284FF00300F5D9B9
:1037E000A3E700210160FFF721FB05463068800751
:1037F0007FF542AFFFF71AFB401B02284FF0030092
:10380000F4D992E7306A40F004003062306A40F048
:1038100001003062FFF70AFB002D054641F28837B0
:1038200014D000BF306A800713D4FFF7FFFA401BA3
:10383000B842F7D9032002B0BDE8F081FFF7F6FAED
:10384000401BB8424FF003003FF66FAF306A80076D
:10385000F4D4B8F1000F7FF453AFF06920F080503A
:10386000F0614DE7206AB0F5803F05D17168A2682C
:1038700021F40031114371607168626A21F474119E
:1038800010430843706001203866FFF7CFFA044602
:10389000306880013FF548AFFFF7C8FA001B0228E7
:1038A0004FF00300F4D940E780B501F0A1F880BDE6
:1038B00010B590F83C20012A4FF0020241D00123BC
:1038C00080F83C3080F83D200268D2F804E0D2F85D
:1038D00008C00C682EF07003234340F6FF34C4F296
:1038E0000004A24253600FDCB2F1804F1ED040F2C0
:1038F0000043C4F200039A4218D040F60003C4F219
:1039000000039A4212D016E040F60043C4F20003CE
:103910009A420BD043F20043C4F201039A4205D00D
:1039200042F60043C4F201039A4204D149682CF0E4
:103930008003194391600121002280F83D1080F836
:103940003C20104610BD0000002804BF0120704735
:1039500010B5044690F83D0028B9002084F83C00DA
:10396000204600F01FF8022084F83D002068211D49
:1039700001F094F8012084F8460084F83E0084F8B1
:103980003F0084F8400084F8410084F8420084F845
:10399000430084F8440084F8450084F83D0000208A
:1039A00010BD000082B0006840F20041C4F2000186
:1039B000884211D0B0F1804F1BD141F21C00C4F2FB
:1039C0000200016841F001010160006800F001009F
:1039D0000190019802B0704741F21C00C4F202004D
:1039E000016841F002010160006800F002000090EF
:1039F000009802B07047000090F83D1001291CBFEC
:103A000001207047022180F83D10006840F6FF3128
:103A1000C4F2000188420FDCB0F1804F1ED040F2AA
:103A20000041C4F20001884218D040F60001C4F2FF
:103A30000001884212D018E040F60041C4F20001B3
:103A400088420BD043F20041C4F20101884205D004
:103A500042F60041C4F20101884206D1816801F0BA
:103A60000701062904BF00207047016841F00101E9
:103A7000016000207047000010B5044690F83C003B
:103A800001284FF0020008BF10BD012284F83C203D
:103A900084F83D0020684FF6777382689A4382600D
:103AA0000A683F2A14DD5F2A18DD602A28D0B2F5A3
:103AB000005F2DD0702A40D1D1E9012CCB6861463E
:103AC00001F058F82068816841F07701816034E0A6
:103AD0001F2A0FDC92B1102A10D02EE0402A23D0EA
:103AE000502A2AD14B68CA68194601F057F8206855
:103AF000502120E0202A01D0302A1ED111461AE0A0
:103B00004B68CA68194601F05BF82068602112E032
:103B1000D1E9012CCB68614601F02CF8206881685E
:103B200041F48041816008E04B68CA68194601F0A1
:103B300035F82068402101F029F8012084F83D0083
:103B4000002084F83C0010BD704700007047000062
:103B5000B0B582B0016805460868CA684C6900F0D3
:103B60002F03202B02F0200305D123B1284601F0BA
:103B700063F802B0B0BD5FEA007C1EBF04F0010E26
:103B800002F4907414EB0E0424D12B6B1040C20687
:103B900017D5012B15D100200190086801904868C5
:103BA00001900198486940061CD4A88DEA8DEB8DE0
:103BB000002B1CBF801A5FEA004240F09A8002B0DE
:103BC000B0BD010636D44006F9D5284601F028F8E4
:103BD00002B0B0BDC10718BF12F480712FD14107E8
:103BE00033D439E0A86B0268526893B2002BE6D058
:103BF000AC8DA342E3D2EA858269202A16D0CA6836
:103C000022F48072CA604A6922F001024A614A695C
:103C100022F040024A61202285F83E2000222A63D9
:103C2000CA6822F01002CA60FEF77CFDA88DE98DFB
:103C3000401A6FE0284601F0BBF802B0B0BD296C15
:103C400041F001012964410706D5BEF1000F03D000
:103C5000296C41F002012964810706D5BEF1000FED
:103C600003D0296C41F004012964BCF1000F06D592
:103C70005EEA030103D0296C41F008012964296C34
:103C800000299CD01040800602D5284600F0D4FFC1
:103C900028684069296C00F0400001F008014018D4
:103CA00020D0284600F0A6FF28684169490614D5AF
:103CB000416921F040014161A86B70B144F6E531E2
:103CC000C0F600014163FEF74DFD00283FF477AFD9
:103CD000A86B416B884702B0B0BD2846FFF736FF9E
:103CE00002B0B0BD2846FFF731FF0020286402B0C3
:103CF000B0BDCA6822F49072CA604A6922F001021B
:103D00004A61202285F83E2000222A63CA6822F0F8
:103D10001002CA6081B22846FFF716FF02B0B0BD9C
:103D2000002804BF0120704710B5044690F83D00FC
:103D300028B9002084F83C00204600F021F8242017
:103D400084F83D002068C16821F40051C16020461C
:103D500000F0CCFF2068016921F4904101614169C4
:103D600021F02A014161C16841F40051C160002085
:103D70002021206484F83D1084F83E1010BD00001E
:103D8000F0B585B00446006844F20041C4F2000179
:103D9000002788420497CDE90277019753D043F674
:103DA0000001C4F20101884240F0A48041F21800F1
:103DB000C4F20200016840F6000541F48041016050
:103DC0000168C4F2010501F4804100910099016885
:103DD00001AE41F0040101600068314600F00400CA
:103DE000009000984FF40070019002200290032090
:103DF00004902846FEF718FF4FF4806001900027DA
:103E000028463146CDE90277FEF70EFF43F2F01562
:103E10004420C2F20005C4F202001021802285E88D
:103E200083002846C5E90327C5E90577EF61FEF75A
:103E300067FE002851D0FDF7E1FF43F2F01525267B
:103E4000C2F200054CE041F21800C4F202004168E1
:103E500040F6000541F4003141604168C4F20105BB
:103E600001F4003100910099016801AE41F00401B4
:103E700001600068314600F00400009000980420C2
:103E8000019002200290032004902846FEF7CCFE09
:103E90000820CDE90107284631460397FEF7C4FE06
:103EA0004420C4F2020043F234253C30C2F2000543
:103EB0001021802285E883002846C5E90327C5E94B
:103EC0000577EF61FEF71CFE48B1FDF797FF43F25F
:103ED00034252626C2F2000502E0252600E026262B
:103EE00030460121002265636C62FFF7ABF9304672
:103EF000FFF7A4F905B0F0BD10B590F83E30202BC7
:103F00000BD100294FF0010418BF002A01D120462F
:103F100010BD90F83C30012B01D1022010BD0123CF
:103F2000002480F83C30046300F028FF204610BDD8
:103F3000F0B581B041F20044C4F2010420460421EE
:103F400001220125FEF76CFF43F2B446C2F20006DF
:103F5000307830B943F22410C2F20000FEF7ACFA18
:103F6000357043F2E431C2F2000143F221100A78C5
:103F7000C2F200000078002A08BF242818D0D2B16D
:103F8000232818D143F2E837C2F200073A6800202C
:103F90000870107000F00AFC43F2EC35C2F2000524
:103FA000002004212A46102300F0DEFC3D6010E0D2
:103FB000012008700DE062B1A0F12301022908D3AD
:103FC00043F2E831C2F200010A681070086801305B
:103FD000086043F25C30C2F20000806A007890B959
:103FE0002046042100220024FEF71AFF43F2241089
:103FF00040F22011C2F20000C2F200014FF48062D0
:104000003470FEF7BDF943F25C34C2F2000443F2AF
:104010002111C2F2000120460122FFF76DFF60B1BD
:1040200043F22115C2F2000594F83D0020462946CE
:104030000122FFF761FF0228F6D101B0F0BD0000B8
:104040002DE9F04381B0044690F83D0020280BD1C3
:104050000E4600294FF0010055D01746002A52D0D5
:1040600094F83C00012803D1022001B0BDE8F083A0
:10407000012084F83C004FF0000921201D46C4F8BF
:10408000409084F83D00FEF7D1FEA784E784A16844
:104090000746B1F5805F07D1206900281CBF304674
:1040A0004E46B046064601E04FF0000884F83C90CA
:1040B00007E000BF16F8010B21684860E08C01386A
:1040C000E084E08C80B1204680213A462B4600F007
:1040D00099FE80B9002EEDD138F8020B21686FF3FC
:1040E0005F2048600026E9E7204640213A462B46FB
:1040F00000F088FE18B1032001B0BDE8F083202055
:1041000084F83D00002001B0BDE8F0837047000056
:1041100041F20044C4F20104C820FEF771FD2046BC
:104120000421FEF775FEF7E70268516949054FF073
:1041300000010FD56FF4806353612022016380F882
:104140003D2080F83E10026C42F00402026480F8C8
:104150003C100121084670472DE9F04383B0044626
:1041600000680D4601680A9F0B9E41F480719946D4
:104170009046016020464FF0011100223B46009618
:1041800000F07AF850B120680068C00544BF4FF4D1
:1041900000702064032003B0BDE8F083206805F0C0
:1041A000FE0101610221C0F2010120463A46334678
:1041B00000F09CF818B1012003B0BDE8F0830020A6
:1041C0000290206832464169029180693946029026
:1041D0000298204600F0D0F840B1206C0428EAD1C3
:1041E0002068016841F400710160E4E7B9F1010F52
:1041F0000AD020684FEA182101612046394632462C
:1042000000F0BAF80028E8D120685FFA88F101616F
:10421000002003B0BDE8F083F0B581B0044600682B
:104220004069400724D415460E464F1C04E000BFE9
:104230002068406940071BD42046FFF775FFA0B9EE
:10424000002FF5D0FEF7F2FD16B1401BB042EFD9BA
:1042500000202021206384F83D1084F83E00216C6A
:1042600041F02001216484F83C00012001B0F0BD40
:10427000002001B0F0BD00002DE9F047DDF82080FE
:104280001D469146824601F47F078EB25C1C00BF3A
:10429000DAF80000B7F5803F14BF1830143000681A
:1042A0003040801BB0FA80F0400948451BD1002CFB
:1042B000EED0FEF7BBFD1DB1A0EB0800A842E7D988
:1042C00000202021CAF830008AF83D108AF83E000C
:1042D000DAF8401041F02001CAF840108AF83C009A
:1042E0000120BDE8F0870020BDE8F0872DE9F0410E
:1042F00004460068984643698FB203EA0701B94251
:1043000002D10020BDE8F0814169490512D416466A
:10431000551C00BF35B1FEF789FD16B3A0EB0800B0
:10432000B0421ED8206841693940B942E9D041699C
:104330004905EFD5016841F4007101606FF48061B7
:10434000416100202021206384F83D1084F83E0064
:10435000216C41F00401216484F83C000120BDE897
:10436000F08100202021206384F83D1084F83E0075
:10437000216C41F02001EEE7F0B581B00446006801
:104380004069000624D415460E464F1C04E000BFC9
:104390002068406900061BD42046FFF7C5FEA0B97F
:1043A000002FF5D0FEF742FD16B1401BB042EFD909
:1043B00000202021206384F83D1084F83E00216C09
:1043C00041F02001216484F83C00012001B0F0BDDF
:1043D000002001B0F0BD0000B0B584B043F224105D
:1043E00042F200410024C2F20000C4F201014FF485
:1043F000002201250394CDE9014404730475C261D0
:10440000C0E9001484600561FDF7CAFE002818BFEA
:10441000FDF7F4FC0220039043F22410C2F20000E6
:1044200001A9CDE90145FDF7EBFC002818BFFDF718
:10443000E5FC04B0B0BD000010B582B043F25410EA
:1044400047F200410024C2F20000C4F20001CDE9AD
:1044500000440160FEF78CF8002818BFFDF7CEFC81
:104460002420CDE9000443F25410C2F20000694652
:104470000022FEF751F8002818BFFDF7BFFC02B07C
:1044800010BD000080B582B041F21400C4F20200F9
:104490000168002241F002010160016801F002019F
:1044A00001910199016841F001010160006800215A
:1044B00000F00100009000980B20FEF7C3FE0B20D7
:1044C000FEF7BCFE0E2000210022FEF7BBFE0E20F0
:1044D000FEF7B4FE112000210022FEF7B3FE1120EA
:1044E000FEF7ACFE3A2000210022FEF7ABFE3A2098
:1044F000FEF7A4FE02B080BD2DE9F04786B000278C
:1045000041F21800CDE90477CDE90277C4F2020048
:10451000016840F6000541F0100101600168C4F235
:10452000010501F01001019101990168002241F09B
:104530002001016001684FF4807801F020010191B1
:104540000199016841F004010160016801F0040172
:1045500001910199016841F00801016000684FF480
:10456000807100F00800019001982846FEF758FC81
:1045700005F540642046042100224FF00409FEF7AF
:104580004FFC42F2020002AECDE9020705F50060E1
:1045900031460497FEF748FBCDF808804FF001083C
:1045A0004FF0020A28463146CDE90387CDF814A022
:1045B000FEF73AFB20463146CDE90298CDE9047A70
:1045C000FEF732FB06B0BDE8F087000080B543F28D
:1045D000782045F20041C2F20000C4F2000148F226
:1045E000A06200234FF4804CC0F2010280E80E006C
:1045F000C0E9033CC0E90533C0E90733FEF71CFC02
:10460000002818BFFDF7FAFB80BD000080B586B01A
:1046100043F2CC200021C2F200004FF0130CCDE990
:104620000411CDE90211CDE900114FF0804247237A
:10463000C0E9021C01618021C0E900238161FFF70C
:1046400083F9002818BFFDF7D9FB4FF48050029082
:1046500043F2CC20C2F2000002A9FFF70DFA0028B5
:1046600018BFFDF7CBFB202000900020019043F203
:10467000CC20C2F200006946FFF71AF9002818BFE3
:10468000FDF7BCFB06B080BD80B586B043F21430A8
:104690000021C2F2000040F200424FF0630CCDE96D
:1046A0000411CDE90211CDE90011C4F20002472343
:1046B000C0E9021C01618021C0E900238161FFF78C
:1046C00043F9002818BFFDF799FB4FF48050029082
:1046D00043F21430C2F2000002A9FFF7CDF900281E
:1046E00018BFFDF78BFB202000900020019043F2C3
:1046F0001430C2F200006946FFF7DAF8002818BF4C
:10470000FDF77CFB06B080BD80B543F25C3043F61C
:104710000001C2F20000C4F2010100234FF00C0CB2
:104720004FF4E13280E80E00C0E90333C0E905C36D
:10473000C361FFF7F5FA002818BFFDF75FFB80BDE6
:1047400080B543F2A03044F20041C2F20000C4F24E
:10475000000100234FF00C0C4FF4E13280E80E0012
:10476000C0E90333C0E905C3C361FFF7D9FA0028E4
:1047700018BFFDF743FB80BDFEE700007047000057
:1047800000F0070080F00703042B28BF04234FF03C
:10479000FF3C03380CFA03F338BF002099438140F3
:1047A0000CFA00F022EA000008437047B0B500247C
:1047B00004F1B0000021002500F0F6F800200021EF
:1047C00000F0F2F81020002100F0EEF800200121A6
:1047D00000F0EAF8681C45B2B5F1FF3FF6DC0134A1
:1047E000082C08BFB0BDE3E780B5AE20002100F083
:1047F000DBF80020002100F0D7F81020002100F0A5
:10480000D3F84020002100F0CFF8B020002100F0C4
:10481000CBF88120002100F0C7F8FF20002100F034
:10482000C3F8A120002100F0BFF8A620002100F06D
:10483000BBF8A820002100F0B7F83F20002100F0CD
:10484000B3F8C820002100F0AFF8D320002100F019
:10485000ABF80020002100F0A7F8D520002100F0DF
:10486000A3F88020002100F09FF8D820002100F05C
:104870009BF80520002100F097F8D920002100F0D6
:1048800093F8F120002100F08FF8DA20002100F0E9
:104890008BF81220002100F087F8DB20002100F0C7
:1048A00083F83020002100F07FF88D20002100F0F7
:1048B0007BF81420002100F077F8AF20002100F0F1
:1048C00073F880BD10B5044601F1B000002100F07E
:1048D0006BF820091030002100F066F804F00F009A
:1048E000002100F061F810BDF0B581B00D4604461E
:1048F00040B2002844BF02350024E9B220461F46DA
:104900001646FFF7DFFF102F22D1A6F1200045F653
:10491000E021C0B2C0F6000101EB00164FF0FF37F6
:10492000F0194078012100F03FF80137072FF7D147
:10493000681CC1B22046FFF7C5FFF41D082500BF63
:1049400014F8010F012100F02FF8013DF8D109E022
:10495000002400BF0020012100F026F8052C04F1FE
:104960000104F7D301B0F0BD2DE9F04115461278EE
:10497000002A08BFBDE8F08198460E46074600248D
:10498000F8B2F1B2D2B24346FFF7AEFF0837F8B241
:1049900001347828E0B288BF02362A5C88BF00273D
:1049A000002AEDD1BDE8F08180B5C0B211B100F0B0
:1049B00085FA80BD00F06AFA80BD000070470000F3
:1049C00081B040F2D800C2F20000006844F6D35132
:1049D000C1F26201A0FB0101480A009000BF0098EB
:1049E000411E00280091F9D101B0704770470000C6
:1049F000B0B501380024B4EB106F1CBF0120B0BD6E
:104A00004EF21005CEF2000568604FF0FF300F2126
:104A100000F084FA0720AC6028602046B0BD00009A
:104A200080B5FEF79FFB80BD70B596B00CAC2046FC
:104A30002821FCF790FC01200C9010904FF4E0101E
:104A400000254FF480310226159020460B95CDE9C4
:104A50000955CDE90755CDE90555CDE90355CDE912
:104A60000155CDE90D15CDE91361FEF797FD0F2036
:104A7000CDE907064FF48060CDE90A0507A80221B9
:104A80000995FEF777FC4FF40040039001A80196CA
:104A9000FEF7ECFB16B070BD7047000010B540F695
:104AA000FF3E0368C4F2000E43F2004C7045C4F2AE
:104AB000010C20DCB0F1804F2BD040F20042C4F258
:104AC0000002904225D040F60002C4F2000290425B
:104AD0001FD0704523DCB0F1804F2ED040F2004251
:104AE000C4F20002904228D040F60002C4F2000254
:104AF000904222D025E040F60042C4F200029042EB
:104B000007D0604505D042F60042C4F2010290424F
:104B1000DFD14A6823F0700313437045DBDD40F6B4
:104B20000042C4F20002904207D0604505D042F630
:104B30000042C4F20102904203D1CA6823F44073D8
:104B4000134323F080024B69D1F800E08C681A43CC
:104B500060450260C462C0F828E005D042F6004219
:104B6000C4F20102904201D109690163012141614E
:104B700010BD0000D0F808C011432CF47F4C41EA6E
:104B8000032141EA0C01816070470000826822F035
:104B90007002114341F0070181607047D0F820C0D6
:104BA000036A23F001030362836923F0F00343EAFD
:104BB00002122CF00A03194382610162704700005F
:104BC000036A23F0100303628369D0F820C023F442
:104BD000704343EA02322CF0A00343EA01118261E0
:104BE0000162704780B5406A0021C185C184FEF72B
:104BF000ADFF80BD0168CA6822F49072CA604A693C
:104C000022F001024A61026B012A03D1CA6822F034
:104C10001002CA60202180F83E1000210163704715
:104C200080B50168CA6822F04002CA60202180F87D
:104C30003D10FFF76BFA80BD80B582B090F83E1052
:104C400022291ED18268B2F5805F02D10169002954
:104C500040D0816AB2F5805F07D00AB9026922B1FB
:104C60000268526802F07F0201E0026852680A702E
:104C70000121826A11448162C18D01390A04C18512
:104C800001D002B080BD0168CA6822F02002CA606B
:104C9000CA6822F48072CA604A6922F001024A613D
:104CA000202280F83E20026B012A1BD100220263E1
:104CB000CB6823F01003CB600B68DB0605D50192AF
:104CC0000A680192496801910199818DFEF73CFFC4
:104CD00002B080BD0168826A49686FF35F2111806C
:104CE0000221C6E7FFF724F902B080BD10B50446E3
:104CF0000068D4E902C22369016921F440511143DB
:104D00000161616943EA0C021143C26841F20C631C
:104D10009A431143C1604169A26921F44071114372
:104D200043F60002C4F201029042416102D0FEF754
:104D3000E1FB01E0FEF7F0FB6268192148439100B6
:104D4000B0FBF1F048F21F51C5F2EB11A0FB0123BB
:104D50005A096FF0630302FB0300322303EB0010D8
:104D6000A0FB0101F02303EA5113206803EB0212B8
:104D7000C1F343111144816010BD0000816282853E
:104D8000C28500212222016480F83E20026880F85A
:104D90003C10D06840F48070D060506940F0010051
:104DA0005061D06840F020010020D16070470000C1
:104DB00090F83D10212923D18168B1F5805F01D1A0
:104DC000016931B1016A02684B1C036209785160C4
:104DD00007E0016A036831F8022B6FF35F225A6023
:104DE0000162C18C01390A04C18418BF7047006890
:104DF000C16821F08001C160C16841F04001C1601B
:104E0000704700002DE9F041044600680068084042
:104E1000884202D10020BDE8F0811D460E46904632
:104E20005F1C04E0206800683040B042F2D0002FE0
:104E3000F8D02DB1FDF7FAFFA0EB0800A842F1D998
:104E40002068C16821F4D071C160416921F001017D
:104E50004161202084F83D0084F83E00002084F861
:104E60003C000320BDE8F08180B543F25C30C2F223
:104E70000000FEF76DFE80BD80B543F2A030C2F2A7
:104E80000000FEF765FE80BDFEE7000080B584B03F
:104E90008DF80F0001200DF10F01CDE9001043F254
:104EA00078204FF0640CC2F2000078210022012328
:104EB000CDF808C0FEF78CF804B080BD80B584B092
:104EC0008DF80F0001200DF10F01CDE9001043F224
:104ED00078204FF0640CC2F20000782140220123B8
:104EE000CDF808C0FEF774F804B080BD002848BFB4
:104EF000704700F01F01012202FA01F14EF2001288
:104F00004009CEF2000242F8201070474EF60C50D5
:104F1000CEF200000068C0F3022070474EF6145332
:104F200000F00F02CEF2000309011A4400F16043C1
:104F3000B0F1FF3FC8BF03F5644211707047000035
:104F40004EF60C51CEF200010A684FF6FF031A40EC
:104F500060F30A2242F0806040F0FD700860704704
:104F60002DE9F04742F62018C2F2000840F200098D
:104F7000A8F1040A041F4FF40077C3F6507900BF6C
:104F800054F8046F30B2FCF702FB4FF08941FCF794
:104F90004CFA4FF06051FCF748FA05463014FCF724
:104FA000F6FA4FF08941FCF740FA4FF06051FCF7F8
:104FB0003CFA064628462946FCF737FA05463046AD
:104FC0003146FCF732FA01462846FCF7D6F9FCF7E1
:104FD0000DFB00F053FD00224B46FCF758FAFCF79E
:104FE00018FB4FF08F41FCF720FAFCF7EBFA013F7A
:104FF0004AF8040FC4D1D8F800004008C8F80000EF
:10500000BDE8F08780B582B08DF8070043F25C30D0
:10501000C2F200000DF1070101220223FFF710F890
:10502000002002B080BD000082B0FEF7A9F8FFF7B3
:10503000FBFCFFF761FAFFF725FAFFF7FDF9FFF731
:10504000CBF9FFF721FBFFF75FFBFFF7DFFAFFF775
:10505000BDFAFFF775FBFFF7C7FBFFF7A7FB43F2AE
:10506000E83043F2EC31C2F20000C2F2000101600C
:1050700043F2AC6446F26140C2F20004C7F26440FD
:1050800043F2201143F22C324FF4A575FE26C3F2F1
:105090002C01C3F232526FF07F4384E80F0000BF4F
:1050A0002046FCF763F9013D2652F9D12046FCF772
:1050B0005DF96FF07F4121501EA0214600F046F8B7
:1050C0001DA20020002110230024FFF74DFC43F215
:1050D0005C3043F22111C2F20000C2F20001012251
:1050E000FEF70AFF43F2CC20C2F20000FEF784FC78
:1050F00043F2541040F20802C2F20000C2F2000271
:10510000002164230094FDF79BFA43F21430C2F2AD
:105110000000FEF771FC43F2241040F22011C2F2AD
:105120000000C2F200014FF48062FDF729F900BFD0
:10513000FEE700BF25730000507265506172653252
:1051400053686F7746265670700000000FB4054B09
:1051500010B503A9044A029800F0F4F810BC5DF8F9
:1051600014FB000005500008000000200FB4084B9D
:1051700010B504A902AA039800F0E4F8044602A9B5
:10518000002000F076FC204610BC5DF814FB000007
:10519000735A000802E008C8121F08C1002AFAD199
:1051A00070477047002001E001C1121F002AFBD1A7
:1051B00070470000014908607047000004000020AB
:1051C0002DE9FF5F82B00021DDE90430020DDDF83A
:1051D00040B0034318D044F61050A2F2FF324243CD
:1051E0001514119801281FD0A5EB0B00401C5FEA95
:1051F000000A4FF000064E4FDFF83891B046504697
:1052000015D5CAF1000413E0119801244AA301281E
:1052100001D16FEA0B010298119AC0E90031C0E98F
:10522000024206B0BDE8F09FCBF10000DFE7044684
:105230000021404A491842EB0450CDE9001012E029
:10524000E00707D032463B4640464946FCF71FF987
:105250008046894632463B4610461946FCF717F908
:1052600006460F466410002CEAD1DDE90401DDE9B1
:105270000023BAF1000F06DAFCF709F942464B4663
:10528000FCF705F905E0FCF762FB42464B46FCF7EC
:105290005EFB04460E460022284BFCF731FC03D887
:1052A0004FF0FF30014607E00022254B20463146F3
:1052B000FCF7A6FAFCF70BFC102409E0002C0ADB33
:1052C0000A220023FCF7D7F9039B30321A55641EDB
:1052D00050EA0102F2D1641C039AC4F11103144490
:1052E000119A012A03D0012208430DD10AE0084394
:1052F00004D000204FF0110B119072E7A3EB0B05C7
:105300006D1E0DE05B4504DD4FF0000205F1010567
:1053100004E003DA4FF00002A5F10105002AECD009
:1053200002981199C0E90231C0E9004579E700000F
:10533000000014400000F03F300000000000F04387
:105340000000E03F2DE9FF4F95B09B468946064699
:1053500000250FE2252877D100242746F84A0121AD
:10536000059400E0044316F8013F203B01FA03F0E6
:105370001042F7D130782A2811D06FF02F033078FF
:10538000A0F13002092A16D8059A44F0020402EB73
:10539000820203EB42021044761C0590EFE759F8B5
:1053A000042B0592002A03DA504244F4005405907D
:1053B00044F00204761C30782E2816D116F8010F1E
:1053C00044F004042A280DD06FF02F023078A0F1A9
:1053D0003003092B09D807EB870302EB4303C718F7
:1053E000761CF3E759F8047B761C30786C280FD0D4
:1053F00006DC4C2817D068280DD06A2814D104E0A8
:10540000742810D07A280FD10DE044F400140AE07B
:1054100044F4801401E044F440147278824202D1D2
:1054200004F58014761C761C307866280BD013DCCB
:10543000582877D009DC002875D04528F6D04628B2
:10544000F4D047281AD19DE118E0632835D06428AC
:1054500079D0652812D195E1702873D008DC6728CF
:10546000F1D069286FD06E280DD06F2806D1B5E035
:1054700073282CD0752875D0782874D05A4617997F
:1054800090476D1C75E1C4F30250022809D003282F
:105490000DD0D9F8001004280DD00D6009F10409D1
:1054A00067E1D9F80010EA17C1E90052F6E7D9F828
:1054B00000100D80F2E70D70F0E719F8041B8DF86D
:1054C000001000208DF80100EA46012003E059F8A1
:1054D00004AB4FF0FF3061074FF0000102D40DE044
:1054E00008F101018846B9420FDA8045F8DB1AF865
:1054F00008100029F4D108E008F101018846814232
:10550000FADB1AF808100029F6D105985B46A0EBE3
:10551000080721463846179A00F094FA284400EB11
:10552000080507E04DE029E10DE01AF8010B5A46A5
:1055300017999047B8F10108F7D25B4621463846E3
:10554000179A13E142E00A220092C4F302524FF08C
:10555000000A022A08D059F804CB032A4FEAEC715A
:105560000AD00DE029E02AE009F1070121F0070245
:10557000F2E802C1914609E00FFA8CFC4FEAEC71A7
:10558000042A03D14FFA8CFC4FEAEC71002907DAA8
:105590000A460021DCF1000C61EB02012D2202E041
:1055A000220504D52B228DF80420012203E0E20716
:1055B00001D02022F7E7904659E00A2102E01022AC
:1055C0000DE010214FF0000A00910BE010224FF087
:1055D000000A44F004040827009203E008224FF078
:1055E000000A0092C4F30252022A05D059F804CBF3
:1055F0000021032A08D009E009F1070121F0070280
:10560000F2E802C1914605E01FFA8CFC042A01D1A0
:105610000CF0FF0C4FF00008220728D5702806D0A8
:10562000009B83F0100353EA0A0305D00EE04022EA
:105630008DF80420012208E05CEA010206D0302245
:105640008DF804208DF8050002229046009B83F01F
:10565000080353EA0A030AD15CEA010201D1620796
:1056600005D530228DF804204FF001087F1E582800
:1056700004D034A003900EA802900DE036A0F9E704
:1056800053466046009AFBF7F6FF84460398825C17
:105690000298401E029002705CEA0100F0D102986C
:1056A00006A9081A00F1200A600702D524F4803404
:1056B00000E00127574502DDA7EB0A0000E00020CB
:1056C00000EB0A01009005984144401A0590E00360
:1056D00006D45B462146179A059800F0B3F90544B5
:1056E000002706E001A85A46C05D179990476D1C37
:1056F0007F1C4745F6DBE0030CD55B462146179A35
:10570000059800F09FF9054404E030205A461799A7
:1057100090476D1C0099481E00900029F5DC08E0B8
:10572000029802995A460078491C029117999047AD
:105730006D1CBAF10001AAF1010AF1DC65E100007B
:105740000928010030313233343536373839616257
:10575000636465660000000030313233343536371B
:1057600038394142434445460000000000F058F9F2
:105770000544761C307800287FF4ECAD19B028463B
:10578000BDE8F08F620700D4062709F1070222F076
:10579000070CFCE80223E14603F000485FEA080C2E
:1057A00002D00FF2702C0DE05FEA045C02D50FF21C
:1057B000682C07E05FEAC47C02D00FF2602C01E0A5
:1057C000AFF2700C4FF0FF3823F00043CDF850C01B
:1057D00065280CD006DC452809D046281DD047286E
:1057E0003DD13DE0662818D067287ED138E0002101
:1057F000112F01DB112000E0781CCDE9000106A982
:105800000EA8FFF7DDFCDDE90F010E9A03910021E0
:10581000009207F1010A04914DE04FF0004000971B
:10582000CDE9011006A90EA8FFF7CAFCDDE90F02B9
:1058300003920E9B11990022DDF80CA000930492B4
:1058400011B9791C00EB010AB7EB0A0004D4C0F1CE
:10585000FF3007F1010A0490AAEB0700019044E031
:10586000012F00DA01270021112F01DD112000E0B6
:105870003846CDE9000106A90EA8FFF7A1FCDDE935
:105880000F010E9A0391002104910092BA4621075C
:105890000CD40399514500DA8A46BAF1010F05DDAF
:1058A000009AAAF10101515C302908D0B84202DA0D
:1058B00010F1040F06DA0121CDE9011015E0AAF17B
:1058C0000101E9E7002805DC049901440491AAEBF1
:1058D000000102E0411C514500DD8A460499401A4E
:1058E000401C01904FF000400290200704D4019822
:1058F000504501DBCDF8048000208DF84F00029860
:105900000DF14F07B0F1004F25D02B200E900298DB
:105910004FF0020800280CDA404202902D200E9031
:1059200007E00A210298FBF790FE3031029007F859
:10593000011DB8F10001A8F10108F2DC029800286D
:10594000EFD1791E0E980870307800F0200040F0FA
:10595000450007F8020D12A8C01B00F107081498B3
:10596000007800B1012000EB0A01019801EBE07121
:1059700005984144401A401E0590E00306D45B465A
:105980002146179A059800F05DF8054414980078B0
:1059900018B15A46179990476D1CE00324D55B4611
:1059A0002146179A059800F04DF805441CE004982C
:1059B000002807DBDDE90301884203DD0098405C35
:1059C000179901E0179930205A469047049805F13D
:1059D0000105401C04900198401E019004D12E2026
:1059E0005A46179990476D1CBAF10001AAF1010AB5
:1059F000DDDC05E017F8010B5A46179990476D1C3E
:105A0000B8F10001A8F10108F4DC5B462146179AC1
:105A10000598ABE62D0000002B00000020000000E0
:105A20002DE9F041044600251E461746880404D49B
:105A300005E039462020B0476D1C641EF9D5284684
:105A4000BDE8F0812DE9F041044600251E46904650
:105A5000C80301D5302700E02027880404D505E0DD
:105A600041463846B0476D1C641EF9D52846BDE84E
:105A7000F0810A68531C0B60107070472DE9F041EB
:105A800006460F46FBF7D2FF041E0D4618BF012045
:105A9000284320F00040C0F17F6000F1E040C00FDB
:105AA0000ED0301C18BF0120384320F00040C0F158
:105AB0007F6000F1E040C00F04BF0120FFF77AFBD8
:105AC00020462946BDE8F0810000000000000000EB
:105AD0000102030406070809000000000102030494
